{
  "contractName": "Coopart",
  "abi": [
    {
      "inputs": [],
      "stateMutability": "nonpayable",
      "type": "constructor"
    },
    {
      "anonymous": false,
      "inputs": [
        {
          "indexed": true,
          "internalType": "address",
          "name": "owner",
          "type": "address"
        },
        {
          "indexed": true,
          "internalType": "address",
          "name": "approved",
          "type": "address"
        },
        {
          "indexed": true,
          "internalType": "uint256",
          "name": "tokenId",
          "type": "uint256"
        }
      ],
      "name": "Approval",
      "type": "event"
    },
    {
      "anonymous": false,
      "inputs": [
        {
          "indexed": true,
          "internalType": "address",
          "name": "owner",
          "type": "address"
        },
        {
          "indexed": true,
          "internalType": "address",
          "name": "operator",
          "type": "address"
        },
        {
          "indexed": false,
          "internalType": "bool",
          "name": "approved",
          "type": "bool"
        }
      ],
      "name": "ApprovalForAll",
      "type": "event"
    },
    {
      "anonymous": false,
      "inputs": [
        {
          "indexed": true,
          "internalType": "address",
          "name": "previousOwner",
          "type": "address"
        },
        {
          "indexed": true,
          "internalType": "address",
          "name": "newOwner",
          "type": "address"
        }
      ],
      "name": "OwnershipTransferred",
      "type": "event"
    },
    {
      "anonymous": false,
      "inputs": [
        {
          "indexed": true,
          "internalType": "address",
          "name": "from",
          "type": "address"
        },
        {
          "indexed": true,
          "internalType": "address",
          "name": "to",
          "type": "address"
        },
        {
          "indexed": true,
          "internalType": "uint256",
          "name": "tokenId",
          "type": "uint256"
        }
      ],
      "name": "Transfer",
      "type": "event"
    },
    {
      "inputs": [
        {
          "internalType": "uint256",
          "name": "_canvasId",
          "type": "uint256"
        },
        {
          "internalType": "string",
          "name": "_imageUri",
          "type": "string"
        },
        {
          "internalType": "address",
          "name": "_author",
          "type": "address"
        }
      ],
      "name": "addLayer",
      "outputs": [
        {
          "internalType": "uint256",
          "name": "",
          "type": "uint256"
        }
      ],
      "stateMutability": "nonpayable",
      "type": "function"
    },
    {
      "inputs": [
        {
          "internalType": "address",
          "name": "to",
          "type": "address"
        },
        {
          "internalType": "uint256",
          "name": "tokenId",
          "type": "uint256"
        }
      ],
      "name": "approve",
      "outputs": [],
      "stateMutability": "nonpayable",
      "type": "function"
    },
    {
      "inputs": [
        {
          "internalType": "address",
          "name": "owner",
          "type": "address"
        }
      ],
      "name": "balanceOf",
      "outputs": [
        {
          "internalType": "uint256",
          "name": "",
          "type": "uint256"
        }
      ],
      "stateMutability": "view",
      "type": "function"
    },
    {
      "inputs": [
        {
          "internalType": "uint256",
          "name": "layerId",
          "type": "uint256"
        }
      ],
      "name": "downVote",
      "outputs": [],
      "stateMutability": "nonpayable",
      "type": "function"
    },
    {
      "inputs": [],
      "name": "getAllOnSale",
      "outputs": [
        {
          "components": [
            {
              "internalType": "uint256",
              "name": "id",
              "type": "uint256"
            },
            {
              "internalType": "uint256",
              "name": "price",
              "type": "uint256"
            },
            {
              "internalType": "string",
              "name": "name",
              "type": "string"
            },
            {
              "internalType": "string",
              "name": "uri",
              "type": "string"
            },
            {
              "internalType": "bool",
              "name": "isOnSale",
              "type": "bool"
            },
            {
              "internalType": "uint256[]",
              "name": "layerIds",
              "type": "uint256[]"
            }
          ],
          "internalType": "struct Coopart.TokenMeta[]",
          "name": "",
          "type": "tuple[]"
        }
      ],
      "stateMutability": "view",
      "type": "function"
    },
    {
      "inputs": [
        {
          "internalType": "uint256",
          "name": "tokenId",
          "type": "uint256"
        }
      ],
      "name": "getApproved",
      "outputs": [
        {
          "internalType": "address",
          "name": "",
          "type": "address"
        }
      ],
      "stateMutability": "view",
      "type": "function"
    },
    {
      "inputs": [
        {
          "internalType": "uint256",
          "name": "layerId",
          "type": "uint256"
        }
      ],
      "name": "getLayer",
      "outputs": [
        {
          "components": [
            {
              "internalType": "string",
              "name": "imageUri",
              "type": "string"
            },
            {
              "internalType": "address",
              "name": "author",
              "type": "address"
            },
            {
              "internalType": "uint256",
              "name": "upVotes",
              "type": "uint256"
            },
            {
              "internalType": "uint256",
              "name": "downVotes",
              "type": "uint256"
            }
          ],
          "internalType": "struct Coopart.Layer",
          "name": "",
          "type": "tuple"
        }
      ],
      "stateMutability": "view",
      "type": "function"
    },
    {
      "inputs": [
        {
          "internalType": "uint256",
          "name": "tokenId",
          "type": "uint256"
        }
      ],
      "name": "getTokenCreatorById",
      "outputs": [
        {
          "internalType": "address",
          "name": "",
          "type": "address"
        }
      ],
      "stateMutability": "view",
      "type": "function"
    },
    {
      "inputs": [],
      "name": "getTokensCreatedByMe",
      "outputs": [
        {
          "internalType": "uint256[]",
          "name": "",
          "type": "uint256[]"
        }
      ],
      "stateMutability": "view",
      "type": "function"
    },
    {
      "inputs": [],
      "name": "getTokensOwnedByMe",
      "outputs": [
        {
          "internalType": "uint256[]",
          "name": "",
          "type": "uint256[]"
        }
      ],
      "stateMutability": "view",
      "type": "function"
    },
    {
      "inputs": [
        {
          "internalType": "address",
          "name": "owner",
          "type": "address"
        },
        {
          "internalType": "address",
          "name": "operator",
          "type": "address"
        }
      ],
      "name": "isApprovedForAll",
      "outputs": [
        {
          "internalType": "bool",
          "name": "",
          "type": "bool"
        }
      ],
      "stateMutability": "view",
      "type": "function"
    },
    {
      "inputs": [
        {
          "internalType": "address",
          "name": "_owner",
          "type": "address"
        },
        {
          "internalType": "string",
          "name": "_tokenURI",
          "type": "string"
        },
        {
          "internalType": "string",
          "name": "_name",
          "type": "string"
        },
        {
          "internalType": "uint256",
          "name": "_price",
          "type": "uint256"
        },
        {
          "internalType": "bool",
          "name": "_isOnSale",
          "type": "bool"
        }
      ],
      "name": "mintCanvas",
      "outputs": [
        {
          "internalType": "uint256",
          "name": "",
          "type": "uint256"
        }
      ],
      "stateMutability": "nonpayable",
      "type": "function"
    },
    {
      "inputs": [],
      "name": "name",
      "outputs": [
        {
          "internalType": "string",
          "name": "",
          "type": "string"
        }
      ],
      "stateMutability": "view",
      "type": "function"
    },
    {
      "inputs": [],
      "name": "owner",
      "outputs": [
        {
          "internalType": "address",
          "name": "",
          "type": "address"
        }
      ],
      "stateMutability": "view",
      "type": "function"
    },
    {
      "inputs": [
        {
          "internalType": "uint256",
          "name": "tokenId",
          "type": "uint256"
        }
      ],
      "name": "ownerOf",
      "outputs": [
        {
          "internalType": "address",
          "name": "",
          "type": "address"
        }
      ],
      "stateMutability": "view",
      "type": "function"
    },
    {
      "inputs": [
        {
          "internalType": "uint256",
          "name": "_tokenId",
          "type": "uint256"
        }
      ],
      "name": "purchaseToken",
      "outputs": [],
      "stateMutability": "payable",
      "type": "function"
    },
    {
      "inputs": [],
      "name": "renounceOwnership",
      "outputs": [],
      "stateMutability": "nonpayable",
      "type": "function"
    },
    {
      "inputs": [
        {
          "internalType": "address",
          "name": "from",
          "type": "address"
        },
        {
          "internalType": "address",
          "name": "to",
          "type": "address"
        },
        {
          "internalType": "uint256",
          "name": "tokenId",
          "type": "uint256"
        }
      ],
      "name": "safeTransferFrom",
      "outputs": [],
      "stateMutability": "nonpayable",
      "type": "function"
    },
    {
      "inputs": [
        {
          "internalType": "address",
          "name": "from",
          "type": "address"
        },
        {
          "internalType": "address",
          "name": "to",
          "type": "address"
        },
        {
          "internalType": "uint256",
          "name": "tokenId",
          "type": "uint256"
        },
        {
          "internalType": "bytes",
          "name": "data",
          "type": "bytes"
        }
      ],
      "name": "safeTransferFrom",
      "outputs": [],
      "stateMutability": "nonpayable",
      "type": "function"
    },
    {
      "inputs": [
        {
          "internalType": "address",
          "name": "operator",
          "type": "address"
        },
        {
          "internalType": "bool",
          "name": "approved",
          "type": "bool"
        }
      ],
      "name": "setApprovalForAll",
      "outputs": [],
      "stateMutability": "nonpayable",
      "type": "function"
    },
    {
      "inputs": [
        {
          "internalType": "string",
          "name": "_newBaseURI",
          "type": "string"
        }
      ],
      "name": "setBaseURI",
      "outputs": [],
      "stateMutability": "nonpayable",
      "type": "function"
    },
    {
      "inputs": [
        {
          "internalType": "uint256",
          "name": "_tokenId",
          "type": "uint256"
        },
        {
          "components": [
            {
              "internalType": "uint256",
              "name": "id",
              "type": "uint256"
            },
            {
              "internalType": "uint256",
              "name": "price",
              "type": "uint256"
            },
            {
              "internalType": "string",
              "name": "name",
              "type": "string"
            },
            {
              "internalType": "string",
              "name": "uri",
              "type": "string"
            },
            {
              "internalType": "bool",
              "name": "isOnSale",
              "type": "bool"
            },
            {
              "internalType": "uint256[]",
              "name": "layerIds",
              "type": "uint256[]"
            }
          ],
          "internalType": "struct Coopart.TokenMeta",
          "name": "_meta",
          "type": "tuple"
        }
      ],
      "name": "setTokenMeta",
      "outputs": [],
      "stateMutability": "nonpayable",
      "type": "function"
    },
    {
      "inputs": [
        {
          "internalType": "uint256",
          "name": "_tokenId",
          "type": "uint256"
        },
        {
          "internalType": "uint256",
          "name": "_price",
          "type": "uint256"
        }
      ],
      "name": "setTokenPrice",
      "outputs": [],
      "stateMutability": "nonpayable",
      "type": "function"
    },
    {
      "inputs": [
        {
          "internalType": "uint256",
          "name": "_tokenId",
          "type": "uint256"
        },
        {
          "internalType": "bool",
          "name": "_isOnSale",
          "type": "bool"
        },
        {
          "internalType": "uint256",
          "name": "_price",
          "type": "uint256"
        }
      ],
      "name": "setTokenSale",
      "outputs": [],
      "stateMutability": "nonpayable",
      "type": "function"
    },
    {
      "inputs": [
        {
          "internalType": "bytes4",
          "name": "interfaceId",
          "type": "bytes4"
        }
      ],
      "name": "supportsInterface",
      "outputs": [
        {
          "internalType": "bool",
          "name": "",
          "type": "bool"
        }
      ],
      "stateMutability": "view",
      "type": "function"
    },
    {
      "inputs": [],
      "name": "symbol",
      "outputs": [
        {
          "internalType": "string",
          "name": "",
          "type": "string"
        }
      ],
      "stateMutability": "view",
      "type": "function"
    },
    {
      "inputs": [
        {
          "internalType": "uint256",
          "name": "_tokenId",
          "type": "uint256"
        }
      ],
      "name": "tokenMeta",
      "outputs": [
        {
          "components": [
            {
              "internalType": "uint256",
              "name": "id",
              "type": "uint256"
            },
            {
              "internalType": "uint256",
              "name": "price",
              "type": "uint256"
            },
            {
              "internalType": "string",
              "name": "name",
              "type": "string"
            },
            {
              "internalType": "string",
              "name": "uri",
              "type": "string"
            },
            {
              "internalType": "bool",
              "name": "isOnSale",
              "type": "bool"
            },
            {
              "internalType": "uint256[]",
              "name": "layerIds",
              "type": "uint256[]"
            }
          ],
          "internalType": "struct Coopart.TokenMeta",
          "name": "",
          "type": "tuple"
        }
      ],
      "stateMutability": "view",
      "type": "function"
    },
    {
      "inputs": [
        {
          "internalType": "uint256",
          "name": "tokenId",
          "type": "uint256"
        }
      ],
      "name": "tokenPrice",
      "outputs": [
        {
          "internalType": "uint256",
          "name": "",
          "type": "uint256"
        }
      ],
      "stateMutability": "view",
      "type": "function"
    },
    {
      "inputs": [
        {
          "internalType": "uint256",
          "name": "tokenId",
          "type": "uint256"
        }
      ],
      "name": "tokenURI",
      "outputs": [
        {
          "internalType": "string",
          "name": "",
          "type": "string"
        }
      ],
      "stateMutability": "view",
      "type": "function"
    },
    {
      "inputs": [
        {
          "internalType": "address",
          "name": "from",
          "type": "address"
        },
        {
          "internalType": "address",
          "name": "to",
          "type": "address"
        },
        {
          "internalType": "uint256",
          "name": "tokenId",
          "type": "uint256"
        }
      ],
      "name": "transferFrom",
      "outputs": [],
      "stateMutability": "nonpayable",
      "type": "function"
    },
    {
      "inputs": [
        {
          "internalType": "address",
          "name": "newOwner",
          "type": "address"
        }
      ],
      "name": "transferOwnership",
      "outputs": [],
      "stateMutability": "nonpayable",
      "type": "function"
    },
    {
      "inputs": [
        {
          "internalType": "uint256",
          "name": "layerId",
          "type": "uint256"
        }
      ],
      "name": "upVote",
      "outputs": [],
      "stateMutability": "nonpayable",
      "type": "function"
    },
    {
      "inputs": [
        {
          "internalType": "uint256",
          "name": "_tokenId",
          "type": "uint256"
        },
        {
          "internalType": "string",
          "name": "_uri",
          "type": "string"
        }
      ],
      "name": "updateTokenMetaUri",
      "outputs": [],
      "stateMutability": "nonpayable",
      "type": "function"
    }
  ],
  "bytecode": "0x60806040523480156200001157600080fd5b50d380156200001f57600080fd5b50d280156200002d57600080fd5b506040518060400160405280600881526020017f436f6f702e6172740000000000000000000000000000000000000000000000008152506040518060400160405280600781526020017f434f4f50415254000000000000000000000000000000000000000000000000008152508160009080519060200190620000b2929190620001ca565b508060019080519060200190620000cb929190620001ca565b505050620000ee620000e2620000fc60201b60201c565b6200010460201b60201c565b6001600781905550620002df565b600033905090565b6000600660009054906101000a900473ffffffffffffffffffffffffffffffffffffffff16905081600660006101000a81548173ffffffffffffffffffffffffffffffffffffffff021916908373ffffffffffffffffffffffffffffffffffffffff1602179055508173ffffffffffffffffffffffffffffffffffffffff168173ffffffffffffffffffffffffffffffffffffffff167f8be0079c531659141344cd1fd0a4f28419497f9722a3daafe3b4186f6b6457e060405160405180910390a35050565b828054620001d8906200027a565b90600052602060002090601f016020900481019282620001fc576000855562000248565b82601f106200021757805160ff191683800117855562000248565b8280016001018555821562000248579182015b82811115620002475782518255916020019190600101906200022a565b5b5090506200025791906200025b565b5090565b5b80821115620002765760008160009055506001016200025c565b5090565b600060028204905060018216806200029357607f821691505b60208210811415620002aa57620002a9620002b0565b5b50919050565b7f4e487b7100000000000000000000000000000000000000000000000000000000600052602260045260246000fd5b61528980620002ef6000396000f3fe6080604052600436106101ee5760003560e01c80638da5cb5b1161010d578063c87b56dd116100a0578063eb685c471161006f578063eb685c47146109e2578063ec859db514610a25578063ed3d0bc414610a68578063f2fde38b14610abf578063f781e3ae14610b02576101ee565b8063c87b56dd1461089a578063d4ddce8a146108f1578063e5d7f2a914610948578063e985e9c51461098b576101ee565b8063a22cb465116100dc578063a22cb465146107a1578063ae71c43c146107e4578063b88d4fde1461083b578063c2db2c421461087e576101ee565b80638da5cb5b1461068f57806390894559146106d457806395d89b4114610719578063a1a0309a1461075e576101ee565b806342842e0e116101855780636387ede6116101545780636387ede61461056d57806370a08231146105b0578063715018a614610607578063867d339714610638576101ee565b806342842e0e1461044b57806355f804b31461048e5780635ba37742146104d15780636352211e14610516576101ee565b80630a989d9c116101c15780630a989d9c146103295780630ae7a3101461036e5780631ae9392d146103c557806323b872dd14610408576101ee565b806301ffc9a7146101f357806306fdde031461024a578063081812fc1461028f578063095ea7b3146102e6575b600080fd5b3480156101ff57600080fd5b50d3801561020c57600080fd5b50d2801561021957600080fd5b50610234600480360381019061022f9190613c5a565b610b59565b604051610241919061462a565b60405180910390f35b34801561025657600080fd5b50d3801561026357600080fd5b50d2801561027057600080fd5b50610279610c3b565b6040516102869190614645565b60405180910390f35b34801561029b57600080fd5b50d380156102a857600080fd5b50d280156102b557600080fd5b506102d060048036038101906102cb9190613cfd565b610ccd565b6040516102dd919061457f565b60405180910390f35b3480156102f257600080fd5b50d380156102ff57600080fd5b50d2801561030c57600080fd5b5061032760048036038101906103229190613c1a565b610d13565b005b34801561033557600080fd5b50d3801561034257600080fd5b50d2801561034f57600080fd5b50610358610e2b565b6040516103659190614608565b60405180910390f35b34801561037a57600080fd5b50d3801561038757600080fd5b50d2801561039457600080fd5b506103af60048036038101906103aa9190613cfd565b610f42565b6040516103bc91906148a9565b60405180910390f35b3480156103d157600080fd5b50d380156103de57600080fd5b50d280156103eb57600080fd5b5061040660048036038101906104019190613cfd565b61112c565b005b34801561041457600080fd5b50d3801561042157600080fd5b50d2801561042e57600080fd5b5061044960048036038101906104449190613a51565b61115d565b005b34801561045757600080fd5b50d3801561046457600080fd5b50d2801561047157600080fd5b5061048c60048036038101906104879190613a51565b6111bd565b005b34801561049a57600080fd5b50d380156104a757600080fd5b50d280156104b457600080fd5b506104cf60048036038101906104ca9190613cb4565b6111dd565b005b3480156104dd57600080fd5b50d380156104ea57600080fd5b50d280156104f757600080fd5b506105006111ff565b60405161050d9190614608565b60405180910390f35b34801561052257600080fd5b50d3801561052f57600080fd5b50d2801561053c57600080fd5b5061055760048036038101906105529190613cfd565b6113e2565b604051610564919061457f565b60405180910390f35b34801561057957600080fd5b50d3801561058657600080fd5b50d2801561059357600080fd5b506105ae60048036038101906105a99190613d2a565b611469565b005b3480156105bc57600080fd5b50d380156105c957600080fd5b50d280156105d657600080fd5b506105f160048036038101906105ec91906139e4565b611542565b6040516105fe91906148cb565b60405180910390f35b34801561061357600080fd5b50d3801561062057600080fd5b50d2801561062d57600080fd5b506106366115fa565b005b34801561064457600080fd5b50d3801561065157600080fd5b50d2801561065e57600080fd5b5061067960048036038101906106749190613cfd565b61160e565b604051610686919061457f565b60405180910390f35b34801561069b57600080fd5b50d380156106a857600080fd5b50d280156106b557600080fd5b506106be61164b565b6040516106cb919061457f565b60405180910390f35b3480156106e057600080fd5b50d380156106ed57600080fd5b50d280156106fa57600080fd5b50610703611675565b60405161071091906145e6565b60405180910390f35b34801561072557600080fd5b50d3801561073257600080fd5b50d2801561073f57600080fd5b5061074861193f565b6040516107559190614645565b60405180910390f35b34801561076a57600080fd5b50d3801561077757600080fd5b50d2801561078457600080fd5b5061079f600480360381019061079a9190613e48565b6119d1565b005b3480156107ad57600080fd5b50d380156107ba57600080fd5b50d280156107c757600080fd5b506107e260048036038101906107dd9190613b27565b611ad0565b005b3480156107f057600080fd5b50d380156107fd57600080fd5b50d2801561080a57600080fd5b5061082560048036038101906108209190613b67565b611ae6565b60405161083291906148cb565b60405180910390f35b34801561084757600080fd5b50d3801561085457600080fd5b50d2801561086157600080fd5b5061087c60048036038101906108779190613aa4565b611bb6565b005b61089860048036038101906108939190613cfd565b611c18565b005b3480156108a657600080fd5b50d380156108b357600080fd5b50d280156108c057600080fd5b506108db60048036038101906108d69190613cfd565b611d62565b6040516108e89190614645565b60405180910390f35b3480156108fd57600080fd5b50d3801561090a57600080fd5b50d2801561091757600080fd5b50610932600480360381019061092d9190613cfd565b611dca565b60405161093f91906148cb565b60405180910390f35b34801561095457600080fd5b50d3801561096157600080fd5b50d2801561096e57600080fd5b5061098960048036038101906109849190613d7d565b611e32565b005b34801561099757600080fd5b50d380156109a457600080fd5b50d280156109b157600080fd5b506109cc60048036038101906109c79190613a11565b611eba565b6040516109d9919061462a565b60405180910390f35b3480156109ee57600080fd5b50d380156109fb57600080fd5b50d28015610a0857600080fd5b50610a236004803603810190610a1e9190613ea4565b611f4e565b005b348015610a3157600080fd5b50d38015610a3e57600080fd5b50d28015610a4b57600080fd5b50610a666004803603810190610a619190613cfd565b611ffc565b005b348015610a7457600080fd5b50d38015610a8157600080fd5b50d28015610a8e57600080fd5b50610aa96004803603810190610aa49190613dd9565b61202d565b604051610ab691906148cb565b60405180910390f35b348015610acb57600080fd5b50d38015610ad857600080fd5b50d28015610ae557600080fd5b50610b006004803603810190610afb91906139e4565b61231c565b005b348015610b0e57600080fd5b50d38015610b1b57600080fd5b50d28015610b2857600080fd5b50610b436004803603810190610b3e9190613cfd565b6123a0565b604051610b509190614887565b60405180910390f35b60007f80ac58cd000000000000000000000000000000000000000000000000000000007bffffffffffffffffffffffffffffffffffffffffffffffffffffffff1916827bffffffffffffffffffffffffffffffffffffffffffffffffffffffff19161480610c2457507f5b5e139f000000000000000000000000000000000000000000000000000000007bffffffffffffffffffffffffffffffffffffffffffffffffffffffff1916827bffffffffffffffffffffffffffffffffffffffffffffffffffffffff1916145b80610c345750610c33826124c9565b5b9050919050565b606060008054610c4a90614bd1565b80601f0160208091040260200160405190810160405280929190818152602001828054610c7690614bd1565b8015610cc35780601f10610c9857610100808354040283529160200191610cc3565b820191906000526020600020905b815481529060010190602001808311610ca657829003601f168201915b5050505050905090565b6000610cd882612533565b6004600083815260200190815260200160002060009054906101000a900473ffffffffffffffffffffffffffffffffffffffff169050919050565b6000610d1e826113e2565b90508073ffffffffffffffffffffffffffffffffffffffff168373ffffffffffffffffffffffffffffffffffffffff161415610d8f576040517f08c379a0000000000000000000000000000000000000000000000000000000008152600401610d8690614807565b60405180910390fd5b8073ffffffffffffffffffffffffffffffffffffffff16610dae61257e565b73ffffffffffffffffffffffffffffffffffffffff161480610ddd5750610ddc81610dd761257e565b611eba565b5b610e1c576040517f08c379a0000000000000000000000000000000000000000000000000000000008152600401610e1390614827565b60405180910390fd5b610e268383612586565b505050565b60606000610e39600861263f565b90506000610e4633611542565b905060008167ffffffffffffffff811115610e6457610e63614d39565b5b604051908082528060200260200182016040528015610e925781602001602082028036833780820191505090505b5090506000805b84811015610f37576000600182610eb09190614a70565b90503373ffffffffffffffffffffffffffffffffffffffff16610ed2826113e2565b73ffffffffffffffffffffffffffffffffffffffff1614610ef35750610f24565b80848481518110610f0757610f06614d0a565b5b602002602001018181525050600183610f209190614a70565b9250505b8080610f2f90614c34565b915050610e99565b508194505050505090565b610f4a613598565b610f538261264d565b610f5c57600080fd5b600960008381526020019081526020016000206040518060c00160405290816000820154815260200160018201548152602001600282018054610f9e90614bd1565b80601f0160208091040260200160405190810160405280929190818152602001828054610fca90614bd1565b80156110175780601f10610fec57610100808354040283529160200191611017565b820191906000526020600020905b815481529060010190602001808311610ffa57829003601f168201915b5050505050815260200160038201805461103090614bd1565b80601f016020809104026020016040519081016040528092919081815260200182805461105c90614bd1565b80156110a95780601f1061107e576101008083540402835291602001916110a9565b820191906000526020600020905b81548152906001019060200180831161108c57829003601f168201915b505050505081526020016004820160009054906101000a900460ff161515151581526020016005820180548060200260200160405190810160405280929190818152602001828054801561111c57602002820191906000526020600020905b815481526020019060010190808311611108575b5050505050815250509050919050565b6001600d600083815260200190815260200160002060030160008282546111539190614a70565b9250508190555050565b61116e61116861257e565b8261268e565b6111ad576040517f08c379a00000000000000000000000000000000000000000000000000000000081526004016111a490614667565b60405180910390fd5b6111b8838383612723565b505050565b6111d883838360405180602001604052806000815250611bb6565b505050565b6111e5612a1d565b80600b90805190602001906111fb9291906135d0565b5050565b6060600061120d600861263f565b90506000805b828110156112bc57600060018261122a9190614a70565b90503373ffffffffffffffffffffffffffffffffffffffff16600a600083815260200190815260200160002060009054906101000a900473ffffffffffffffffffffffffffffffffffffffff1673ffffffffffffffffffffffffffffffffffffffff161461129857506112a9565b6001836112a59190614a70565b9250505b80806112b490614c34565b915050611213565b5060008167ffffffffffffffff8111156112d9576112d8614d39565b5b6040519080825280602002602001820160405280156113075781602001602082028036833780820191505090505b5090506000805b848110156113d75760006001826113259190614a70565b90503373ffffffffffffffffffffffffffffffffffffffff16600a600083815260200190815260200160002060009054906101000a900473ffffffffffffffffffffffffffffffffffffffff1673ffffffffffffffffffffffffffffffffffffffff161461139357506113c4565b808484815181106113a7576113a6614d0a565b5b6020026020010181815250506001836113c09190614a70565b9250505b80806113cf90614c34565b91505061130e565b508194505050505090565b6000806113ee83612a9b565b9050600073ffffffffffffffffffffffffffffffffffffffff168173ffffffffffffffffffffffffffffffffffffffff161415611460576040517f08c379a0000000000000000000000000000000000000000000000000000000008152600401611457906147e7565b60405180910390fd5b80915050919050565b6114728361264d565b6114b1576040517f08c379a00000000000000000000000000000000000000000000000000000000081526004016114a890614847565b60405180910390fd5b600081116114be57600080fd5b6114c661257e565b73ffffffffffffffffffffffffffffffffffffffff166114e5846113e2565b73ffffffffffffffffffffffffffffffffffffffff161461150557600080fd5b816009600085815260200190815260200160002060040160006101000a81548160ff02191690831515021790555061153d8382611f4e565b505050565b60008073ffffffffffffffffffffffffffffffffffffffff168273ffffffffffffffffffffffffffffffffffffffff1614156115b3576040517f08c379a00000000000000000000000000000000000000000000000000000000081526004016115aa90614747565b60405180910390fd5b600360008373ffffffffffffffffffffffffffffffffffffffff1673ffffffffffffffffffffffffffffffffffffffff168152602001908152602001600020549050919050565b611602612a1d565b61160c6000612ad8565b565b6000600a600083815260200190815260200160002060009054906101000a900473ffffffffffffffffffffffffffffffffffffffff169050919050565b6000600660009054906101000a900473ffffffffffffffffffffffffffffffffffffffff16905090565b60606000611683600861263f565b67ffffffffffffffff81111561169c5761169b614d39565b5b6040519080825280602002602001820160405280156116d557816020015b6116c2613598565b8152602001906001900390816116ba5790505b509050600080600190505b60016116ec600861263f565b6116f69190614a70565b81101561193657600115156009600083815260200190815260200160002060040160009054906101000a900460ff161515141561192357600960008281526020019081526020016000206040518060c0016040529081600082015481526020016001820154815260200160028201805461176f90614bd1565b80601f016020809104026020016040519081016040528092919081815260200182805461179b90614bd1565b80156117e85780601f106117bd576101008083540402835291602001916117e8565b820191906000526020600020905b8154815290600101906020018083116117cb57829003601f168201915b5050505050815260200160038201805461180190614bd1565b80601f016020809104026020016040519081016040528092919081815260200182805461182d90614bd1565b801561187a5780601f1061184f5761010080835404028352916020019161187a565b820191906000526020600020905b81548152906001019060200180831161185d57829003601f168201915b505050505081526020016004820160009054906101000a900460ff16151515158152602001600582018054806020026020016040519081016040528092919081815260200182805480156118ed57602002820191906000526020600020905b8154815260200190600101908083116118d9575b50505050508152505083838151811061190957611908614d0a565b5b6020026020010181905250818061191f90614c34565b9250505b808061192e90614c34565b9150506116e0565b50819250505090565b60606001805461194e90614bd1565b80601f016020809104026020016040519081016040528092919081815260200182805461197a90614bd1565b80156119c75780601f1061199c576101008083540402835291602001916119c7565b820191906000526020600020905b8154815290600101906020018083116119aa57829003601f168201915b5050505050905090565b6119da8261264d565b6119e357600080fd5b6119eb61257e565b73ffffffffffffffffffffffffffffffffffffffff16611a0a836113e2565b73ffffffffffffffffffffffffffffffffffffffff1614611a2a57600080fd5b806009600084815260200190815260200160002060008201518160000155602082015181600101556040820151816002019080519060200190611a6e9291906135d0565b506060820151816003019080519060200190611a8b9291906135d0565b5060808201518160040160006101000a81548160ff02191690831515021790555060a0820151816005019080519060200190611ac8929190613656565b509050505050565b611ae2611adb61257e565b8383612b9e565b5050565b6000808311611af457600080fd5b611afe6008612d0b565b6000611b0a600861263f565b9050611b168782612d21565b33600a600083815260200190815260200160002060006101000a81548173ffffffffffffffffffffffffffffffffffffffff021916908373ffffffffffffffffffffffffffffffffffffffff160217905550606060006040518060c001604052808481526020018781526020018881526020018981526020018615158152602001838152509050611ba783826119d1565b82935050505095945050505050565b611bc7611bc161257e565b8361268e565b611c06576040517f08c379a0000000000000000000000000000000000000000000000000000000008152600401611bfd90614667565b60405180910390fd5b611c1284848484612f3f565b50505050565b611c20612f9b565b600073ffffffffffffffffffffffffffffffffffffffff163373ffffffffffffffffffffffffffffffffffffffff1614158015611c915750611c61816113e2565b73ffffffffffffffffffffffffffffffffffffffff163373ffffffffffffffffffffffffffffffffffffffff1614155b611c9a57600080fd5b6009600082815260200190815260200160002060010154341015611cbd57600080fd5b6000611cc8826113e2565b90508073ffffffffffffffffffffffffffffffffffffffff166108fc349081150290604051600060405180830381858888f19350505050158015611d10573d6000803e3d6000fd5b50611d1c816001611ad0565b611d27813384612723565b60006009600084815260200190815260200160002060040160006101000a81548160ff02191690831515021790555050611d5f612feb565b50565b6060611d6d82612533565b6000611d77612ff5565b90506000815111611d975760405180602001604052806000815250611dc2565b80611da184613087565b604051602001611db292919061455b565b6040516020818303038152906040525b915050919050565b6000611dd58261264d565b611e14576040517f08c379a0000000000000000000000000000000000000000000000000000000008152600401611e0b90614767565b60405180910390fd5b60096000838152602001908152602001600020600101549050919050565b611e3b8261264d565b611e4457600080fd5b611e4c61257e565b73ffffffffffffffffffffffffffffffffffffffff16611e6b836113e2565b73ffffffffffffffffffffffffffffffffffffffff1614611e8b57600080fd5b80600960008481526020019081526020016000206003019080519060200190611eb59291906135d0565b505050565b6000600560008473ffffffffffffffffffffffffffffffffffffffff1673ffffffffffffffffffffffffffffffffffffffff16815260200190815260200160002060008373ffffffffffffffffffffffffffffffffffffffff1673ffffffffffffffffffffffffffffffffffffffff16815260200190815260200160002060009054906101000a900460ff16905092915050565b611f578261264d565b611f96576040517f08c379a0000000000000000000000000000000000000000000000000000000008152600401611f8d906147c7565b60405180910390fd5b611f9e61257e565b73ffffffffffffffffffffffffffffffffffffffff16611fbd836113e2565b73ffffffffffffffffffffffffffffffffffffffff1614611fdd57600080fd5b8060096000848152602001908152602001600020600101819055505050565b6001600d600083815260200190815260200160002060020160008282546120239190614a70565b9250508190555050565b6000612039600c612d0b565b6000612045600c61263f565b905060405180608001604052808581526020018473ffffffffffffffffffffffffffffffffffffffff168152602001600081526020016000815250600d600083815260200190815260200160002060008201518160000190805190602001906120af9291906135d0565b5060208201518160010160006101000a81548173ffffffffffffffffffffffffffffffffffffffff021916908373ffffffffffffffffffffffffffffffffffffffff160217905550604082015181600201556060820151816003015590505060006009600087815260200190815260200160002090508060050182908060018154018082558091505060019003906000526020600020016000909190919091505561231086826040518060c0016040529081600082015481526020016001820154815260200160028201805461218490614bd1565b80601f01602080910402602001604051908101604052809291908181526020018280546121b090614bd1565b80156121fd5780601f106121d2576101008083540402835291602001916121fd565b820191906000526020600020905b8154815290600101906020018083116121e057829003601f168201915b5050505050815260200160038201805461221690614bd1565b80601f016020809104026020016040519081016040528092919081815260200182805461224290614bd1565b801561228f5780601f106122645761010080835404028352916020019161228f565b820191906000526020600020905b81548152906001019060200180831161227257829003601f168201915b505050505081526020016004820160009054906101000a900460ff161515151581526020016005820180548060200260200160405190810160405280929190818152602001828054801561230257602002820191906000526020600020905b8154815260200190600101908083116122ee575b5050505050815250506119d1565b81925050509392505050565b612324612a1d565b600073ffffffffffffffffffffffffffffffffffffffff168173ffffffffffffffffffffffffffffffffffffffff161415612394576040517f08c379a000000000000000000000000000000000000000000000000000000000815260040161238b906146a7565b60405180910390fd5b61239d81612ad8565b50565b6123a86136a3565b600d60008381526020019081526020016000206040518060800160405290816000820180546123d690614bd1565b80601f016020809104026020016040519081016040528092919081815260200182805461240290614bd1565b801561244f5780601f106124245761010080835404028352916020019161244f565b820191906000526020600020905b81548152906001019060200180831161243257829003601f168201915b505050505081526020016001820160009054906101000a900473ffffffffffffffffffffffffffffffffffffffff1673ffffffffffffffffffffffffffffffffffffffff1673ffffffffffffffffffffffffffffffffffffffff168152602001600282015481526020016003820154815250509050919050565b60007f01ffc9a7000000000000000000000000000000000000000000000000000000007bffffffffffffffffffffffffffffffffffffffffffffffffffffffff1916827bffffffffffffffffffffffffffffffffffffffffffffffffffffffff1916149050919050565b61253c8161264d565b61257b576040517f08c379a0000000000000000000000000000000000000000000000000000000008152600401612572906147e7565b60405180910390fd5b50565b600033905090565b816004600083815260200190815260200160002060006101000a81548173ffffffffffffffffffffffffffffffffffffffff021916908373ffffffffffffffffffffffffffffffffffffffff160217905550808273ffffffffffffffffffffffffffffffffffffffff166125f9836113e2565b73ffffffffffffffffffffffffffffffffffffffff167f8c5be1e5ebec7d5bd14f71427d1e84f3dd0314c0f7b2291e5b200ac8c7c3b92560405160405180910390a45050565b600081600001549050919050565b60008073ffffffffffffffffffffffffffffffffffffffff1661266f83612a9b565b73ffffffffffffffffffffffffffffffffffffffff1614159050919050565b60008061269a836113e2565b90508073ffffffffffffffffffffffffffffffffffffffff168473ffffffffffffffffffffffffffffffffffffffff1614806126dc57506126db8185611eba565b5b8061271a57508373ffffffffffffffffffffffffffffffffffffffff1661270284610ccd565b73ffffffffffffffffffffffffffffffffffffffff16145b91505092915050565b8273ffffffffffffffffffffffffffffffffffffffff16612743826113e2565b73ffffffffffffffffffffffffffffffffffffffff1614612799576040517f08c379a0000000000000000000000000000000000000000000000000000000008152600401612790906146c7565b60405180910390fd5b600073ffffffffffffffffffffffffffffffffffffffff168273ffffffffffffffffffffffffffffffffffffffff161415612809576040517f08c379a000000000000000000000000000000000000000000000000000000000815260040161280090614707565b60405180910390fd5b612816838383600161315f565b8273ffffffffffffffffffffffffffffffffffffffff16612836826113e2565b73ffffffffffffffffffffffffffffffffffffffff161461288c576040517f08c379a0000000000000000000000000000000000000000000000000000000008152600401612883906146c7565b60405180910390fd5b6004600082815260200190815260200160002060006101000a81549073ffffffffffffffffffffffffffffffffffffffff02191690556001600360008573ffffffffffffffffffffffffffffffffffffffff1673ffffffffffffffffffffffffffffffffffffffff168152602001908152602001600020600082825403925050819055506001600360008473ffffffffffffffffffffffffffffffffffffffff1673ffffffffffffffffffffffffffffffffffffffff16815260200190815260200160002060008282540192505081905550816002600083815260200190815260200160002060006101000a81548173ffffffffffffffffffffffffffffffffffffffff021916908373ffffffffffffffffffffffffffffffffffffffff160217905550808273ffffffffffffffffffffffffffffffffffffffff168473ffffffffffffffffffffffffffffffffffffffff167fddf252ad1be2c89b69c2b068fc378daa952ba7f163c4a11628f55a4df523b3ef60405160405180910390a4612a188383836001613285565b505050565b612a2561257e565b73ffffffffffffffffffffffffffffffffffffffff16612a4361164b565b73ffffffffffffffffffffffffffffffffffffffff1614612a99576040517f08c379a0000000000000000000000000000000000000000000000000000000008152600401612a90906147a7565b60405180910390fd5b565b60006002600083815260200190815260200160002060009054906101000a900473ffffffffffffffffffffffffffffffffffffffff169050919050565b6000600660009054906101000a900473ffffffffffffffffffffffffffffffffffffffff16905081600660006101000a81548173ffffffffffffffffffffffffffffffffffffffff021916908373ffffffffffffffffffffffffffffffffffffffff1602179055508173ffffffffffffffffffffffffffffffffffffffff168173ffffffffffffffffffffffffffffffffffffffff167f8be0079c531659141344cd1fd0a4f28419497f9722a3daafe3b4186f6b6457e060405160405180910390a35050565b8173ffffffffffffffffffffffffffffffffffffffff168373ffffffffffffffffffffffffffffffffffffffff161415612c0d576040517f08c379a0000000000000000000000000000000000000000000000000000000008152600401612c0490614727565b60405180910390fd5b80600560008573ffffffffffffffffffffffffffffffffffffffff1673ffffffffffffffffffffffffffffffffffffffff16815260200190815260200160002060008473ffffffffffffffffffffffffffffffffffffffff1673ffffffffffffffffffffffffffffffffffffffff16815260200190815260200160002060006101000a81548160ff0219169083151502179055508173ffffffffffffffffffffffffffffffffffffffff168373ffffffffffffffffffffffffffffffffffffffff167f17307eab39ab6107e8899845ad3d59bd9653f200f220920489ca2b5937696c3183604051612cfe919061462a565b60405180910390a3505050565b6001816000016000828254019250508190555050565b600073ffffffffffffffffffffffffffffffffffffffff168273ffffffffffffffffffffffffffffffffffffffff161415612d91576040517f08c379a0000000000000000000000000000000000000000000000000000000008152600401612d8890614787565b60405180910390fd5b612d9a8161264d565b15612dda576040517f08c379a0000000000000000000000000000000000000000000000000000000008152600401612dd1906146e7565b60405180910390fd5b612de860008383600161315f565b612df18161264d565b15612e31576040517f08c379a0000000000000000000000000000000000000000000000000000000008152600401612e28906146e7565b60405180910390fd5b6001600360008473ffffffffffffffffffffffffffffffffffffffff1673ffffffffffffffffffffffffffffffffffffffff16815260200190815260200160002060008282540192505081905550816002600083815260200190815260200160002060006101000a81548173ffffffffffffffffffffffffffffffffffffffff021916908373ffffffffffffffffffffffffffffffffffffffff160217905550808273ffffffffffffffffffffffffffffffffffffffff16600073ffffffffffffffffffffffffffffffffffffffff167fddf252ad1be2c89b69c2b068fc378daa952ba7f163c4a11628f55a4df523b3ef60405160405180910390a4612f3b600083836001613285565b5050565b612f4a848484612723565b612f568484848461328b565b612f95576040517f08c379a0000000000000000000000000000000000000000000000000000000008152600401612f8c90614687565b60405180910390fd5b50505050565b60026007541415612fe1576040517f08c379a0000000000000000000000000000000000000000000000000000000008152600401612fd890614867565b60405180910390fd5b6002600781905550565b6001600781905550565b6060600b805461300490614bd1565b80601f016020809104026020016040519081016040528092919081815260200182805461303090614bd1565b801561307d5780601f106130525761010080835404028352916020019161307d565b820191906000526020600020905b81548152906001019060200180831161306057829003601f168201915b5050505050905090565b60606000600161309684613422565b01905060008167ffffffffffffffff8111156130b5576130b4614d39565b5b6040519080825280601f01601f1916602001820160405280156130e75781602001600182028036833780820191505090505b509050600082602001820190505b600115613154578080600190039150507f3031323334353637383961626364656600000000000000000000000000000000600a86061a8153600a858161313e5761313d614cac565b5b049450600085141561314f57613154565b6130f5565b819350505050919050565b600181111561327f57600073ffffffffffffffffffffffffffffffffffffffff168473ffffffffffffffffffffffffffffffffffffffff16146131f35780600360008673ffffffffffffffffffffffffffffffffffffffff1673ffffffffffffffffffffffffffffffffffffffff16815260200190815260200160002060008282546131eb9190614ac6565b925050819055505b600073ffffffffffffffffffffffffffffffffffffffff168373ffffffffffffffffffffffffffffffffffffffff161461327e5780600360008573ffffffffffffffffffffffffffffffffffffffff1673ffffffffffffffffffffffffffffffffffffffff16815260200190815260200160002060008282546132769190614a70565b925050819055505b5b50505050565b50505050565b60006132ac8473ffffffffffffffffffffffffffffffffffffffff16613575565b15613415578373ffffffffffffffffffffffffffffffffffffffff1663150b7a026132d561257e565b8786866040518563ffffffff1660e01b81526004016132f7949392919061459a565b602060405180830381600087803b15801561331157600080fd5b505af192505050801561334257506040513d601f19601f8201168201806040525081019061333f9190613c87565b60015b6133c5573d8060008114613372576040519150601f19603f3d011682016040523d82523d6000602084013e613377565b606091505b506000815114156133bd576040517f08c379a00000000000000000000000000000000000000000000000000000000081526004016133b490614687565b60405180910390fd5b805181602001fd5b63150b7a0260e01b7bffffffffffffffffffffffffffffffffffffffffffffffffffffffff1916817bffffffffffffffffffffffffffffffffffffffffffffffffffffffff19161491505061341a565b600190505b949350505050565b600080600090507a184f03e93ff9f4daa797ed6e38ed64bf6a1f0100000000000000008310613480577a184f03e93ff9f4daa797ed6e38ed64bf6a1f010000000000000000838161347657613475614cac565b5b0492506040810190505b6d04ee2d6d415b85acef810000000083106134bd576d04ee2d6d415b85acef810000000083816134b3576134b2614cac565b5b0492506020810190505b662386f26fc1000083106134ec57662386f26fc1000083816134e2576134e1614cac565b5b0492506010810190505b6305f5e1008310613515576305f5e100838161350b5761350a614cac565b5b0492506008810190505b612710831061353a5761271083816135305761352f614cac565b5b0492506004810190505b6064831061355d576064838161355357613552614cac565b5b0492506002810190505b600a831061356c576001810190505b80915050919050565b6000808273ffffffffffffffffffffffffffffffffffffffff163b119050919050565b6040518060c0016040528060008152602001600081526020016060815260200160608152602001600015158152602001606081525090565b8280546135dc90614bd1565b90600052602060002090601f0160209004810192826135fe5760008555613645565b82601f1061361757805160ff1916838001178555613645565b82800160010185558215613645579182015b82811115613644578251825591602001919060010190613629565b5b50905061365291906136e1565b5090565b828054828255906000526020600020908101928215613692579160200282015b82811115613691578251825591602001919060010190613676565b5b50905061369f91906136e1565b5090565b604051806080016040528060608152602001600073ffffffffffffffffffffffffffffffffffffffff16815260200160008152602001600081525090565b5b808211156136fa5760008160009055506001016136e2565b5090565b600061371161370c8461490b565b6148e6565b9050808382526020820190508285602086028201111561373457613733614d77565b5b60005b85811015613764578161374a88826139cf565b845260208401935060208301925050600181019050613737565b5050509392505050565b600061378161377c84614937565b6148e6565b90508281526020810184848401111561379d5761379c614d7c565b5b6137a8848285614b8f565b509392505050565b60006137c36137be84614968565b6148e6565b9050828152602081018484840111156137df576137de614d7c565b5b6137ea848285614b8f565b509392505050565b600081359050613801816151f7565b61380a81614afa565b905092915050565b600082601f83011261382757613826614d68565b5b81356138378482602086016136fe565b91505092915050565b60008135905061384f8161520e565b92915050565b60008135905061386481615225565b92915050565b60008151905061387981615225565b92915050565b600082601f83011261389457613893614d68565b5b81356138a484826020860161376e565b91505092915050565b600082601f8301126138c2576138c1614d68565b5b81356138d28482602086016137b0565b91505092915050565b600060c082840312156138f1576138f0614d6d565b5b6138fb60c06148e6565b9050600061390b848285016139cf565b600083015250602061391f848285016139cf565b602083015250604082013567ffffffffffffffff81111561394357613942614d72565b5b61394f848285016138ad565b604083015250606082013567ffffffffffffffff81111561397357613972614d72565b5b61397f848285016138ad565b606083015250608061399384828501613840565b60808301525060a082013567ffffffffffffffff8111156139b7576139b6614d72565b5b6139c384828501613812565b60a08301525092915050565b6000813590506139de8161523c565b92915050565b6000602082840312156139fa576139f9614d86565b5b6000613a08848285016137f2565b91505092915050565b60008060408385031215613a2857613a27614d86565b5b6000613a36858286016137f2565b9250506020613a47858286016137f2565b9150509250929050565b600080600060608486031215613a6a57613a69614d86565b5b6000613a78868287016137f2565b9350506020613a89868287016137f2565b9250506040613a9a868287016139cf565b9150509250925092565b60008060008060808587031215613abe57613abd614d86565b5b6000613acc878288016137f2565b9450506020613add878288016137f2565b9350506040613aee878288016139cf565b925050606085013567ffffffffffffffff811115613b0f57613b0e614d81565b5b613b1b8782880161387f565b91505092959194509250565b60008060408385031215613b3e57613b3d614d86565b5b6000613b4c858286016137f2565b9250506020613b5d85828601613840565b9150509250929050565b600080600080600060a08688031215613b8357613b82614d86565b5b6000613b91888289016137f2565b955050602086013567ffffffffffffffff811115613bb257613bb1614d81565b5b613bbe888289016138ad565b945050604086013567ffffffffffffffff811115613bdf57613bde614d81565b5b613beb888289016138ad565b9350506060613bfc888289016139cf565b9250506080613c0d88828901613840565b9150509295509295909350565b60008060408385031215613c3157613c30614d86565b5b6000613c3f858286016137f2565b9250506020613c50858286016139cf565b9150509250929050565b600060208284031215613c7057613c6f614d86565b5b6000613c7e84828501613855565b91505092915050565b600060208284031215613c9d57613c9c614d86565b5b6000613cab8482850161386a565b91505092915050565b600060208284031215613cca57613cc9614d86565b5b600082013567ffffffffffffffff811115613ce857613ce7614d81565b5b613cf4848285016138ad565b91505092915050565b600060208284031215613d1357613d12614d86565b5b6000613d21848285016139cf565b91505092915050565b600080600060608486031215613d4357613d42614d86565b5b6000613d51868287016139cf565b9350506020613d6286828701613840565b9250506040613d73868287016139cf565b9150509250925092565b60008060408385031215613d9457613d93614d86565b5b6000613da2858286016139cf565b925050602083013567ffffffffffffffff811115613dc357613dc2614d81565b5b613dcf858286016138ad565b9150509250929050565b600080600060608486031215613df257613df1614d86565b5b6000613e00868287016139cf565b935050602084013567ffffffffffffffff811115613e2157613e20614d81565b5b613e2d868287016138ad565b9250506040613e3e868287016137f2565b9150509250925092565b60008060408385031215613e5f57613e5e614d86565b5b6000613e6d858286016139cf565b925050602083013567ffffffffffffffff811115613e8e57613e8d614d81565b5b613e9a858286016138db565b9150509250929050565b60008060408385031215613ebb57613eba614d86565b5b6000613ec9858286016139cf565b9250506020613eda858286016139cf565b9150509250929050565b6000613ef0838361440f565b905092915050565b6000613f04838361453d565b60208301905092915050565b613f1981614afa565b82525050565b613f2881614afa565b82525050565b6000613f39826149b9565b613f4381856149ff565b935083602082028501613f5585614999565b8060005b85811015613f915784840389528151613f728582613ee4565b9450613f7d836149e5565b925060208a01995050600181019050613f59565b50829750879550505050505092915050565b6000613fae826149c4565b613fb88185614a10565b9350613fc3836149a9565b8060005b83811015613ff4578151613fdb8882613ef8565b9750613fe6836149f2565b925050600181019050613fc7565b5085935050505092915050565b600061400c826149c4565b6140168185614a21565b9350614021836149a9565b8060005b838110156140525781516140398882613ef8565b9750614044836149f2565b925050600181019050614025565b5085935050505092915050565b61406881614b0c565b82525050565b61407781614b0c565b82525050565b6000614088826149cf565b6140928185614a32565b93506140a2818560208601614b9e565b6140ab81614d8b565b840191505092915050565b60006140c1826149da565b6140cb8185614a43565b93506140db818560208601614b9e565b6140e481614d8b565b840191505092915050565b60006140fa826149da565b6141048185614a54565b9350614114818560208601614b9e565b61411d81614d8b565b840191505092915050565b6000614133826149da565b61413d8185614a65565b935061414d818560208601614b9e565b80840191505092915050565b6000614166602d83614a54565b915061417182614d9c565b604082019050919050565b6000614189603283614a54565b915061419482614deb565b604082019050919050565b60006141ac602683614a54565b91506141b782614e3a565b604082019050919050565b60006141cf602583614a54565b91506141da82614e89565b604082019050919050565b60006141f2601c83614a54565b91506141fd82614ed8565b602082019050919050565b6000614215602483614a54565b915061422082614f01565b604082019050919050565b6000614238601983614a54565b915061424382614f50565b602082019050919050565b600061425b602983614a54565b915061426682614f79565b604082019050919050565b600061427e603183614a54565b915061428982614fc8565b604082019050919050565b60006142a1602083614a54565b91506142ac82615017565b602082019050919050565b60006142c4602083614a54565b91506142cf82615040565b602082019050919050565b60006142e7602e83614a54565b91506142f282615069565b604082019050919050565b600061430a601883614a54565b9150614315826150b8565b602082019050919050565b600061432d602183614a54565b9150614338826150e1565b604082019050919050565b6000614350603d83614a54565b915061435b82615130565b604082019050919050565b6000614373602d83614a54565b915061437e8261517f565b604082019050919050565b6000614396601f83614a54565b91506143a1826151ce565b602082019050919050565b600060808301600083015184820360008601526143c982826140b6565b91505060208301516143de6020860182613f10565b5060408301516143f1604086018261453d565b506060830151614404606086018261453d565b508091505092915050565b600060c083016000830151614427600086018261453d565b50602083015161443a602086018261453d565b506040830151848203604086015261445282826140b6565b9150506060830151848203606086015261446c82826140b6565b9150506080830151614481608086018261405f565b5060a083015184820360a08601526144998282613fa3565b9150508091505092915050565b600060c0830160008301516144be600086018261453d565b5060208301516144d1602086018261453d565b50604083015184820360408601526144e982826140b6565b9150506060830151848203606086015261450382826140b6565b9150506080830151614518608086018261405f565b5060a083015184820360a08601526145308282613fa3565b9150508091505092915050565b61454681614b85565b82525050565b61455581614b85565b82525050565b60006145678285614128565b91506145738284614128565b91508190509392505050565b60006020820190506145946000830184613f1f565b92915050565b60006080820190506145af6000830187613f1f565b6145bc6020830186613f1f565b6145c9604083018561454c565b81810360608301526145db818461407d565b905095945050505050565b600060208201905081810360008301526146008184613f2e565b905092915050565b600060208201905081810360008301526146228184614001565b905092915050565b600060208201905061463f600083018461406e565b92915050565b6000602082019050818103600083015261465f81846140ef565b905092915050565b6000602082019050818103600083015261468081614159565b9050919050565b600060208201905081810360008301526146a08161417c565b9050919050565b600060208201905081810360008301526146c08161419f565b9050919050565b600060208201905081810360008301526146e0816141c2565b9050919050565b60006020820190508181036000830152614700816141e5565b9050919050565b6000602082019050818103600083015261472081614208565b9050919050565b600060208201905081810360008301526147408161422b565b9050919050565b600060208201905081810360008301526147608161424e565b9050919050565b6000602082019050818103600083015261478081614271565b9050919050565b600060208201905081810360008301526147a081614294565b9050919050565b600060208201905081810360008301526147c0816142b7565b9050919050565b600060208201905081810360008301526147e0816142da565b9050919050565b60006020820190508181036000830152614800816142fd565b9050919050565b6000602082019050818103600083015261482081614320565b9050919050565b6000602082019050818103600083015261484081614343565b9050919050565b6000602082019050818103600083015261486081614366565b9050919050565b6000602082019050818103600083015261488081614389565b9050919050565b600060208201905081810360008301526148a181846143ac565b905092915050565b600060208201905081810360008301526148c381846144a6565b905092915050565b60006020820190506148e0600083018461454c565b92915050565b60006148f0614901565b90506148fc8282614c03565b919050565b6000604051905090565b600067ffffffffffffffff82111561492657614925614d39565b5b602082029050602081019050919050565b600067ffffffffffffffff82111561495257614951614d39565b5b61495b82614d8b565b9050602081019050919050565b600067ffffffffffffffff82111561498357614982614d39565b5b61498c82614d8b565b9050602081019050919050565b6000819050602082019050919050565b6000819050602082019050919050565b600081519050919050565b600081519050919050565b600081519050919050565b600081519050919050565b6000602082019050919050565b6000602082019050919050565b600082825260208201905092915050565b600082825260208201905092915050565b600082825260208201905092915050565b600082825260208201905092915050565b600082825260208201905092915050565b600082825260208201905092915050565b600081905092915050565b6000614a7b82614b85565b9150614a8683614b85565b9250827fffffffffffffffffffffffffffffffffffffffffffffffffffffffffffffffff03821115614abb57614aba614c7d565b5b828201905092915050565b6000614ad182614b85565b9150614adc83614b85565b925082821015614aef57614aee614c7d565b5b828203905092915050565b6000614b0582614b44565b9050919050565b60008115159050919050565b60007fffffffff0000000000000000000000000000000000000000000000000000000082169050919050565b600073ffffffffffffffffffffffffffffffffffffffff82169050919050565b600074ffffffffffffffffffffffffffffffffffffffffff82169050919050565b6000819050919050565b82818337600083830152505050565b60005b83811015614bbc578082015181840152602081019050614ba1565b83811115614bcb576000848401525b50505050565b60006002820490506001821680614be957607f821691505b60208210811415614bfd57614bfc614cdb565b5b50919050565b614c0c82614d8b565b810181811067ffffffffffffffff82111715614c2b57614c2a614d39565b5b80604052505050565b6000614c3f82614b85565b91507fffffffffffffffffffffffffffffffffffffffffffffffffffffffffffffffff821415614c7257614c71614c7d565b5b600182019050919050565b7f4e487b7100000000000000000000000000000000000000000000000000000000600052601160045260246000fd5b7f4e487b7100000000000000000000000000000000000000000000000000000000600052601260045260246000fd5b7f4e487b7100000000000000000000000000000000000000000000000000000000600052602260045260246000fd5b7f4e487b7100000000000000000000000000000000000000000000000000000000600052603260045260246000fd5b7f4e487b7100000000000000000000000000000000000000000000000000000000600052604160045260246000fd5b600080fd5b600080fd5b600080fd5b600080fd5b600080fd5b600080fd5b600080fd5b6000601f19601f8301169050919050565b7f4552433732313a2063616c6c6572206973206e6f7420746f6b656e206f776e6560008201527f72206f7220617070726f76656400000000000000000000000000000000000000602082015250565b7f4552433732313a207472616e7366657220746f206e6f6e20455243373231526560008201527f63656976657220696d706c656d656e7465720000000000000000000000000000602082015250565b7f4f776e61626c653a206e6577206f776e657220697320746865207a65726f206160008201527f6464726573730000000000000000000000000000000000000000000000000000602082015250565b7f4552433732313a207472616e736665722066726f6d20696e636f72726563742060008201527f6f776e6572000000000000000000000000000000000000000000000000000000602082015250565b7f4552433732313a20746f6b656e20616c7265616479206d696e74656400000000600082015250565b7f4552433732313a207472616e7366657220746f20746865207a65726f2061646460008201527f7265737300000000000000000000000000000000000000000000000000000000602082015250565b7f4552433732313a20617070726f766520746f2063616c6c657200000000000000600082015250565b7f4552433732313a2061646472657373207a65726f206973206e6f74206120766160008201527f6c6964206f776e65720000000000000000000000000000000000000000000000602082015250565b7f4552433732314d657461646174613a20507269636520717565727920666f722060008201527f6e6f6e6578697374656e7420746f6b656e000000000000000000000000000000602082015250565b7f4552433732313a206d696e7420746f20746865207a65726f2061646472657373600082015250565b7f4f776e61626c653a2063616c6c6572206973206e6f7420746865206f776e6572600082015250565b7f4552433732314d657461646174613a20507269636520736574206f66206e6f6e60008201527f6578697374656e7420746f6b656e000000000000000000000000000000000000602082015250565b7f4552433732313a20696e76616c696420746f6b656e2049440000000000000000600082015250565b7f4552433732313a20617070726f76616c20746f2063757272656e74206f776e6560008201527f7200000000000000000000000000000000000000000000000000000000000000602082015250565b7f4552433732313a20617070726f76652063616c6c6572206973206e6f7420746f60008201527f6b656e206f776e6572206f7220617070726f76656420666f7220616c6c000000602082015250565b7f4552433732314d657461646174613a2053616c6520736574206f66206e6f6e6560008201527f78697374656e7420746f6b656e00000000000000000000000000000000000000602082015250565b7f5265656e7472616e637947756172643a207265656e7472616e742063616c6c00600082015250565b61520081614b64565b811461520b57600080fd5b50565b61521781614b0c565b811461522257600080fd5b50565b61522e81614b18565b811461523957600080fd5b50565b61524581614b85565b811461525057600080fd5b5056fea26474726f6e58221220de9a4e56874d7b9c8519be199ac7a86e1982f6e7293a8bc19d35c44af86d26ec64736f6c63430008060033",
  "source": "// SPDX-License-Identifier: MIT\npragma solidity >=0.8.4;\npragma experimental ABIEncoderV2;\n\nimport '@openzeppelin/contracts/token/ERC721/ERC721.sol';\nimport '@openzeppelin/contracts/access/Ownable.sol';\nimport '@openzeppelin/contracts/security/ReentrancyGuard.sol';\nimport '@openzeppelin/contracts/utils/Counters.sol';\n\ncontract Coopart is ERC721, Ownable, ReentrancyGuard {\n    using Counters for Counters.Counter;\n    Counters.Counter private _tokenIds;\n    mapping(uint256 => TokenMeta) private _tokenMeta;\n    mapping(uint256 => address) private _creators;\n\n    string baseURI;\n\n    Counters.Counter layerCount;\n    mapping(uint256 => Layer) private layers;\n    struct Layer {\n        string imageUri;\n        address author;\n        uint256 upVotes;\n        uint256 downVotes;\n    }\n\n    struct TokenMeta {\n        uint256 id;\n        uint256 price;\n        string name;\n        string uri;\n        bool isOnSale;\n        uint256[] layerIds;\n    }\n\n    constructor() ERC721('Coop.art', 'COOPART') {}\n\n    function _baseURI() internal view virtual override returns (string memory) {\n        return baseURI;\n    }\n\n    function setBaseURI(string memory _newBaseURI) public virtual onlyOwner {\n        baseURI = _newBaseURI;\n    }\n\n    function getAllOnSale() public view virtual returns (TokenMeta[] memory) {\n        TokenMeta[] memory tokensOnSale = new TokenMeta[](_tokenIds.current());\n        uint256 counter = 0;\n        for (uint256 i = 1; i < _tokenIds.current() + 1; i++) {\n            if (_tokenMeta[i].isOnSale == true) {\n                tokensOnSale[counter] = _tokenMeta[i];\n                counter++;\n            }\n        }\n        return tokensOnSale;\n    }\n\n    function setTokenSale(\n        uint256 _tokenId,\n        bool _isOnSale,\n        uint256 _price\n    ) public {\n        require(_exists(_tokenId), 'ERC721Metadata: Sale set of nonexistent token');\n        require(_price > 0);\n        require(ownerOf(_tokenId) == _msgSender());\n        _tokenMeta[_tokenId].isOnSale = _isOnSale;\n        setTokenPrice(_tokenId, _price);\n    }\n\n    function setTokenPrice(uint256 _tokenId, uint256 _price) public {\n        require(_exists(_tokenId), 'ERC721Metadata: Price set of nonexistent token');\n        require(ownerOf(_tokenId) == _msgSender());\n        _tokenMeta[_tokenId].price = _price;\n    }\n\n    function tokenPrice(uint256 tokenId) public view virtual returns (uint256) {\n        require(_exists(tokenId), 'ERC721Metadata: Price query for nonexistent token');\n        return _tokenMeta[tokenId].price;\n    }\n\n    function setTokenMeta(uint256 _tokenId, TokenMeta memory _meta) public {\n        require(_exists(_tokenId));\n        require(ownerOf(_tokenId) == _msgSender());\n        _tokenMeta[_tokenId] = _meta;\n    }\n\n    function updateTokenMetaUri(uint256 _tokenId, string memory _uri) public {\n        require(_exists(_tokenId));\n        require(ownerOf(_tokenId) == _msgSender());\n        _tokenMeta[_tokenId].uri = _uri;\n    }\n\n    function tokenMeta(uint256 _tokenId) public view returns (TokenMeta memory) {\n        require(_exists(_tokenId));\n        return _tokenMeta[_tokenId];\n    }\n\n    function purchaseToken(uint256 _tokenId) public payable nonReentrant {\n        require(msg.sender != address(0) && msg.sender != ownerOf(_tokenId));\n        require(msg.value >= _tokenMeta[_tokenId].price);\n        address tokenSeller = ownerOf(_tokenId);\n        payable(tokenSeller).transfer(msg.value);\n        setApprovalForAll(tokenSeller, true);\n        _transfer(tokenSeller, msg.sender, _tokenId);\n        _tokenMeta[_tokenId].isOnSale = false;\n    }\n\n    function upVote(uint256 layerId) public {\n        layers[layerId].upVotes += 1;\n    }\n\n    function downVote(uint256 layerId) public {\n        layers[layerId].downVotes += 1;\n    }\n\n    function getLayer(uint256 layerId) public view returns (Layer memory) {\n        return (layers[layerId]);\n    }\n\n    function addLayer(\n        uint256 _canvasId,\n        string memory _imageUri,\n        address _author\n    ) public returns (uint256) {\n        layerCount.increment();\n        uint256 newLayerId = layerCount.current();\n        layers[newLayerId] = Layer(_imageUri, _author, 0, 0);\n        // _tokenMeta[_canvasId].push(newLayerId);\n        TokenMeta storage meta = _tokenMeta[_canvasId];\n        meta.layerIds.push(newLayerId);\n        setTokenMeta(_canvasId, meta);\n        return newLayerId;\n    }\n\n    function mintCanvas(\n        address _owner,\n        string memory _tokenURI,\n        string memory _name,\n        uint256 _price,\n        bool _isOnSale\n    ) public returns (uint256) {\n        require(_price > 0);\n        _tokenIds.increment();\n        uint256 newItemId = _tokenIds.current();\n        _mint(_owner, newItemId);\n        _creators[newItemId] = msg.sender;\n        uint256[] memory layersIds;\n        TokenMeta memory meta = TokenMeta(newItemId, _price, _name, _tokenURI, _isOnSale, layersIds);\n        setTokenMeta(newItemId, meta);\n        return newItemId;\n    }\n\n    function getTokensOwnedByMe() public view returns (uint256[] memory) {\n        uint256 numberOfExistingTokens = _tokenIds.current();\n        uint256 numberOfTokensOwned = balanceOf(msg.sender);\n        uint256[] memory ownedTokenIds = new uint256[](numberOfTokensOwned);\n\n        uint256 currentIndex = 0;\n        for (uint256 i = 0; i < numberOfExistingTokens; i++) {\n            uint256 tokenId = i + 1;\n            if (ownerOf(tokenId) != msg.sender) continue;\n            ownedTokenIds[currentIndex] = tokenId;\n            currentIndex += 1;\n        }\n\n        return ownedTokenIds;\n    }\n\n    function getTokenCreatorById(uint256 tokenId) public view returns (address) {\n        return _creators[tokenId];\n    }\n\n    function getTokensCreatedByMe() public view returns (uint256[] memory) {\n        uint256 numberOfExistingTokens = _tokenIds.current();\n        uint256 numberOfTokensCreated = 0;\n\n        for (uint256 i = 0; i < numberOfExistingTokens; i++) {\n            uint256 tokenId = i + 1;\n            if (_creators[tokenId] != msg.sender) continue;\n            numberOfTokensCreated += 1;\n        }\n\n        uint256[] memory createdTokenIds = new uint256[](numberOfTokensCreated);\n        uint256 currentIndex = 0;\n        for (uint256 i = 0; i < numberOfExistingTokens; i++) {\n            uint256 tokenId = i + 1;\n            if (_creators[tokenId] != msg.sender) continue;\n            createdTokenIds[currentIndex] = tokenId;\n            currentIndex += 1;\n        }\n\n        return createdTokenIds;\n    }\n}\n",
  "sourcePath": "/Users/lol/apps/fun/coop.art/src/contracts/contracts/CoopartMarketplace.sol",
  "compiler": {
    "name": "solc",
    "version": "0.8.6+commit.0e36fba0.mod.Emscripten.clang"
  },
  "schemaVersion": "2.0.1",
  "updatedAt": "2022-11-09T12:59:29.058Z"
}