{
  "contractName": "Coopart",
  "abi": [
    {
      "inputs": [],
      "stateMutability": "nonpayable",
      "type": "constructor"
    },
    {
      "anonymous": false,
      "inputs": [
        {
          "indexed": true,
          "internalType": "address",
          "name": "owner",
          "type": "address"
        },
        {
          "indexed": true,
          "internalType": "address",
          "name": "approved",
          "type": "address"
        },
        {
          "indexed": true,
          "internalType": "uint256",
          "name": "tokenId",
          "type": "uint256"
        }
      ],
      "name": "Approval",
      "type": "event",
      "stateMutability": "nonpayable"
    },
    {
      "anonymous": false,
      "inputs": [
        {
          "indexed": true,
          "internalType": "address",
          "name": "owner",
          "type": "address"
        },
        {
          "indexed": true,
          "internalType": "address",
          "name": "operator",
          "type": "address"
        },
        {
          "indexed": false,
          "internalType": "bool",
          "name": "approved",
          "type": "bool"
        }
      ],
      "name": "ApprovalForAll",
      "type": "event",
      "stateMutability": "nonpayable"
    },
    {
      "anonymous": false,
      "inputs": [
        {
          "indexed": true,
          "internalType": "address",
          "name": "previousOwner",
          "type": "address"
        },
        {
          "indexed": true,
          "internalType": "address",
          "name": "newOwner",
          "type": "address"
        }
      ],
      "name": "OwnershipTransferred",
      "type": "event",
      "stateMutability": "nonpayable"
    },
    {
      "anonymous": false,
      "inputs": [
        {
          "indexed": true,
          "internalType": "address",
          "name": "from",
          "type": "address"
        },
        {
          "indexed": true,
          "internalType": "address",
          "name": "to",
          "type": "address"
        },
        {
          "indexed": true,
          "internalType": "uint256",
          "name": "tokenId",
          "type": "uint256"
        }
      ],
      "name": "Transfer",
      "type": "event",
      "stateMutability": "nonpayable"
    },
    {
      "inputs": [
        {
          "internalType": "uint256",
          "name": "_canvasId",
          "type": "uint256"
        },
        {
          "internalType": "string",
          "name": "_imageUri",
          "type": "string"
        },
        {
          "internalType": "address",
          "name": "_author",
          "type": "address"
        },
        {
          "internalType": "uint256",
          "name": "_x",
          "type": "uint256"
        },
        {
          "internalType": "uint256",
          "name": "_y",
          "type": "uint256"
        },
        {
          "internalType": "uint256",
          "name": "_r",
          "type": "uint256"
        },
        {
          "internalType": "uint256",
          "name": "_width",
          "type": "uint256"
        },
        {
          "internalType": "uint256",
          "name": "_height",
          "type": "uint256"
        }
      ],
      "name": "addLayer",
      "outputs": [
        {
          "internalType": "uint256",
          "name": "",
          "type": "uint256"
        }
      ],
      "stateMutability": "nonpayable",
      "type": "function"
    },
    {
      "inputs": [
        {
          "internalType": "address",
          "name": "to",
          "type": "address"
        },
        {
          "internalType": "uint256",
          "name": "tokenId",
          "type": "uint256"
        }
      ],
      "name": "approve",
      "outputs": [],
      "stateMutability": "nonpayable",
      "type": "function"
    },
    {
      "inputs": [
        {
          "internalType": "address",
          "name": "owner",
          "type": "address"
        }
      ],
      "name": "balanceOf",
      "outputs": [
        {
          "internalType": "uint256",
          "name": "",
          "type": "uint256"
        }
      ],
      "stateMutability": "view",
      "type": "function"
    },
    {
      "inputs": [
        {
          "internalType": "uint256",
          "name": "layerId",
          "type": "uint256"
        }
      ],
      "name": "downVote",
      "outputs": [],
      "stateMutability": "nonpayable",
      "type": "function"
    },
    {
      "inputs": [
        {
          "internalType": "uint256",
          "name": "tokenId",
          "type": "uint256"
        }
      ],
      "name": "getApproved",
      "outputs": [
        {
          "internalType": "address",
          "name": "",
          "type": "address"
        }
      ],
      "stateMutability": "view",
      "type": "function"
    },
    {
      "inputs": [
        {
          "internalType": "uint256",
          "name": "layerId",
          "type": "uint256"
        }
      ],
      "name": "getLayer",
      "outputs": [
        {
          "components": [
            {
              "internalType": "string",
              "name": "imageUri",
              "type": "string"
            },
            {
              "internalType": "address",
              "name": "author",
              "type": "address"
            },
            {
              "internalType": "uint256",
              "name": "x",
              "type": "uint256"
            },
            {
              "internalType": "uint256",
              "name": "y",
              "type": "uint256"
            },
            {
              "internalType": "uint256",
              "name": "r",
              "type": "uint256"
            },
            {
              "internalType": "uint256",
              "name": "width",
              "type": "uint256"
            },
            {
              "internalType": "uint256",
              "name": "height",
              "type": "uint256"
            },
            {
              "internalType": "uint256",
              "name": "upVotes",
              "type": "uint256"
            },
            {
              "internalType": "uint256",
              "name": "downVotes",
              "type": "uint256"
            }
          ],
          "internalType": "struct Coopart.Layer",
          "name": "",
          "type": "tuple"
        }
      ],
      "stateMutability": "view",
      "type": "function"
    },
    {
      "inputs": [
        {
          "internalType": "address",
          "name": "owner",
          "type": "address"
        },
        {
          "internalType": "address",
          "name": "operator",
          "type": "address"
        }
      ],
      "name": "isApprovedForAll",
      "outputs": [
        {
          "internalType": "bool",
          "name": "",
          "type": "bool"
        }
      ],
      "stateMutability": "view",
      "type": "function"
    },
    {
      "inputs": [
        {
          "internalType": "address",
          "name": "_owner",
          "type": "address"
        },
        {
          "internalType": "string",
          "name": "_tokenURI",
          "type": "string"
        },
        {
          "internalType": "string",
          "name": "_name",
          "type": "string"
        },
        {
          "internalType": "uint256",
          "name": "_price",
          "type": "uint256"
        },
        {
          "internalType": "bool",
          "name": "_isOnSale",
          "type": "bool"
        }
      ],
      "name": "mintCanvas",
      "outputs": [
        {
          "internalType": "uint256",
          "name": "",
          "type": "uint256"
        }
      ],
      "stateMutability": "nonpayable",
      "type": "function"
    },
    {
      "inputs": [],
      "name": "name",
      "outputs": [
        {
          "internalType": "string",
          "name": "",
          "type": "string"
        }
      ],
      "stateMutability": "view",
      "type": "function"
    },
    {
      "inputs": [],
      "name": "owner",
      "outputs": [
        {
          "internalType": "address",
          "name": "",
          "type": "address"
        }
      ],
      "stateMutability": "view",
      "type": "function"
    },
    {
      "inputs": [
        {
          "internalType": "uint256",
          "name": "tokenId",
          "type": "uint256"
        }
      ],
      "name": "ownerOf",
      "outputs": [
        {
          "internalType": "address",
          "name": "",
          "type": "address"
        }
      ],
      "stateMutability": "view",
      "type": "function"
    },
    {
      "inputs": [],
      "name": "renounceOwnership",
      "outputs": [],
      "stateMutability": "nonpayable",
      "type": "function"
    },
    {
      "inputs": [
        {
          "internalType": "address",
          "name": "from",
          "type": "address"
        },
        {
          "internalType": "address",
          "name": "to",
          "type": "address"
        },
        {
          "internalType": "uint256",
          "name": "tokenId",
          "type": "uint256"
        }
      ],
      "name": "safeTransferFrom",
      "outputs": [],
      "stateMutability": "nonpayable",
      "type": "function"
    },
    {
      "inputs": [
        {
          "internalType": "address",
          "name": "from",
          "type": "address"
        },
        {
          "internalType": "address",
          "name": "to",
          "type": "address"
        },
        {
          "internalType": "uint256",
          "name": "tokenId",
          "type": "uint256"
        },
        {
          "internalType": "bytes",
          "name": "data",
          "type": "bytes"
        }
      ],
      "name": "safeTransferFrom",
      "outputs": [],
      "stateMutability": "nonpayable",
      "type": "function"
    },
    {
      "inputs": [
        {
          "internalType": "address",
          "name": "operator",
          "type": "address"
        },
        {
          "internalType": "bool",
          "name": "approved",
          "type": "bool"
        }
      ],
      "name": "setApprovalForAll",
      "outputs": [],
      "stateMutability": "nonpayable",
      "type": "function"
    },
    {
      "inputs": [
        {
          "internalType": "string",
          "name": "_newBaseURI",
          "type": "string"
        }
      ],
      "name": "setBaseURI",
      "outputs": [],
      "stateMutability": "nonpayable",
      "type": "function"
    },
    {
      "inputs": [
        {
          "internalType": "uint256",
          "name": "_tokenId",
          "type": "uint256"
        },
        {
          "components": [
            {
              "internalType": "uint256",
              "name": "id",
              "type": "uint256"
            },
            {
              "internalType": "uint256",
              "name": "price",
              "type": "uint256"
            },
            {
              "internalType": "string",
              "name": "name",
              "type": "string"
            },
            {
              "internalType": "string",
              "name": "uri",
              "type": "string"
            },
            {
              "internalType": "bool",
              "name": "isOnSale",
              "type": "bool"
            },
            {
              "internalType": "uint256[]",
              "name": "layerIds",
              "type": "uint256[]"
            }
          ],
          "internalType": "struct Coopart.TokenMeta",
          "name": "_meta",
          "type": "tuple"
        }
      ],
      "name": "setTokenMeta",
      "outputs": [],
      "stateMutability": "nonpayable",
      "type": "function"
    },
    {
      "inputs": [
        {
          "internalType": "bytes4",
          "name": "interfaceId",
          "type": "bytes4"
        }
      ],
      "name": "supportsInterface",
      "outputs": [
        {
          "internalType": "bool",
          "name": "",
          "type": "bool"
        }
      ],
      "stateMutability": "view",
      "type": "function"
    },
    {
      "inputs": [],
      "name": "symbol",
      "outputs": [
        {
          "internalType": "string",
          "name": "",
          "type": "string"
        }
      ],
      "stateMutability": "view",
      "type": "function"
    },
    {
      "inputs": [
        {
          "internalType": "uint256",
          "name": "_tokenId",
          "type": "uint256"
        }
      ],
      "name": "tokenMeta",
      "outputs": [
        {
          "components": [
            {
              "internalType": "uint256",
              "name": "id",
              "type": "uint256"
            },
            {
              "internalType": "uint256",
              "name": "price",
              "type": "uint256"
            },
            {
              "internalType": "string",
              "name": "name",
              "type": "string"
            },
            {
              "internalType": "string",
              "name": "uri",
              "type": "string"
            },
            {
              "internalType": "bool",
              "name": "isOnSale",
              "type": "bool"
            },
            {
              "internalType": "uint256[]",
              "name": "layerIds",
              "type": "uint256[]"
            }
          ],
          "internalType": "struct Coopart.TokenMeta",
          "name": "",
          "type": "tuple"
        }
      ],
      "stateMutability": "view",
      "type": "function"
    },
    {
      "inputs": [
        {
          "internalType": "uint256",
          "name": "tokenId",
          "type": "uint256"
        }
      ],
      "name": "tokenURI",
      "outputs": [
        {
          "internalType": "string",
          "name": "",
          "type": "string"
        }
      ],
      "stateMutability": "view",
      "type": "function"
    },
    {
      "inputs": [
        {
          "internalType": "address",
          "name": "from",
          "type": "address"
        },
        {
          "internalType": "address",
          "name": "to",
          "type": "address"
        },
        {
          "internalType": "uint256",
          "name": "tokenId",
          "type": "uint256"
        }
      ],
      "name": "transferFrom",
      "outputs": [],
      "stateMutability": "nonpayable",
      "type": "function"
    },
    {
      "inputs": [
        {
          "internalType": "address",
          "name": "newOwner",
          "type": "address"
        }
      ],
      "name": "transferOwnership",
      "outputs": [],
      "stateMutability": "nonpayable",
      "type": "function"
    },
    {
      "inputs": [
        {
          "internalType": "uint256",
          "name": "layerId",
          "type": "uint256"
        }
      ],
      "name": "upVote",
      "outputs": [],
      "stateMutability": "nonpayable",
      "type": "function"
    },
    {
      "inputs": [
        {
          "internalType": "uint256",
          "name": "_tokenId",
          "type": "uint256"
        },
        {
          "internalType": "string",
          "name": "_uri",
          "type": "string"
        }
      ],
      "name": "updateTokenMetaUri",
      "outputs": [],
      "stateMutability": "nonpayable",
      "type": "function"
    }
  ],
  "bytecode": "0x60806040523480156200001157600080fd5b50d380156200001f57600080fd5b50d280156200002d57600080fd5b506040518060400160405280600881526020017f436f6f702e6172740000000000000000000000000000000000000000000000008152506040518060400160405280600781526020017f434f4f50415254000000000000000000000000000000000000000000000000008152508160009080519060200190620000b2929190620001ca565b508060019080519060200190620000cb929190620001ca565b505050620000ee620000e2620000fc60201b60201c565b6200010460201b60201c565b6001600781905550620002df565b600033905090565b6000600660009054906101000a900473ffffffffffffffffffffffffffffffffffffffff16905081600660006101000a81548173ffffffffffffffffffffffffffffffffffffffff021916908373ffffffffffffffffffffffffffffffffffffffff1602179055508173ffffffffffffffffffffffffffffffffffffffff168173ffffffffffffffffffffffffffffffffffffffff167f8be0079c531659141344cd1fd0a4f28419497f9722a3daafe3b4186f6b6457e060405160405180910390a35050565b828054620001d8906200027a565b90600052602060002090601f016020900481019282620001fc576000855562000248565b82601f106200021757805160ff191683800117855562000248565b8280016001018555821562000248579182015b82811115620002475782518255916020019190600101906200022a565b5b5090506200025791906200025b565b5090565b5b80821115620002765760008160009055506001016200025c565b5090565b600060028204905060018216806200029357607f821691505b60208210811415620002aa57620002a9620002b0565b5b50919050565b7f4e487b7100000000000000000000000000000000000000000000000000000000600052602260045260246000fd5b613ee080620002ef6000396000f3fe608060405234801561001057600080fd5b50d3801561001d57600080fd5b50d2801561002a57600080fd5b506004361061018d5760003560e01c8063715018a6116100f8578063b88d4fde116100b1578063e985e9c51161008b578063e985e9c514610472578063ec859db5146104a2578063f2fde38b146104be578063f781e3ae146104da5761018d565b8063b88d4fde1461040a578063c87b56dd14610426578063e5d7f2a9146104565761018d565b8063715018a61461035c5780638da5cb5b1461036657806395d89b4114610384578063a1a0309a146103a2578063a22cb465146103be578063ae71c43c146103da5761018d565b806323b872dd1161014a57806323b872dd1461027857806342842e0e1461029457806347233c91146102b057806355f804b3146102e05780636352211e146102fc57806370a082311461032c5761018d565b806301ffc9a71461019257806306fdde03146101c2578063081812fc146101e0578063095ea7b3146102105780630ae7a3101461022c5780631ae9392d1461025c575b600080fd5b6101ac60048036038101906101a79190612d25565b61050a565b6040516101b991906134d9565b60405180910390f35b6101ca6105ec565b6040516101d791906134f4565b60405180910390f35b6101fa60048036038101906101f59190612dc8565b61067e565b6040516102079190613472565b60405180910390f35b61022a60048036038101906102259190612ce5565b6106c4565b005b61024660048036038101906102419190612dc8565b6107dc565b60405161025391906136d8565b60405180910390f35b61027660048036038101906102719190612dc8565b6109c6565b005b610292600480360381019061028d9190612b1c565b6109f7565b005b6102ae60048036038101906102a99190612b1c565b610a57565b005b6102ca60048036038101906102c59190612e51565b610a77565b6040516102d791906136fa565b60405180910390f35b6102fa60048036038101906102f59190612d7f565b610dbd565b005b61031660048036038101906103119190612dc8565b610ddf565b6040516103239190613472565b60405180910390f35b61034660048036038101906103419190612aaf565b610e66565b60405161035391906136fa565b60405180910390f35b610364610f1e565b005b61036e610f32565b60405161037b9190613472565b60405180910390f35b61038c610f5c565b60405161039991906134f4565b60405180910390f35b6103bc60048036038101906103b79190612f23565b610fee565b005b6103d860048036038101906103d39190612bf2565b6110ed565b005b6103f460048036038101906103ef9190612c32565b611103565b60405161040191906136fa565b60405180910390f35b610424600480360381019061041f9190612b6f565b6111d3565b005b610440600480360381019061043b9190612dc8565b611235565b60405161044d91906134f4565b60405180910390f35b610470600480360381019061046b9190612df5565b61129d565b005b61048c60048036038101906104879190612adc565b611325565b60405161049991906134d9565b60405180910390f35b6104bc60048036038101906104b79190612dc8565b6113b9565b005b6104d860048036038101906104d39190612aaf565b6113ea565b005b6104f460048036038101906104ef9190612dc8565b61146e565b60405161050191906136b6565b60405180910390f35b60007f80ac58cd000000000000000000000000000000000000000000000000000000007bffffffffffffffffffffffffffffffffffffffffffffffffffffffff1916827bffffffffffffffffffffffffffffffffffffffffffffffffffffffff191614806105d557507f5b5e139f000000000000000000000000000000000000000000000000000000007bffffffffffffffffffffffffffffffffffffffffffffffffffffffff1916827bffffffffffffffffffffffffffffffffffffffffffffffffffffffff1916145b806105e557506105e4826115ca565b5b9050919050565b6060600080546105fb906139b6565b80601f0160208091040260200160405190810160405280929190818152602001828054610627906139b6565b80156106745780601f1061064957610100808354040283529160200191610674565b820191906000526020600020905b81548152906001019060200180831161065757829003601f168201915b5050505050905090565b600061068982611634565b6004600083815260200190815260200160002060009054906101000a900473ffffffffffffffffffffffffffffffffffffffff169050919050565b60006106cf82610ddf565b90508073ffffffffffffffffffffffffffffffffffffffff168373ffffffffffffffffffffffffffffffffffffffff161415610740576040517f08c379a000000000000000000000000000000000000000000000000000000000815260040161073790613676565b60405180910390fd5b8073ffffffffffffffffffffffffffffffffffffffff1661075f61167f565b73ffffffffffffffffffffffffffffffffffffffff16148061078e575061078d8161078861167f565b611325565b5b6107cd576040517f08c379a00000000000000000000000000000000000000000000000000000000081526004016107c490613696565b60405180910390fd5b6107d78383611687565b505050565b6107e461263f565b6107ed82611740565b6107f657600080fd5b600960008381526020019081526020016000206040518060c00160405290816000820154815260200160018201548152602001600282018054610838906139b6565b80601f0160208091040260200160405190810160405280929190818152602001828054610864906139b6565b80156108b15780601f10610886576101008083540402835291602001916108b1565b820191906000526020600020905b81548152906001019060200180831161089457829003601f168201915b505050505081526020016003820180546108ca906139b6565b80601f01602080910402602001604051908101604052809291908181526020018280546108f6906139b6565b80156109435780601f1061091857610100808354040283529160200191610943565b820191906000526020600020905b81548152906001019060200180831161092657829003601f168201915b505050505081526020016004820160009054906101000a900460ff16151515158152602001600582018054806020026020016040519081016040528092919081815260200182805480156109b657602002820191906000526020600020905b8154815260200190600101908083116109a2575b5050505050815250509050919050565b6001600d600083815260200190815260200160002060080160008282546109ed9190613855565b9250508190555050565b610a08610a0261167f565b82611781565b610a47576040517f08c379a0000000000000000000000000000000000000000000000000000000008152600401610a3e90613516565b60405180910390fd5b610a52838383611816565b505050565b610a72838383604051806020016040528060008152506111d3565b505050565b6000610a83600c611b10565b6000610a8f600c611b26565b90506040518061012001604052808a81526020018973ffffffffffffffffffffffffffffffffffffffff168152602001888152602001878152602001868152602001858152602001848152602001600081526020016000815250600d60008381526020019081526020016000206000820151816000019080519060200190610b18929190612677565b5060208201518160010160006101000a81548173ffffffffffffffffffffffffffffffffffffffff021916908373ffffffffffffffffffffffffffffffffffffffff16021790555060408201518160020155606082015181600301556080820151816004015560a0820151816005015560c0820151816006015560e0820151816007015561010082015181600801559050506000600960008c8152602001908152602001600020905080600501829080600181540180825580915050600190039060005260206000200160009091909190915055610dac8b826040518060c00160405290816000820154815260200160018201548152602001600282018054610c20906139b6565b80601f0160208091040260200160405190810160405280929190818152602001828054610c4c906139b6565b8015610c995780601f10610c6e57610100808354040283529160200191610c99565b820191906000526020600020905b815481529060010190602001808311610c7c57829003601f168201915b50505050508152602001600382018054610cb2906139b6565b80601f0160208091040260200160405190810160405280929190818152602001828054610cde906139b6565b8015610d2b5780601f10610d0057610100808354040283529160200191610d2b565b820191906000526020600020905b815481529060010190602001808311610d0e57829003601f168201915b505050505081526020016004820160009054906101000a900460ff1615151515815260200160058201805480602002602001604051908101604052809291908181526020018280548015610d9e57602002820191906000526020600020905b815481526020019060010190808311610d8a575b505050505081525050610fee565b819250505098975050505050505050565b610dc5611b34565b80600b9080519060200190610ddb929190612677565b5050565b600080610deb83611bb2565b9050600073ffffffffffffffffffffffffffffffffffffffff168173ffffffffffffffffffffffffffffffffffffffff161415610e5d576040517f08c379a0000000000000000000000000000000000000000000000000000000008152600401610e5490613656565b60405180910390fd5b80915050919050565b60008073ffffffffffffffffffffffffffffffffffffffff168273ffffffffffffffffffffffffffffffffffffffff161415610ed7576040517f08c379a0000000000000000000000000000000000000000000000000000000008152600401610ece906135f6565b60405180910390fd5b600360008373ffffffffffffffffffffffffffffffffffffffff1673ffffffffffffffffffffffffffffffffffffffff168152602001908152602001600020549050919050565b610f26611b34565b610f306000611bef565b565b6000600660009054906101000a900473ffffffffffffffffffffffffffffffffffffffff16905090565b606060018054610f6b906139b6565b80601f0160208091040260200160405190810160405280929190818152602001828054610f97906139b6565b8015610fe45780601f10610fb957610100808354040283529160200191610fe4565b820191906000526020600020905b815481529060010190602001808311610fc757829003601f168201915b5050505050905090565b610ff782611740565b61100057600080fd5b61100861167f565b73ffffffffffffffffffffffffffffffffffffffff1661102783610ddf565b73ffffffffffffffffffffffffffffffffffffffff161461104757600080fd5b80600960008481526020019081526020016000206000820151816000015560208201518160010155604082015181600201908051906020019061108b929190612677565b5060608201518160030190805190602001906110a8929190612677565b5060808201518160040160006101000a81548160ff02191690831515021790555060a08201518160050190805190602001906110e59291906126fd565b509050505050565b6110ff6110f861167f565b8383611cb5565b5050565b600080831161111157600080fd5b61111b6008611b10565b60006111276008611b26565b90506111338782611e22565b33600a600083815260200190815260200160002060006101000a81548173ffffffffffffffffffffffffffffffffffffffff021916908373ffffffffffffffffffffffffffffffffffffffff160217905550606060006040518060c0016040528084815260200187815260200188815260200189815260200186151581526020018381525090506111c48382610fee565b82935050505095945050505050565b6111e46111de61167f565b83611781565b611223576040517f08c379a000000000000000000000000000000000000000000000000000000000815260040161121a90613516565b60405180910390fd5b61122f84848484612040565b50505050565b606061124082611634565b600061124a61209c565b9050600081511161126a5760405180602001604052806000815250611295565b806112748461212e565b60405160200161128592919061344e565b6040516020818303038152906040525b915050919050565b6112a682611740565b6112af57600080fd5b6112b761167f565b73ffffffffffffffffffffffffffffffffffffffff166112d683610ddf565b73ffffffffffffffffffffffffffffffffffffffff16146112f657600080fd5b80600960008481526020019081526020016000206003019080519060200190611320929190612677565b505050565b6000600560008473ffffffffffffffffffffffffffffffffffffffff1673ffffffffffffffffffffffffffffffffffffffff16815260200190815260200160002060008373ffffffffffffffffffffffffffffffffffffffff1673ffffffffffffffffffffffffffffffffffffffff16815260200190815260200160002060009054906101000a900460ff16905092915050565b6001600d600083815260200190815260200160002060070160008282546113e09190613855565b9250508190555050565b6113f2611b34565b600073ffffffffffffffffffffffffffffffffffffffff168173ffffffffffffffffffffffffffffffffffffffff161415611462576040517f08c379a000000000000000000000000000000000000000000000000000000000815260040161145990613556565b60405180910390fd5b61146b81611bef565b50565b61147661274a565b600d6000838152602001908152602001600020604051806101200160405290816000820180546114a5906139b6565b80601f01602080910402602001604051908101604052809291908181526020018280546114d1906139b6565b801561151e5780601f106114f35761010080835404028352916020019161151e565b820191906000526020600020905b81548152906001019060200180831161150157829003601f168201915b505050505081526020016001820160009054906101000a900473ffffffffffffffffffffffffffffffffffffffff1673ffffffffffffffffffffffffffffffffffffffff1673ffffffffffffffffffffffffffffffffffffffff1681526020016002820154815260200160038201548152602001600482015481526020016005820154815260200160068201548152602001600782015481526020016008820154815250509050919050565b60007f01ffc9a7000000000000000000000000000000000000000000000000000000007bffffffffffffffffffffffffffffffffffffffffffffffffffffffff1916827bffffffffffffffffffffffffffffffffffffffffffffffffffffffff1916149050919050565b61163d81611740565b61167c576040517f08c379a000000000000000000000000000000000000000000000000000000000815260040161167390613656565b60405180910390fd5b50565b600033905090565b816004600083815260200190815260200160002060006101000a81548173ffffffffffffffffffffffffffffffffffffffff021916908373ffffffffffffffffffffffffffffffffffffffff160217905550808273ffffffffffffffffffffffffffffffffffffffff166116fa83610ddf565b73ffffffffffffffffffffffffffffffffffffffff167f8c5be1e5ebec7d5bd14f71427d1e84f3dd0314c0f7b2291e5b200ac8c7c3b92560405160405180910390a45050565b60008073ffffffffffffffffffffffffffffffffffffffff1661176283611bb2565b73ffffffffffffffffffffffffffffffffffffffff1614159050919050565b60008061178d83610ddf565b90508073ffffffffffffffffffffffffffffffffffffffff168473ffffffffffffffffffffffffffffffffffffffff1614806117cf57506117ce8185611325565b5b8061180d57508373ffffffffffffffffffffffffffffffffffffffff166117f58461067e565b73ffffffffffffffffffffffffffffffffffffffff16145b91505092915050565b8273ffffffffffffffffffffffffffffffffffffffff1661183682610ddf565b73ffffffffffffffffffffffffffffffffffffffff161461188c576040517f08c379a000000000000000000000000000000000000000000000000000000000815260040161188390613576565b60405180910390fd5b600073ffffffffffffffffffffffffffffffffffffffff168273ffffffffffffffffffffffffffffffffffffffff1614156118fc576040517f08c379a00000000000000000000000000000000000000000000000000000000081526004016118f3906135b6565b60405180910390fd5b6119098383836001612206565b8273ffffffffffffffffffffffffffffffffffffffff1661192982610ddf565b73ffffffffffffffffffffffffffffffffffffffff161461197f576040517f08c379a000000000000000000000000000000000000000000000000000000000815260040161197690613576565b60405180910390fd5b6004600082815260200190815260200160002060006101000a81549073ffffffffffffffffffffffffffffffffffffffff02191690556001600360008573ffffffffffffffffffffffffffffffffffffffff1673ffffffffffffffffffffffffffffffffffffffff168152602001908152602001600020600082825403925050819055506001600360008473ffffffffffffffffffffffffffffffffffffffff1673ffffffffffffffffffffffffffffffffffffffff16815260200190815260200160002060008282540192505081905550816002600083815260200190815260200160002060006101000a81548173ffffffffffffffffffffffffffffffffffffffff021916908373ffffffffffffffffffffffffffffffffffffffff160217905550808273ffffffffffffffffffffffffffffffffffffffff168473ffffffffffffffffffffffffffffffffffffffff167fddf252ad1be2c89b69c2b068fc378daa952ba7f163c4a11628f55a4df523b3ef60405160405180910390a4611b0b838383600161232c565b505050565b6001816000016000828254019250508190555050565b600081600001549050919050565b611b3c61167f565b73ffffffffffffffffffffffffffffffffffffffff16611b5a610f32565b73ffffffffffffffffffffffffffffffffffffffff1614611bb0576040517f08c379a0000000000000000000000000000000000000000000000000000000008152600401611ba790613636565b60405180910390fd5b565b60006002600083815260200190815260200160002060009054906101000a900473ffffffffffffffffffffffffffffffffffffffff169050919050565b6000600660009054906101000a900473ffffffffffffffffffffffffffffffffffffffff16905081600660006101000a81548173ffffffffffffffffffffffffffffffffffffffff021916908373ffffffffffffffffffffffffffffffffffffffff1602179055508173ffffffffffffffffffffffffffffffffffffffff168173ffffffffffffffffffffffffffffffffffffffff167f8be0079c531659141344cd1fd0a4f28419497f9722a3daafe3b4186f6b6457e060405160405180910390a35050565b8173ffffffffffffffffffffffffffffffffffffffff168373ffffffffffffffffffffffffffffffffffffffff161415611d24576040517f08c379a0000000000000000000000000000000000000000000000000000000008152600401611d1b906135d6565b60405180910390fd5b80600560008573ffffffffffffffffffffffffffffffffffffffff1673ffffffffffffffffffffffffffffffffffffffff16815260200190815260200160002060008473ffffffffffffffffffffffffffffffffffffffff1673ffffffffffffffffffffffffffffffffffffffff16815260200190815260200160002060006101000a81548160ff0219169083151502179055508173ffffffffffffffffffffffffffffffffffffffff168373ffffffffffffffffffffffffffffffffffffffff167f17307eab39ab6107e8899845ad3d59bd9653f200f220920489ca2b5937696c3183604051611e1591906134d9565b60405180910390a3505050565b600073ffffffffffffffffffffffffffffffffffffffff168273ffffffffffffffffffffffffffffffffffffffff161415611e92576040517f08c379a0000000000000000000000000000000000000000000000000000000008152600401611e8990613616565b60405180910390fd5b611e9b81611740565b15611edb576040517f08c379a0000000000000000000000000000000000000000000000000000000008152600401611ed290613596565b60405180910390fd5b611ee9600083836001612206565b611ef281611740565b15611f32576040517f08c379a0000000000000000000000000000000000000000000000000000000008152600401611f2990613596565b60405180910390fd5b6001600360008473ffffffffffffffffffffffffffffffffffffffff1673ffffffffffffffffffffffffffffffffffffffff16815260200190815260200160002060008282540192505081905550816002600083815260200190815260200160002060006101000a81548173ffffffffffffffffffffffffffffffffffffffff021916908373ffffffffffffffffffffffffffffffffffffffff160217905550808273ffffffffffffffffffffffffffffffffffffffff16600073ffffffffffffffffffffffffffffffffffffffff167fddf252ad1be2c89b69c2b068fc378daa952ba7f163c4a11628f55a4df523b3ef60405160405180910390a461203c60008383600161232c565b5050565b61204b848484611816565b61205784848484612332565b612096576040517f08c379a000000000000000000000000000000000000000000000000000000000815260040161208d90613536565b60405180910390fd5b50505050565b6060600b80546120ab906139b6565b80601f01602080910402602001604051908101604052809291908181526020018280546120d7906139b6565b80156121245780601f106120f957610100808354040283529160200191612124565b820191906000526020600020905b81548152906001019060200180831161210757829003601f168201915b5050505050905090565b60606000600161213d846124c9565b01905060008167ffffffffffffffff81111561215c5761215b613aa6565b5b6040519080825280601f01601f19166020018201604052801561218e5781602001600182028036833780820191505090505b509050600082602001820190505b6001156121fb578080600190039150507f3031323334353637383961626364656600000000000000000000000000000000600a86061a8153600a85816121e5576121e4613a48565b5b04945060008514156121f6576121fb565b61219c565b819350505050919050565b600181111561232657600073ffffffffffffffffffffffffffffffffffffffff168473ffffffffffffffffffffffffffffffffffffffff161461229a5780600360008673ffffffffffffffffffffffffffffffffffffffff1673ffffffffffffffffffffffffffffffffffffffff168152602001908152602001600020600082825461229291906138ab565b925050819055505b600073ffffffffffffffffffffffffffffffffffffffff168373ffffffffffffffffffffffffffffffffffffffff16146123255780600360008573ffffffffffffffffffffffffffffffffffffffff1673ffffffffffffffffffffffffffffffffffffffff168152602001908152602001600020600082825461231d9190613855565b925050819055505b5b50505050565b50505050565b60006123538473ffffffffffffffffffffffffffffffffffffffff1661261c565b156124bc578373ffffffffffffffffffffffffffffffffffffffff1663150b7a0261237c61167f565b8786866040518563ffffffff1660e01b815260040161239e949392919061348d565b602060405180830381600087803b1580156123b857600080fd5b505af19250505080156123e957506040513d601f19601f820116820180604052508101906123e69190612d52565b60015b61246c573d8060008114612419576040519150601f19603f3d011682016040523d82523d6000602084013e61241e565b606091505b50600081511415612464576040517f08c379a000000000000000000000000000000000000000000000000000000000815260040161245b90613536565b60405180910390fd5b805181602001fd5b63150b7a0260e01b7bffffffffffffffffffffffffffffffffffffffffffffffffffffffff1916817bffffffffffffffffffffffffffffffffffffffffffffffffffffffff1916149150506124c1565b600190505b949350505050565b600080600090507a184f03e93ff9f4daa797ed6e38ed64bf6a1f0100000000000000008310612527577a184f03e93ff9f4daa797ed6e38ed64bf6a1f010000000000000000838161251d5761251c613a48565b5b0492506040810190505b6d04ee2d6d415b85acef81000000008310612564576d04ee2d6d415b85acef8100000000838161255a57612559613a48565b5b0492506020810190505b662386f26fc10000831061259357662386f26fc10000838161258957612588613a48565b5b0492506010810190505b6305f5e10083106125bc576305f5e10083816125b2576125b1613a48565b5b0492506008810190505b61271083106125e15761271083816125d7576125d6613a48565b5b0492506004810190505b6064831061260457606483816125fa576125f9613a48565b5b0492506002810190505b600a8310612613576001810190505b80915050919050565b6000808273ffffffffffffffffffffffffffffffffffffffff163b119050919050565b6040518060c0016040528060008152602001600081526020016060815260200160608152602001600015158152602001606081525090565b828054612683906139b6565b90600052602060002090601f0160209004810192826126a557600085556126ec565b82601f106126be57805160ff19168380011785556126ec565b828001600101855582156126ec579182015b828111156126eb5782518255916020019190600101906126d0565b5b5090506126f991906127ac565b5090565b828054828255906000526020600020908101928215612739579160200282015b8281111561273857825182559160200191906001019061271d565b5b50905061274691906127ac565b5090565b60405180610120016040528060608152602001600073ffffffffffffffffffffffffffffffffffffffff168152602001600081526020016000815260200160008152602001600081526020016000815260200160008152602001600081525090565b5b808211156127c55760008160009055506001016127ad565b5090565b60006127dc6127d78461373a565b613715565b905080838252602082019050828560208602820111156127ff576127fe613ae4565b5b60005b8581101561282f57816128158882612a9a565b845260208401935060208301925050600181019050612802565b5050509392505050565b600061284c61284784613766565b613715565b90508281526020810184848401111561286857612867613ae9565b5b612873848285613974565b509392505050565b600061288e61288984613797565b613715565b9050828152602081018484840111156128aa576128a9613ae9565b5b6128b5848285613974565b509392505050565b6000813590506128cc81613e4e565b6128d5816138df565b905092915050565b600082601f8301126128f2576128f1613ad5565b5b81356129028482602086016127c9565b91505092915050565b60008135905061291a81613e65565b92915050565b60008135905061292f81613e7c565b92915050565b60008151905061294481613e7c565b92915050565b600082601f83011261295f5761295e613ad5565b5b813561296f848260208601612839565b91505092915050565b600082601f83011261298d5761298c613ad5565b5b813561299d84826020860161287b565b91505092915050565b600060c082840312156129bc576129bb613ada565b5b6129c660c0613715565b905060006129d684828501612a9a565b60008301525060206129ea84828501612a9a565b602083015250604082013567ffffffffffffffff811115612a0e57612a0d613adf565b5b612a1a84828501612978565b604083015250606082013567ffffffffffffffff811115612a3e57612a3d613adf565b5b612a4a84828501612978565b6060830152506080612a5e8482850161290b565b60808301525060a082013567ffffffffffffffff811115612a8257612a81613adf565b5b612a8e848285016128dd565b60a08301525092915050565b600081359050612aa981613e93565b92915050565b600060208284031215612ac557612ac4613af3565b5b6000612ad3848285016128bd565b91505092915050565b60008060408385031215612af357612af2613af3565b5b6000612b01858286016128bd565b9250506020612b12858286016128bd565b9150509250929050565b600080600060608486031215612b3557612b34613af3565b5b6000612b43868287016128bd565b9350506020612b54868287016128bd565b9250506040612b6586828701612a9a565b9150509250925092565b60008060008060808587031215612b8957612b88613af3565b5b6000612b97878288016128bd565b9450506020612ba8878288016128bd565b9350506040612bb987828801612a9a565b925050606085013567ffffffffffffffff811115612bda57612bd9613aee565b5b612be68782880161294a565b91505092959194509250565b60008060408385031215612c0957612c08613af3565b5b6000612c17858286016128bd565b9250506020612c288582860161290b565b9150509250929050565b600080600080600060a08688031215612c4e57612c4d613af3565b5b6000612c5c888289016128bd565b955050602086013567ffffffffffffffff811115612c7d57612c7c613aee565b5b612c8988828901612978565b945050604086013567ffffffffffffffff811115612caa57612ca9613aee565b5b612cb688828901612978565b9350506060612cc788828901612a9a565b9250506080612cd88882890161290b565b9150509295509295909350565b60008060408385031215612cfc57612cfb613af3565b5b6000612d0a858286016128bd565b9250506020612d1b85828601612a9a565b9150509250929050565b600060208284031215612d3b57612d3a613af3565b5b6000612d4984828501612920565b91505092915050565b600060208284031215612d6857612d67613af3565b5b6000612d7684828501612935565b91505092915050565b600060208284031215612d9557612d94613af3565b5b600082013567ffffffffffffffff811115612db357612db2613aee565b5b612dbf84828501612978565b91505092915050565b600060208284031215612dde57612ddd613af3565b5b6000612dec84828501612a9a565b91505092915050565b60008060408385031215612e0c57612e0b613af3565b5b6000612e1a85828601612a9a565b925050602083013567ffffffffffffffff811115612e3b57612e3a613aee565b5b612e4785828601612978565b9150509250929050565b600080600080600080600080610100898b031215612e7257612e71613af3565b5b6000612e808b828c01612a9a565b985050602089013567ffffffffffffffff811115612ea157612ea0613aee565b5b612ead8b828c01612978565b9750506040612ebe8b828c016128bd565b9650506060612ecf8b828c01612a9a565b9550506080612ee08b828c01612a9a565b94505060a0612ef18b828c01612a9a565b93505060c0612f028b828c01612a9a565b92505060e0612f138b828c01612a9a565b9150509295985092959890939650565b60008060408385031215612f3a57612f39613af3565b5b6000612f4885828601612a9a565b925050602083013567ffffffffffffffff811115612f6957612f68613aee565b5b612f75858286016129a6565b9150509250929050565b6000612f8b8383613430565b60208301905092915050565b612fa0816138df565b82525050565b612faf816138df565b82525050565b6000612fc0826137d8565b612fca8185613806565b9350612fd5836137c8565b8060005b83811015613006578151612fed8882612f7f565b9750612ff8836137f9565b925050600181019050612fd9565b5085935050505092915050565b61301c816138f1565b82525050565b61302b816138f1565b82525050565b600061303c826137e3565b6130468185613817565b9350613056818560208601613983565b61305f81613af8565b840191505092915050565b6000613075826137ee565b61307f8185613828565b935061308f818560208601613983565b61309881613af8565b840191505092915050565b60006130ae826137ee565b6130b88185613839565b93506130c8818560208601613983565b6130d181613af8565b840191505092915050565b60006130e7826137ee565b6130f1818561384a565b9350613101818560208601613983565b80840191505092915050565b600061311a602d83613839565b915061312582613b09565b604082019050919050565b600061313d603283613839565b915061314882613b58565b604082019050919050565b6000613160602683613839565b915061316b82613ba7565b604082019050919050565b6000613183602583613839565b915061318e82613bf6565b604082019050919050565b60006131a6601c83613839565b91506131b182613c45565b602082019050919050565b60006131c9602483613839565b91506131d482613c6e565b604082019050919050565b60006131ec601983613839565b91506131f782613cbd565b602082019050919050565b600061320f602983613839565b915061321a82613ce6565b604082019050919050565b6000613232602083613839565b915061323d82613d35565b602082019050919050565b6000613255602083613839565b915061326082613d5e565b602082019050919050565b6000613278601883613839565b915061328382613d87565b602082019050919050565b600061329b602183613839565b91506132a682613db0565b604082019050919050565b60006132be603d83613839565b91506132c982613dff565b604082019050919050565b60006101208301600083015184820360008601526132f2828261306a565b91505060208301516133076020860182612f97565b50604083015161331a6040860182613430565b50606083015161332d6060860182613430565b5060808301516133406080860182613430565b5060a083015161335360a0860182613430565b5060c083015161336660c0860182613430565b5060e083015161337960e0860182613430565b5061010083015161338e610100860182613430565b508091505092915050565b600060c0830160008301516133b16000860182613430565b5060208301516133c46020860182613430565b50604083015184820360408601526133dc828261306a565b915050606083015184820360608601526133f6828261306a565b915050608083015161340b6080860182613013565b5060a083015184820360a08601526134238282612fb5565b9150508091505092915050565b6134398161396a565b82525050565b6134488161396a565b82525050565b600061345a82856130dc565b915061346682846130dc565b91508190509392505050565b60006020820190506134876000830184612fa6565b92915050565b60006080820190506134a26000830187612fa6565b6134af6020830186612fa6565b6134bc604083018561343f565b81810360608301526134ce8184613031565b905095945050505050565b60006020820190506134ee6000830184613022565b92915050565b6000602082019050818103600083015261350e81846130a3565b905092915050565b6000602082019050818103600083015261352f8161310d565b9050919050565b6000602082019050818103600083015261354f81613130565b9050919050565b6000602082019050818103600083015261356f81613153565b9050919050565b6000602082019050818103600083015261358f81613176565b9050919050565b600060208201905081810360008301526135af81613199565b9050919050565b600060208201905081810360008301526135cf816131bc565b9050919050565b600060208201905081810360008301526135ef816131df565b9050919050565b6000602082019050818103600083015261360f81613202565b9050919050565b6000602082019050818103600083015261362f81613225565b9050919050565b6000602082019050818103600083015261364f81613248565b9050919050565b6000602082019050818103600083015261366f8161326b565b9050919050565b6000602082019050818103600083015261368f8161328e565b9050919050565b600060208201905081810360008301526136af816132b1565b9050919050565b600060208201905081810360008301526136d081846132d4565b905092915050565b600060208201905081810360008301526136f28184613399565b905092915050565b600060208201905061370f600083018461343f565b92915050565b600061371f613730565b905061372b82826139e8565b919050565b6000604051905090565b600067ffffffffffffffff82111561375557613754613aa6565b5b602082029050602081019050919050565b600067ffffffffffffffff82111561378157613780613aa6565b5b61378a82613af8565b9050602081019050919050565b600067ffffffffffffffff8211156137b2576137b1613aa6565b5b6137bb82613af8565b9050602081019050919050565b6000819050602082019050919050565b600081519050919050565b600081519050919050565b600081519050919050565b6000602082019050919050565b600082825260208201905092915050565b600082825260208201905092915050565b600082825260208201905092915050565b600082825260208201905092915050565b600081905092915050565b60006138608261396a565b915061386b8361396a565b9250827fffffffffffffffffffffffffffffffffffffffffffffffffffffffffffffffff038211156138a05761389f613a19565b5b828201905092915050565b60006138b68261396a565b91506138c18361396a565b9250828210156138d4576138d3613a19565b5b828203905092915050565b60006138ea82613929565b9050919050565b60008115159050919050565b60007fffffffff0000000000000000000000000000000000000000000000000000000082169050919050565b600073ffffffffffffffffffffffffffffffffffffffff82169050919050565b600074ffffffffffffffffffffffffffffffffffffffffff82169050919050565b6000819050919050565b82818337600083830152505050565b60005b838110156139a1578082015181840152602081019050613986565b838111156139b0576000848401525b50505050565b600060028204905060018216806139ce57607f821691505b602082108114156139e2576139e1613a77565b5b50919050565b6139f182613af8565b810181811067ffffffffffffffff82111715613a1057613a0f613aa6565b5b80604052505050565b7f4e487b7100000000000000000000000000000000000000000000000000000000600052601160045260246000fd5b7f4e487b7100000000000000000000000000000000000000000000000000000000600052601260045260246000fd5b7f4e487b7100000000000000000000000000000000000000000000000000000000600052602260045260246000fd5b7f4e487b7100000000000000000000000000000000000000000000000000000000600052604160045260246000fd5b600080fd5b600080fd5b600080fd5b600080fd5b600080fd5b600080fd5b600080fd5b6000601f19601f8301169050919050565b7f4552433732313a2063616c6c6572206973206e6f7420746f6b656e206f776e6560008201527f72206f7220617070726f76656400000000000000000000000000000000000000602082015250565b7f4552433732313a207472616e7366657220746f206e6f6e20455243373231526560008201527f63656976657220696d706c656d656e7465720000000000000000000000000000602082015250565b7f4f776e61626c653a206e6577206f776e657220697320746865207a65726f206160008201527f6464726573730000000000000000000000000000000000000000000000000000602082015250565b7f4552433732313a207472616e736665722066726f6d20696e636f72726563742060008201527f6f776e6572000000000000000000000000000000000000000000000000000000602082015250565b7f4552433732313a20746f6b656e20616c7265616479206d696e74656400000000600082015250565b7f4552433732313a207472616e7366657220746f20746865207a65726f2061646460008201527f7265737300000000000000000000000000000000000000000000000000000000602082015250565b7f4552433732313a20617070726f766520746f2063616c6c657200000000000000600082015250565b7f4552433732313a2061646472657373207a65726f206973206e6f74206120766160008201527f6c6964206f776e65720000000000000000000000000000000000000000000000602082015250565b7f4552433732313a206d696e7420746f20746865207a65726f2061646472657373600082015250565b7f4f776e61626c653a2063616c6c6572206973206e6f7420746865206f776e6572600082015250565b7f4552433732313a20696e76616c696420746f6b656e2049440000000000000000600082015250565b7f4552433732313a20617070726f76616c20746f2063757272656e74206f776e6560008201527f7200000000000000000000000000000000000000000000000000000000000000602082015250565b7f4552433732313a20617070726f76652063616c6c6572206973206e6f7420746f60008201527f6b656e206f776e6572206f7220617070726f76656420666f7220616c6c000000602082015250565b613e5781613949565b8114613e6257600080fd5b50565b613e6e816138f1565b8114613e7957600080fd5b50565b613e85816138fd565b8114613e9057600080fd5b50565b613e9c8161396a565b8114613ea757600080fd5b5056fea26474726f6e582212200d58839cf34db78e460129ef46eda01966d866254e2e6ccb93f1970d41e784d264736f6c63430008060033",
  "source": "// SPDX-License-Identifier: MIT\npragma solidity ^0.8.6;\n\nimport '../node_modules/@openzeppelin/contracts/token/ERC721/ERC721.sol';\nimport '../node_modules/@openzeppelin/contracts/access/Ownable.sol';\nimport '../node_modules/@openzeppelin/contracts/security/ReentrancyGuard.sol';\nimport '../node_modules/@openzeppelin/contracts/utils/Counters.sol';\n\ncontract Coopart is ERC721, Ownable, ReentrancyGuard {\n    using Counters for Counters.Counter;\n    Counters.Counter private _tokenIds;\n    mapping(uint256 => TokenMeta) private _tokenMeta;\n    mapping(uint256 => address) private _creators;\n\n    string baseURI;\n\n    Counters.Counter layerCount;\n    mapping(uint256 => Layer) private layers;\n    struct Layer {\n        string imageUri;\n        address author;\n        uint256 x;\n        uint256 y;\n        uint256 r;\n        uint256 width;\n        uint256 height;\n        uint256 upVotes;\n        uint256 downVotes;\n    }\n\n    struct TokenMeta {\n        uint256 id;\n        uint256 price;\n        string name;\n        string uri;\n        bool isOnSale;\n        uint256[] layerIds;\n    }\n\n    constructor() ERC721('Coop.art', 'COOPART') {}\n\n    function _baseURI() internal view virtual override returns (string memory) {\n        return baseURI;\n    }\n\n    function setBaseURI(string memory _newBaseURI) public virtual onlyOwner {\n        baseURI = _newBaseURI;\n    }\n\n    function setTokenMeta(uint256 _tokenId, TokenMeta memory _meta) public {\n        require(_exists(_tokenId));\n        require(ownerOf(_tokenId) == _msgSender());\n        _tokenMeta[_tokenId] = _meta;\n    }\n\n    function updateTokenMetaUri(uint256 _tokenId, string memory _uri) public {\n        require(_exists(_tokenId));\n        require(ownerOf(_tokenId) == _msgSender());\n        _tokenMeta[_tokenId].uri = _uri;\n    }\n\n    function tokenMeta(uint256 _tokenId) public view returns (TokenMeta memory) {\n        require(_exists(_tokenId));\n        return _tokenMeta[_tokenId];\n    }\n\n    function upVote(uint256 layerId) public {\n        layers[layerId].upVotes += 1;\n    }\n\n    function downVote(uint256 layerId) public {\n        layers[layerId].downVotes += 1;\n    }\n\n    function getLayer(uint256 layerId) public view returns (Layer memory) {\n        return (layers[layerId]);\n    }\n\n    function addLayer(\n        uint256 _canvasId,\n        string memory _imageUri,\n        address _author,\n        uint256 _x,\n        uint256 _y,\n        uint256 _r,\n        uint256 _width,\n        uint256 _height\n    ) public returns (uint256) {\n        layerCount.increment();\n        uint256 newLayerId = layerCount.current();\n        layers[newLayerId] = Layer(_imageUri, _author, _x, _y, _r, _width, _height, 0, 0);\n        // _tokenMeta[_canvasId].push(newLayerId);\n        TokenMeta storage meta = _tokenMeta[_canvasId];\n        meta.layerIds.push(newLayerId);\n        setTokenMeta(_canvasId, meta);\n        return newLayerId;\n    }\n\n    function mintCanvas(\n        address _owner,\n        string memory _tokenURI,\n        string memory _name,\n        uint256 _price,\n        bool _isOnSale\n    ) public returns (uint256) {\n        require(_price > 0);\n        _tokenIds.increment();\n        uint256 newItemId = _tokenIds.current();\n        _mint(_owner, newItemId);\n        _creators[newItemId] = msg.sender;\n        uint256[] memory layersIds;\n        TokenMeta memory meta = TokenMeta(newItemId, _price, _name, _tokenURI, _isOnSale, layersIds);\n        setTokenMeta(newItemId, meta);\n        return newItemId;\n    }\n}\n",
  "sourcePath": "/Users/lol/apps/fun/coop.art/src/contracts/contracts/Coopart.sol",
  "compiler": {
    "name": "solc",
    "version": "0.8.6+commit.0e36fba0.mod.Emscripten.clang"
  },
  "schemaVersion": "2.0.1",
  "updatedAt": "2022-11-09T21:07:46.568Z"
}