{
  "contractName": "Coopart",
  "abi": [
    {
      "inputs": [],
      "stateMutability": "nonpayable",
      "type": "constructor"
    },
    {
      "anonymous": false,
      "inputs": [
        {
          "indexed": true,
          "internalType": "address",
          "name": "owner",
          "type": "address"
        },
        {
          "indexed": true,
          "internalType": "address",
          "name": "approved",
          "type": "address"
        },
        {
          "indexed": true,
          "internalType": "uint256",
          "name": "tokenId",
          "type": "uint256"
        }
      ],
      "name": "Approval",
      "type": "event"
    },
    {
      "anonymous": false,
      "inputs": [
        {
          "indexed": true,
          "internalType": "address",
          "name": "owner",
          "type": "address"
        },
        {
          "indexed": true,
          "internalType": "address",
          "name": "operator",
          "type": "address"
        },
        {
          "indexed": false,
          "internalType": "bool",
          "name": "approved",
          "type": "bool"
        }
      ],
      "name": "ApprovalForAll",
      "type": "event"
    },
    {
      "anonymous": false,
      "inputs": [
        {
          "indexed": true,
          "internalType": "address",
          "name": "previousOwner",
          "type": "address"
        },
        {
          "indexed": true,
          "internalType": "address",
          "name": "newOwner",
          "type": "address"
        }
      ],
      "name": "OwnershipTransferred",
      "type": "event"
    },
    {
      "anonymous": false,
      "inputs": [
        {
          "indexed": true,
          "internalType": "address",
          "name": "from",
          "type": "address"
        },
        {
          "indexed": true,
          "internalType": "address",
          "name": "to",
          "type": "address"
        },
        {
          "indexed": true,
          "internalType": "uint256",
          "name": "tokenId",
          "type": "uint256"
        }
      ],
      "name": "Transfer",
      "type": "event"
    },
    {
      "inputs": [
        {
          "internalType": "uint256",
          "name": "_canvasId",
          "type": "uint256"
        },
        {
          "internalType": "string",
          "name": "_imageUri",
          "type": "string"
        },
        {
          "internalType": "address",
          "name": "_author",
          "type": "address"
        }
      ],
      "name": "addLayer",
      "outputs": [
        {
          "internalType": "uint256",
          "name": "",
          "type": "uint256"
        }
      ],
      "stateMutability": "nonpayable",
      "type": "function"
    },
    {
      "inputs": [
        {
          "internalType": "address",
          "name": "to",
          "type": "address"
        },
        {
          "internalType": "uint256",
          "name": "tokenId",
          "type": "uint256"
        }
      ],
      "name": "approve",
      "outputs": [],
      "stateMutability": "nonpayable",
      "type": "function"
    },
    {
      "inputs": [
        {
          "internalType": "address",
          "name": "owner",
          "type": "address"
        }
      ],
      "name": "balanceOf",
      "outputs": [
        {
          "internalType": "uint256",
          "name": "",
          "type": "uint256"
        }
      ],
      "stateMutability": "view",
      "type": "function"
    },
    {
      "inputs": [
        {
          "internalType": "uint256",
          "name": "layerId",
          "type": "uint256"
        }
      ],
      "name": "downVote",
      "outputs": [],
      "stateMutability": "nonpayable",
      "type": "function"
    },
    {
      "inputs": [],
      "name": "getAllOnSale",
      "outputs": [
        {
          "components": [
            {
              "internalType": "uint256",
              "name": "id",
              "type": "uint256"
            },
            {
              "internalType": "uint256",
              "name": "price",
              "type": "uint256"
            },
            {
              "internalType": "string",
              "name": "name",
              "type": "string"
            },
            {
              "internalType": "string",
              "name": "uri",
              "type": "string"
            },
            {
              "internalType": "bool",
              "name": "isOnSale",
              "type": "bool"
            },
            {
              "internalType": "uint256[]",
              "name": "layerIds",
              "type": "uint256[]"
            }
          ],
          "internalType": "struct Coopart.TokenMeta[]",
          "name": "",
          "type": "tuple[]"
        }
      ],
      "stateMutability": "view",
      "type": "function"
    },
    {
      "inputs": [
        {
          "internalType": "uint256",
          "name": "tokenId",
          "type": "uint256"
        }
      ],
      "name": "getApproved",
      "outputs": [
        {
          "internalType": "address",
          "name": "",
          "type": "address"
        }
      ],
      "stateMutability": "view",
      "type": "function"
    },
    {
      "inputs": [
        {
          "internalType": "uint256",
          "name": "layerId",
          "type": "uint256"
        }
      ],
      "name": "getLayer",
      "outputs": [
        {
          "components": [
            {
              "internalType": "string",
              "name": "imageUri",
              "type": "string"
            },
            {
              "internalType": "address",
              "name": "author",
              "type": "address"
            },
            {
              "internalType": "uint256",
              "name": "upVotes",
              "type": "uint256"
            },
            {
              "internalType": "uint256",
              "name": "downVotes",
              "type": "uint256"
            }
          ],
          "internalType": "struct Coopart.Layer",
          "name": "",
          "type": "tuple"
        }
      ],
      "stateMutability": "view",
      "type": "function"
    },
    {
      "inputs": [
        {
          "internalType": "uint256",
          "name": "tokenId",
          "type": "uint256"
        }
      ],
      "name": "getTokenCreatorById",
      "outputs": [
        {
          "internalType": "address",
          "name": "",
          "type": "address"
        }
      ],
      "stateMutability": "view",
      "type": "function"
    },
    {
      "inputs": [],
      "name": "getTokensCreatedByMe",
      "outputs": [
        {
          "internalType": "uint256[]",
          "name": "",
          "type": "uint256[]"
        }
      ],
      "stateMutability": "view",
      "type": "function"
    },
    {
      "inputs": [],
      "name": "getTokensOwnedByMe",
      "outputs": [
        {
          "internalType": "uint256[]",
          "name": "",
          "type": "uint256[]"
        }
      ],
      "stateMutability": "view",
      "type": "function"
    },
    {
      "inputs": [
        {
          "internalType": "address",
          "name": "owner",
          "type": "address"
        },
        {
          "internalType": "address",
          "name": "operator",
          "type": "address"
        }
      ],
      "name": "isApprovedForAll",
      "outputs": [
        {
          "internalType": "bool",
          "name": "",
          "type": "bool"
        }
      ],
      "stateMutability": "view",
      "type": "function"
    },
    {
      "inputs": [
        {
          "internalType": "address",
          "name": "_owner",
          "type": "address"
        },
        {
          "internalType": "string",
          "name": "_tokenURI",
          "type": "string"
        },
        {
          "internalType": "string",
          "name": "_name",
          "type": "string"
        },
        {
          "internalType": "uint256",
          "name": "_price",
          "type": "uint256"
        },
        {
          "internalType": "bool",
          "name": "_isOnSale",
          "type": "bool"
        }
      ],
      "name": "mintCanvas",
      "outputs": [
        {
          "internalType": "uint256",
          "name": "",
          "type": "uint256"
        }
      ],
      "stateMutability": "nonpayable",
      "type": "function"
    },
    {
      "inputs": [],
      "name": "name",
      "outputs": [
        {
          "internalType": "string",
          "name": "",
          "type": "string"
        }
      ],
      "stateMutability": "view",
      "type": "function"
    },
    {
      "inputs": [],
      "name": "owner",
      "outputs": [
        {
          "internalType": "address",
          "name": "",
          "type": "address"
        }
      ],
      "stateMutability": "view",
      "type": "function"
    },
    {
      "inputs": [
        {
          "internalType": "uint256",
          "name": "tokenId",
          "type": "uint256"
        }
      ],
      "name": "ownerOf",
      "outputs": [
        {
          "internalType": "address",
          "name": "",
          "type": "address"
        }
      ],
      "stateMutability": "view",
      "type": "function"
    },
    {
      "inputs": [
        {
          "internalType": "uint256",
          "name": "_tokenId",
          "type": "uint256"
        }
      ],
      "name": "purchaseToken",
      "outputs": [],
      "stateMutability": "payable",
      "type": "function"
    },
    {
      "inputs": [],
      "name": "renounceOwnership",
      "outputs": [],
      "stateMutability": "nonpayable",
      "type": "function"
    },
    {
      "inputs": [
        {
          "internalType": "address",
          "name": "from",
          "type": "address"
        },
        {
          "internalType": "address",
          "name": "to",
          "type": "address"
        },
        {
          "internalType": "uint256",
          "name": "tokenId",
          "type": "uint256"
        }
      ],
      "name": "safeTransferFrom",
      "outputs": [],
      "stateMutability": "nonpayable",
      "type": "function"
    },
    {
      "inputs": [
        {
          "internalType": "address",
          "name": "from",
          "type": "address"
        },
        {
          "internalType": "address",
          "name": "to",
          "type": "address"
        },
        {
          "internalType": "uint256",
          "name": "tokenId",
          "type": "uint256"
        },
        {
          "internalType": "bytes",
          "name": "data",
          "type": "bytes"
        }
      ],
      "name": "safeTransferFrom",
      "outputs": [],
      "stateMutability": "nonpayable",
      "type": "function"
    },
    {
      "inputs": [
        {
          "internalType": "address",
          "name": "operator",
          "type": "address"
        },
        {
          "internalType": "bool",
          "name": "approved",
          "type": "bool"
        }
      ],
      "name": "setApprovalForAll",
      "outputs": [],
      "stateMutability": "nonpayable",
      "type": "function"
    },
    {
      "inputs": [
        {
          "internalType": "string",
          "name": "_newBaseURI",
          "type": "string"
        }
      ],
      "name": "setBaseURI",
      "outputs": [],
      "stateMutability": "nonpayable",
      "type": "function"
    },
    {
      "inputs": [
        {
          "internalType": "uint256",
          "name": "_tokenId",
          "type": "uint256"
        },
        {
          "components": [
            {
              "internalType": "uint256",
              "name": "id",
              "type": "uint256"
            },
            {
              "internalType": "uint256",
              "name": "price",
              "type": "uint256"
            },
            {
              "internalType": "string",
              "name": "name",
              "type": "string"
            },
            {
              "internalType": "string",
              "name": "uri",
              "type": "string"
            },
            {
              "internalType": "bool",
              "name": "isOnSale",
              "type": "bool"
            },
            {
              "internalType": "uint256[]",
              "name": "layerIds",
              "type": "uint256[]"
            }
          ],
          "internalType": "struct Coopart.TokenMeta",
          "name": "_meta",
          "type": "tuple"
        }
      ],
      "name": "setTokenMeta",
      "outputs": [],
      "stateMutability": "nonpayable",
      "type": "function"
    },
    {
      "inputs": [
        {
          "internalType": "uint256",
          "name": "_tokenId",
          "type": "uint256"
        },
        {
          "internalType": "uint256",
          "name": "_price",
          "type": "uint256"
        }
      ],
      "name": "setTokenPrice",
      "outputs": [],
      "stateMutability": "nonpayable",
      "type": "function"
    },
    {
      "inputs": [
        {
          "internalType": "uint256",
          "name": "_tokenId",
          "type": "uint256"
        },
        {
          "internalType": "bool",
          "name": "_isOnSale",
          "type": "bool"
        },
        {
          "internalType": "uint256",
          "name": "_price",
          "type": "uint256"
        }
      ],
      "name": "setTokenSale",
      "outputs": [],
      "stateMutability": "nonpayable",
      "type": "function"
    },
    {
      "inputs": [
        {
          "internalType": "bytes4",
          "name": "interfaceId",
          "type": "bytes4"
        }
      ],
      "name": "supportsInterface",
      "outputs": [
        {
          "internalType": "bool",
          "name": "",
          "type": "bool"
        }
      ],
      "stateMutability": "view",
      "type": "function"
    },
    {
      "inputs": [],
      "name": "symbol",
      "outputs": [
        {
          "internalType": "string",
          "name": "",
          "type": "string"
        }
      ],
      "stateMutability": "view",
      "type": "function"
    },
    {
      "inputs": [
        {
          "internalType": "uint256",
          "name": "_tokenId",
          "type": "uint256"
        }
      ],
      "name": "tokenMeta",
      "outputs": [
        {
          "components": [
            {
              "internalType": "uint256",
              "name": "id",
              "type": "uint256"
            },
            {
              "internalType": "uint256",
              "name": "price",
              "type": "uint256"
            },
            {
              "internalType": "string",
              "name": "name",
              "type": "string"
            },
            {
              "internalType": "string",
              "name": "uri",
              "type": "string"
            },
            {
              "internalType": "bool",
              "name": "isOnSale",
              "type": "bool"
            },
            {
              "internalType": "uint256[]",
              "name": "layerIds",
              "type": "uint256[]"
            }
          ],
          "internalType": "struct Coopart.TokenMeta",
          "name": "",
          "type": "tuple"
        }
      ],
      "stateMutability": "view",
      "type": "function"
    },
    {
      "inputs": [
        {
          "internalType": "uint256",
          "name": "tokenId",
          "type": "uint256"
        }
      ],
      "name": "tokenPrice",
      "outputs": [
        {
          "internalType": "uint256",
          "name": "",
          "type": "uint256"
        }
      ],
      "stateMutability": "view",
      "type": "function"
    },
    {
      "inputs": [
        {
          "internalType": "uint256",
          "name": "tokenId",
          "type": "uint256"
        }
      ],
      "name": "tokenURI",
      "outputs": [
        {
          "internalType": "string",
          "name": "",
          "type": "string"
        }
      ],
      "stateMutability": "view",
      "type": "function"
    },
    {
      "inputs": [
        {
          "internalType": "address",
          "name": "from",
          "type": "address"
        },
        {
          "internalType": "address",
          "name": "to",
          "type": "address"
        },
        {
          "internalType": "uint256",
          "name": "tokenId",
          "type": "uint256"
        }
      ],
      "name": "transferFrom",
      "outputs": [],
      "stateMutability": "nonpayable",
      "type": "function"
    },
    {
      "inputs": [
        {
          "internalType": "address",
          "name": "newOwner",
          "type": "address"
        }
      ],
      "name": "transferOwnership",
      "outputs": [],
      "stateMutability": "nonpayable",
      "type": "function"
    },
    {
      "inputs": [
        {
          "internalType": "uint256",
          "name": "layerId",
          "type": "uint256"
        }
      ],
      "name": "upVote",
      "outputs": [],
      "stateMutability": "nonpayable",
      "type": "function"
    },
    {
      "inputs": [
        {
          "internalType": "uint256",
          "name": "_tokenId",
          "type": "uint256"
        },
        {
          "internalType": "string",
          "name": "_uri",
          "type": "string"
        }
      ],
      "name": "updateTokenMetaUri",
      "outputs": [],
      "stateMutability": "nonpayable",
      "type": "function"
    }
  ],
  "bytecode": "0x60806040523480156200001157600080fd5b50d380156200001f57600080fd5b50d280156200002d57600080fd5b506040518060400160405280600881526020017f436f6f702e6172740000000000000000000000000000000000000000000000008152506040518060400160405280600781526020017f434f4f50415254000000000000000000000000000000000000000000000000008152508160009080519060200190620000b2929190620001ca565b508060019080519060200190620000cb929190620001ca565b505050620000ee620000e2620000fc60201b60201c565b6200010460201b60201c565b6001600781905550620002df565b600033905090565b6000600660009054906101000a900473ffffffffffffffffffffffffffffffffffffffff16905081600660006101000a81548173ffffffffffffffffffffffffffffffffffffffff021916908373ffffffffffffffffffffffffffffffffffffffff1602179055508173ffffffffffffffffffffffffffffffffffffffff168173ffffffffffffffffffffffffffffffffffffffff167f8be0079c531659141344cd1fd0a4f28419497f9722a3daafe3b4186f6b6457e060405160405180910390a35050565b828054620001d8906200027a565b90600052602060002090601f016020900481019282620001fc576000855562000248565b82601f106200021757805160ff191683800117855562000248565b8280016001018555821562000248579182015b82811115620002475782518255916020019190600101906200022a565b5b5090506200025791906200025b565b5090565b5b80821115620002765760008160009055506001016200025c565b5090565b600060028204905060018216806200029357607f821691505b60208210811415620002aa57620002a9620002b0565b5b50919050565b7f4e487b7100000000000000000000000000000000000000000000000000000000600052602260045260246000fd5b61502d80620002ef6000396000f3fe6080604052600436106101ee5760003560e01c80638da5cb5b1161010d578063c87b56dd116100a0578063eb685c471161006f578063eb685c47146109e2578063ec859db514610a25578063ed3d0bc414610a68578063f2fde38b14610abf578063f781e3ae14610b02576101ee565b8063c87b56dd1461089a578063d4ddce8a146108f1578063e5d7f2a914610948578063e985e9c51461098b576101ee565b8063a22cb465116100dc578063a22cb465146107a1578063ae71c43c146107e4578063b88d4fde1461083b578063c2db2c421461087e576101ee565b80638da5cb5b1461068f57806390894559146106d457806395d89b4114610719578063a1a0309a1461075e576101ee565b806342842e0e116101855780636387ede6116101545780636387ede61461056d57806370a08231146105b0578063715018a614610607578063867d339714610638576101ee565b806342842e0e1461044b57806355f804b31461048e5780635ba37742146104d15780636352211e14610516576101ee565b80630a989d9c116101c15780630a989d9c146103295780630ae7a3101461036e5780631ae9392d146103c557806323b872dd14610408576101ee565b806301ffc9a7146101f357806306fdde031461024a578063081812fc1461028f578063095ea7b3146102e6575b600080fd5b3480156101ff57600080fd5b50d3801561020c57600080fd5b50d2801561021957600080fd5b50610234600480360381019061022f919061399c565b610b59565b604051610241919061436c565b60405180910390f35b34801561025657600080fd5b50d3801561026357600080fd5b50d2801561027057600080fd5b50610279610c3b565b6040516102869190614387565b60405180910390f35b34801561029b57600080fd5b50d380156102a857600080fd5b50d280156102b557600080fd5b506102d060048036038101906102cb9190613a3f565b610ccd565b6040516102dd91906142c1565b60405180910390f35b3480156102f257600080fd5b50d380156102ff57600080fd5b50d2801561030c57600080fd5b506103276004803603810190610322919061395c565b610d13565b005b34801561033557600080fd5b50d3801561034257600080fd5b50d2801561034f57600080fd5b50610358610e2b565b604051610365919061434a565b60405180910390f35b34801561037a57600080fd5b50d3801561038757600080fd5b50d2801561039457600080fd5b506103af60048036038101906103aa9190613a3f565b610f42565b6040516103bc91906145eb565b60405180910390f35b3480156103d157600080fd5b50d380156103de57600080fd5b50d280156103eb57600080fd5b5061040660048036038101906104019190613a3f565b61112c565b005b34801561041457600080fd5b50d3801561042157600080fd5b50d2801561042e57600080fd5b5061044960048036038101906104449190613793565b61115d565b005b34801561045757600080fd5b50d3801561046457600080fd5b50d2801561047157600080fd5b5061048c60048036038101906104879190613793565b6111bd565b005b34801561049a57600080fd5b50d380156104a757600080fd5b50d280156104b457600080fd5b506104cf60048036038101906104ca91906139f6565b6111dd565b005b3480156104dd57600080fd5b50d380156104ea57600080fd5b50d280156104f757600080fd5b506105006111ff565b60405161050d919061434a565b60405180910390f35b34801561052257600080fd5b50d3801561052f57600080fd5b50d2801561053c57600080fd5b5061055760048036038101906105529190613a3f565b6113e2565b60405161056491906142c1565b60405180910390f35b34801561057957600080fd5b50d3801561058657600080fd5b50d2801561059357600080fd5b506105ae60048036038101906105a99190613a6c565b611494565b005b3480156105bc57600080fd5b50d380156105c957600080fd5b50d280156105d657600080fd5b506105f160048036038101906105ec9190613726565b61156d565b6040516105fe919061460d565b60405180910390f35b34801561061357600080fd5b50d3801561062057600080fd5b50d2801561062d57600080fd5b50610636611625565b005b34801561064457600080fd5b50d3801561065157600080fd5b50d2801561065e57600080fd5b5061067960048036038101906106749190613a3f565b611639565b60405161068691906142c1565b60405180910390f35b34801561069b57600080fd5b50d380156106a857600080fd5b50d280156106b557600080fd5b506106be611676565b6040516106cb91906142c1565b60405180910390f35b3480156106e057600080fd5b50d380156106ed57600080fd5b50d280156106fa57600080fd5b506107036116a0565b6040516107109190614328565b60405180910390f35b34801561072557600080fd5b50d3801561073257600080fd5b50d2801561073f57600080fd5b5061074861196a565b6040516107559190614387565b60405180910390f35b34801561076a57600080fd5b50d3801561077757600080fd5b50d2801561078457600080fd5b5061079f600480360381019061079a9190613b8a565b6119fc565b005b3480156107ad57600080fd5b50d380156107ba57600080fd5b50d280156107c757600080fd5b506107e260048036038101906107dd9190613869565b611afb565b005b3480156107f057600080fd5b50d380156107fd57600080fd5b50d2801561080a57600080fd5b50610825600480360381019061082091906138a9565b611b11565b604051610832919061460d565b60405180910390f35b34801561084757600080fd5b50d3801561085457600080fd5b50d2801561086157600080fd5b5061087c600480360381019061087791906137e6565b611be1565b005b61089860048036038101906108939190613a3f565b611c43565b005b3480156108a657600080fd5b50d380156108b357600080fd5b50d280156108c057600080fd5b506108db60048036038101906108d69190613a3f565b611dd3565b6040516108e89190614387565b60405180910390f35b3480156108fd57600080fd5b50d3801561090a57600080fd5b50d2801561091757600080fd5b50610932600480360381019061092d9190613a3f565b611e3b565b60405161093f919061460d565b60405180910390f35b34801561095457600080fd5b50d3801561096157600080fd5b50d2801561096e57600080fd5b5061098960048036038101906109849190613abf565b611ea3565b005b34801561099757600080fd5b50d380156109a457600080fd5b50d280156109b157600080fd5b506109cc60048036038101906109c79190613753565b611f2b565b6040516109d9919061436c565b60405180910390f35b3480156109ee57600080fd5b50d380156109fb57600080fd5b50d28015610a0857600080fd5b50610a236004803603810190610a1e9190613be6565b611fbf565b005b348015610a3157600080fd5b50d38015610a3e57600080fd5b50d28015610a4b57600080fd5b50610a666004803603810190610a619190613a3f565b61206d565b005b348015610a7457600080fd5b50d38015610a8157600080fd5b50d28015610a8e57600080fd5b50610aa96004803603810190610aa49190613b1b565b61209e565b604051610ab6919061460d565b60405180910390f35b348015610acb57600080fd5b50d38015610ad857600080fd5b50d28015610ae557600080fd5b50610b006004803603810190610afb9190613726565b61238d565b005b348015610b0e57600080fd5b50d38015610b1b57600080fd5b50d28015610b2857600080fd5b50610b436004803603810190610b3e9190613a3f565b612411565b604051610b5091906145c9565b60405180910390f35b60007f80ac58cd000000000000000000000000000000000000000000000000000000007bffffffffffffffffffffffffffffffffffffffffffffffffffffffff1916827bffffffffffffffffffffffffffffffffffffffffffffffffffffffff19161480610c2457507f5b5e139f000000000000000000000000000000000000000000000000000000007bffffffffffffffffffffffffffffffffffffffffffffffffffffffff1916827bffffffffffffffffffffffffffffffffffffffffffffffffffffffff1916145b80610c345750610c338261253a565b5b9050919050565b606060008054610c4a90614944565b80601f0160208091040260200160405190810160405280929190818152602001828054610c7690614944565b8015610cc35780601f10610c9857610100808354040283529160200191610cc3565b820191906000526020600020905b815481529060010190602001808311610ca657829003601f168201915b5050505050905090565b6000610cd8826125a4565b6004600083815260200190815260200160002060009054906101000a900473ffffffffffffffffffffffffffffffffffffffff169050919050565b6000610d1e826113e2565b90508073ffffffffffffffffffffffffffffffffffffffff168373ffffffffffffffffffffffffffffffffffffffff161415610d8f576040517f08c379a0000000000000000000000000000000000000000000000000000000008152600401610d8690614549565b60405180910390fd5b8073ffffffffffffffffffffffffffffffffffffffff16610dae6125ef565b73ffffffffffffffffffffffffffffffffffffffff161480610ddd5750610ddc81610dd76125ef565b611f2b565b5b610e1c576040517f08c379a0000000000000000000000000000000000000000000000000000000008152600401610e13906144a9565b60405180910390fd5b610e2683836125f7565b505050565b60606000610e3960086126b0565b90506000610e463361156d565b905060008167ffffffffffffffff811115610e6457610e63614add565b5b604051908082528060200260200182016040528015610e925781602001602082028036833780820191505090505b5090506000805b84811015610f37576000600182610eb091906147b2565b90503373ffffffffffffffffffffffffffffffffffffffff16610ed2826113e2565b73ffffffffffffffffffffffffffffffffffffffff1614610ef35750610f24565b80848481518110610f0757610f06614aae565b5b602002602001018181525050600183610f2091906147b2565b9250505b8080610f2f906149a7565b915050610e99565b508194505050505090565b610f4a6132da565b610f53826126be565b610f5c57600080fd5b600960008381526020019081526020016000206040518060c00160405290816000820154815260200160018201548152602001600282018054610f9e90614944565b80601f0160208091040260200160405190810160405280929190818152602001828054610fca90614944565b80156110175780601f10610fec57610100808354040283529160200191611017565b820191906000526020600020905b815481529060010190602001808311610ffa57829003601f168201915b5050505050815260200160038201805461103090614944565b80601f016020809104026020016040519081016040528092919081815260200182805461105c90614944565b80156110a95780601f1061107e576101008083540402835291602001916110a9565b820191906000526020600020905b81548152906001019060200180831161108c57829003601f168201915b505050505081526020016004820160009054906101000a900460ff161515151581526020016005820180548060200260200160405190810160405280929190818152602001828054801561111c57602002820191906000526020600020905b815481526020019060010190808311611108575b5050505050815250509050919050565b6001600d6000838152602001908152602001600020600301600082825461115391906147b2565b9250508190555050565b61116e6111686125ef565b8261272a565b6111ad576040517f08c379a00000000000000000000000000000000000000000000000000000000081526004016111a490614589565b60405180910390fd5b6111b88383836127bf565b505050565b6111d883838360405180602001604052806000815250611be1565b505050565b6111e5612a26565b80600b90805190602001906111fb929190613312565b5050565b6060600061120d60086126b0565b90506000805b828110156112bc57600060018261122a91906147b2565b90503373ffffffffffffffffffffffffffffffffffffffff16600a600083815260200190815260200160002060009054906101000a900473ffffffffffffffffffffffffffffffffffffffff1673ffffffffffffffffffffffffffffffffffffffff161461129857506112a9565b6001836112a591906147b2565b9250505b80806112b4906149a7565b915050611213565b5060008167ffffffffffffffff8111156112d9576112d8614add565b5b6040519080825280602002602001820160405280156113075781602001602082028036833780820191505090505b5090506000805b848110156113d757600060018261132591906147b2565b90503373ffffffffffffffffffffffffffffffffffffffff16600a600083815260200190815260200160002060009054906101000a900473ffffffffffffffffffffffffffffffffffffffff1673ffffffffffffffffffffffffffffffffffffffff161461139357506113c4565b808484815181106113a7576113a6614aae565b5b6020026020010181815250506001836113c091906147b2565b9250505b80806113cf906149a7565b91505061130e565b508194505050505090565b6000806002600084815260200190815260200160002060009054906101000a900473ffffffffffffffffffffffffffffffffffffffff169050600073ffffffffffffffffffffffffffffffffffffffff168173ffffffffffffffffffffffffffffffffffffffff16141561148b576040517f08c379a000000000000000000000000000000000000000000000000000000000815260040161148290614529565b60405180910390fd5b80915050919050565b61149d836126be565b6114dc576040517f08c379a00000000000000000000000000000000000000000000000000000000081526004016114d390614569565b60405180910390fd5b600081116114e957600080fd5b6114f16125ef565b73ffffffffffffffffffffffffffffffffffffffff16611510846113e2565b73ffffffffffffffffffffffffffffffffffffffff161461153057600080fd5b816009600085815260200190815260200160002060040160006101000a81548160ff0219169083151502179055506115688382611fbf565b505050565b60008073ffffffffffffffffffffffffffffffffffffffff168273ffffffffffffffffffffffffffffffffffffffff1614156115de576040517f08c379a00000000000000000000000000000000000000000000000000000000081526004016115d590614469565b60405180910390fd5b600360008373ffffffffffffffffffffffffffffffffffffffff1673ffffffffffffffffffffffffffffffffffffffff168152602001908152602001600020549050919050565b61162d612a26565b6116376000612aa4565b565b6000600a600083815260200190815260200160002060009054906101000a900473ffffffffffffffffffffffffffffffffffffffff169050919050565b6000600660009054906101000a900473ffffffffffffffffffffffffffffffffffffffff16905090565b606060006116ae60086126b0565b67ffffffffffffffff8111156116c7576116c6614add565b5b60405190808252806020026020018201604052801561170057816020015b6116ed6132da565b8152602001906001900390816116e55790505b509050600080600190505b600161171760086126b0565b61172191906147b2565b81101561196157600115156009600083815260200190815260200160002060040160009054906101000a900460ff161515141561194e57600960008281526020019081526020016000206040518060c0016040529081600082015481526020016001820154815260200160028201805461179a90614944565b80601f01602080910402602001604051908101604052809291908181526020018280546117c690614944565b80156118135780601f106117e857610100808354040283529160200191611813565b820191906000526020600020905b8154815290600101906020018083116117f657829003601f168201915b5050505050815260200160038201805461182c90614944565b80601f016020809104026020016040519081016040528092919081815260200182805461185890614944565b80156118a55780601f1061187a576101008083540402835291602001916118a5565b820191906000526020600020905b81548152906001019060200180831161188857829003601f168201915b505050505081526020016004820160009054906101000a900460ff161515151581526020016005820180548060200260200160405190810160405280929190818152602001828054801561191857602002820191906000526020600020905b815481526020019060010190808311611904575b50505050508152505083838151811061193457611933614aae565b5b6020026020010181905250818061194a906149a7565b9250505b8080611959906149a7565b91505061170b565b50819250505090565b60606001805461197990614944565b80601f01602080910402602001604051908101604052809291908181526020018280546119a590614944565b80156119f25780601f106119c7576101008083540402835291602001916119f2565b820191906000526020600020905b8154815290600101906020018083116119d557829003601f168201915b5050505050905090565b611a05826126be565b611a0e57600080fd5b611a166125ef565b73ffffffffffffffffffffffffffffffffffffffff16611a35836113e2565b73ffffffffffffffffffffffffffffffffffffffff1614611a5557600080fd5b806009600084815260200190815260200160002060008201518160000155602082015181600101556040820151816002019080519060200190611a99929190613312565b506060820151816003019080519060200190611ab6929190613312565b5060808201518160040160006101000a81548160ff02191690831515021790555060a0820151816005019080519060200190611af3929190613398565b509050505050565b611b0d611b066125ef565b8383612b6a565b5050565b6000808311611b1f57600080fd5b611b296008612cd7565b6000611b3560086126b0565b9050611b418782612ced565b33600a600083815260200190815260200160002060006101000a81548173ffffffffffffffffffffffffffffffffffffffff021916908373ffffffffffffffffffffffffffffffffffffffff160217905550606060006040518060c001604052808481526020018781526020018881526020018981526020018615158152602001838152509050611bd283826119fc565b82935050505095945050505050565b611bf2611bec6125ef565b8361272a565b611c31576040517f08c379a0000000000000000000000000000000000000000000000000000000008152600401611c2890614589565b60405180910390fd5b611c3d84848484612ec7565b50505050565b60026007541415611c89576040517f08c379a0000000000000000000000000000000000000000000000000000000008152600401611c80906145a9565b60405180910390fd5b6002600781905550600073ffffffffffffffffffffffffffffffffffffffff163373ffffffffffffffffffffffffffffffffffffffff1614158015611d025750611cd2816113e2565b73ffffffffffffffffffffffffffffffffffffffff163373ffffffffffffffffffffffffffffffffffffffff1614155b611d0b57600080fd5b6009600082815260200190815260200160002060010154341015611d2e57600080fd5b6000611d39826113e2565b90508073ffffffffffffffffffffffffffffffffffffffff166108fc349081150290604051600060405180830381858888f19350505050158015611d81573d6000803e3d6000fd5b50611d8d816001611afb565b611d988133846127bf565b60006009600084815260200190815260200160002060040160006101000a81548160ff02191690831515021790555050600160078190555050565b6060611dde826125a4565b6000611de8612f23565b90506000815111611e085760405180602001604052806000815250611e33565b80611e1284612fb5565b604051602001611e2392919061429d565b6040516020818303038152906040525b915050919050565b6000611e46826126be565b611e85576040517f08c379a0000000000000000000000000000000000000000000000000000000008152600401611e7c90614489565b60405180910390fd5b60096000838152602001908152602001600020600101549050919050565b611eac826126be565b611eb557600080fd5b611ebd6125ef565b73ffffffffffffffffffffffffffffffffffffffff16611edc836113e2565b73ffffffffffffffffffffffffffffffffffffffff1614611efc57600080fd5b80600960008481526020019081526020016000206003019080519060200190611f26929190613312565b505050565b6000600560008473ffffffffffffffffffffffffffffffffffffffff1673ffffffffffffffffffffffffffffffffffffffff16815260200190815260200160002060008373ffffffffffffffffffffffffffffffffffffffff1673ffffffffffffffffffffffffffffffffffffffff16815260200190815260200160002060009054906101000a900460ff16905092915050565b611fc8826126be565b612007576040517f08c379a0000000000000000000000000000000000000000000000000000000008152600401611ffe90614509565b60405180910390fd5b61200f6125ef565b73ffffffffffffffffffffffffffffffffffffffff1661202e836113e2565b73ffffffffffffffffffffffffffffffffffffffff161461204e57600080fd5b8060096000848152602001908152602001600020600101819055505050565b6001600d6000838152602001908152602001600020600201600082825461209491906147b2565b9250508190555050565b60006120aa600c612cd7565b60006120b6600c6126b0565b905060405180608001604052808581526020018473ffffffffffffffffffffffffffffffffffffffff168152602001600081526020016000815250600d60008381526020019081526020016000206000820151816000019080519060200190612120929190613312565b5060208201518160010160006101000a81548173ffffffffffffffffffffffffffffffffffffffff021916908373ffffffffffffffffffffffffffffffffffffffff160217905550604082015181600201556060820151816003015590505060006009600087815260200190815260200160002090508060050182908060018154018082558091505060019003906000526020600020016000909190919091505561238186826040518060c001604052908160008201548152602001600182015481526020016002820180546121f590614944565b80601f016020809104026020016040519081016040528092919081815260200182805461222190614944565b801561226e5780601f106122435761010080835404028352916020019161226e565b820191906000526020600020905b81548152906001019060200180831161225157829003601f168201915b5050505050815260200160038201805461228790614944565b80601f01602080910402602001604051908101604052809291908181526020018280546122b390614944565b80156123005780601f106122d557610100808354040283529160200191612300565b820191906000526020600020905b8154815290600101906020018083116122e357829003601f168201915b505050505081526020016004820160009054906101000a900460ff161515151581526020016005820180548060200260200160405190810160405280929190818152602001828054801561237357602002820191906000526020600020905b81548152602001906001019080831161235f575b5050505050815250506119fc565b81925050509392505050565b612395612a26565b600073ffffffffffffffffffffffffffffffffffffffff168173ffffffffffffffffffffffffffffffffffffffff161415612405576040517f08c379a00000000000000000000000000000000000000000000000000000000081526004016123fc906143c9565b60405180910390fd5b61240e81612aa4565b50565b6124196133e5565b600d600083815260200190815260200160002060405180608001604052908160008201805461244790614944565b80601f016020809104026020016040519081016040528092919081815260200182805461247390614944565b80156124c05780601f10612495576101008083540402835291602001916124c0565b820191906000526020600020905b8154815290600101906020018083116124a357829003601f168201915b505050505081526020016001820160009054906101000a900473ffffffffffffffffffffffffffffffffffffffff1673ffffffffffffffffffffffffffffffffffffffff1673ffffffffffffffffffffffffffffffffffffffff168152602001600282015481526020016003820154815250509050919050565b60007f01ffc9a7000000000000000000000000000000000000000000000000000000007bffffffffffffffffffffffffffffffffffffffffffffffffffffffff1916827bffffffffffffffffffffffffffffffffffffffffffffffffffffffff1916149050919050565b6125ad816126be565b6125ec576040517f08c379a00000000000000000000000000000000000000000000000000000000081526004016125e390614529565b60405180910390fd5b50565b600033905090565b816004600083815260200190815260200160002060006101000a81548173ffffffffffffffffffffffffffffffffffffffff021916908373ffffffffffffffffffffffffffffffffffffffff160217905550808273ffffffffffffffffffffffffffffffffffffffff1661266a836113e2565b73ffffffffffffffffffffffffffffffffffffffff167f8c5be1e5ebec7d5bd14f71427d1e84f3dd0314c0f7b2291e5b200ac8c7c3b92560405160405180910390a45050565b600081600001549050919050565b60008073ffffffffffffffffffffffffffffffffffffffff166002600084815260200190815260200160002060009054906101000a900473ffffffffffffffffffffffffffffffffffffffff1673ffffffffffffffffffffffffffffffffffffffff1614159050919050565b600080612736836113e2565b90508073ffffffffffffffffffffffffffffffffffffffff168473ffffffffffffffffffffffffffffffffffffffff16148061277857506127778185611f2b565b5b806127b657508373ffffffffffffffffffffffffffffffffffffffff1661279e84610ccd565b73ffffffffffffffffffffffffffffffffffffffff16145b91505092915050565b8273ffffffffffffffffffffffffffffffffffffffff166127df826113e2565b73ffffffffffffffffffffffffffffffffffffffff1614612835576040517f08c379a000000000000000000000000000000000000000000000000000000000815260040161282c906143e9565b60405180910390fd5b600073ffffffffffffffffffffffffffffffffffffffff168273ffffffffffffffffffffffffffffffffffffffff1614156128a5576040517f08c379a000000000000000000000000000000000000000000000000000000000815260040161289c90614429565b60405180910390fd5b6128b0838383613116565b6128bb6000826125f7565b6001600360008573ffffffffffffffffffffffffffffffffffffffff1673ffffffffffffffffffffffffffffffffffffffff168152602001908152602001600020600082825461290b9190614839565b925050819055506001600360008473ffffffffffffffffffffffffffffffffffffffff1673ffffffffffffffffffffffffffffffffffffffff168152602001908152602001600020600082825461296291906147b2565b92505081905550816002600083815260200190815260200160002060006101000a81548173ffffffffffffffffffffffffffffffffffffffff021916908373ffffffffffffffffffffffffffffffffffffffff160217905550808273ffffffffffffffffffffffffffffffffffffffff168473ffffffffffffffffffffffffffffffffffffffff167fddf252ad1be2c89b69c2b068fc378daa952ba7f163c4a11628f55a4df523b3ef60405160405180910390a4612a2183838361311b565b505050565b612a2e6125ef565b73ffffffffffffffffffffffffffffffffffffffff16612a4c611676565b73ffffffffffffffffffffffffffffffffffffffff1614612aa2576040517f08c379a0000000000000000000000000000000000000000000000000000000008152600401612a99906144e9565b60405180910390fd5b565b6000600660009054906101000a900473ffffffffffffffffffffffffffffffffffffffff16905081600660006101000a81548173ffffffffffffffffffffffffffffffffffffffff021916908373ffffffffffffffffffffffffffffffffffffffff1602179055508173ffffffffffffffffffffffffffffffffffffffff168173ffffffffffffffffffffffffffffffffffffffff167f8be0079c531659141344cd1fd0a4f28419497f9722a3daafe3b4186f6b6457e060405160405180910390a35050565b8173ffffffffffffffffffffffffffffffffffffffff168373ffffffffffffffffffffffffffffffffffffffff161415612bd9576040517f08c379a0000000000000000000000000000000000000000000000000000000008152600401612bd090614449565b60405180910390fd5b80600560008573ffffffffffffffffffffffffffffffffffffffff1673ffffffffffffffffffffffffffffffffffffffff16815260200190815260200160002060008473ffffffffffffffffffffffffffffffffffffffff1673ffffffffffffffffffffffffffffffffffffffff16815260200190815260200160002060006101000a81548160ff0219169083151502179055508173ffffffffffffffffffffffffffffffffffffffff168373ffffffffffffffffffffffffffffffffffffffff167f17307eab39ab6107e8899845ad3d59bd9653f200f220920489ca2b5937696c3183604051612cca919061436c565b60405180910390a3505050565b6001816000016000828254019250508190555050565b600073ffffffffffffffffffffffffffffffffffffffff168273ffffffffffffffffffffffffffffffffffffffff161415612d5d576040517f08c379a0000000000000000000000000000000000000000000000000000000008152600401612d54906144c9565b60405180910390fd5b612d66816126be565b15612da6576040517f08c379a0000000000000000000000000000000000000000000000000000000008152600401612d9d90614409565b60405180910390fd5b612db260008383613116565b6001600360008473ffffffffffffffffffffffffffffffffffffffff1673ffffffffffffffffffffffffffffffffffffffff1681526020019081526020016000206000828254612e0291906147b2565b92505081905550816002600083815260200190815260200160002060006101000a81548173ffffffffffffffffffffffffffffffffffffffff021916908373ffffffffffffffffffffffffffffffffffffffff160217905550808273ffffffffffffffffffffffffffffffffffffffff16600073ffffffffffffffffffffffffffffffffffffffff167fddf252ad1be2c89b69c2b068fc378daa952ba7f163c4a11628f55a4df523b3ef60405160405180910390a4612ec36000838361311b565b5050565b612ed28484846127bf565b612ede84848484613120565b612f1d576040517f08c379a0000000000000000000000000000000000000000000000000000000008152600401612f14906143a9565b60405180910390fd5b50505050565b6060600b8054612f3290614944565b80601f0160208091040260200160405190810160405280929190818152602001828054612f5e90614944565b8015612fab5780601f10612f8057610100808354040283529160200191612fab565b820191906000526020600020905b815481529060010190602001808311612f8e57829003601f168201915b5050505050905090565b60606000821415612ffd576040518060400160405280600181526020017f30000000000000000000000000000000000000000000000000000000000000008152509050613111565b600082905060005b6000821461302f578080613018906149a7565b915050600a826130289190614808565b9150613005565b60008167ffffffffffffffff81111561304b5761304a614add565b5b6040519080825280601f01601f19166020018201604052801561307d5781602001600182028036833780820191505090505b5090505b6000851461310a576001826130969190614839565b9150600a856130a591906149f0565b60306130b191906147b2565b60f81b8183815181106130c7576130c6614aae565b5b60200101907effffffffffffffffffffffffffffffffffffffffffffffffffffffffffffff1916908160001a905350600a856131039190614808565b9450613081565b8093505050505b919050565b505050565b505050565b60006131418473ffffffffffffffffffffffffffffffffffffffff166132b7565b156132aa578373ffffffffffffffffffffffffffffffffffffffff1663150b7a0261316a6125ef565b8786866040518563ffffffff1660e01b815260040161318c94939291906142dc565b602060405180830381600087803b1580156131a657600080fd5b505af19250505080156131d757506040513d601f19601f820116820180604052508101906131d491906139c9565b60015b61325a573d8060008114613207576040519150601f19603f3d011682016040523d82523d6000602084013e61320c565b606091505b50600081511415613252576040517f08c379a0000000000000000000000000000000000000000000000000000000008152600401613249906143a9565b60405180910390fd5b805181602001fd5b63150b7a0260e01b7bffffffffffffffffffffffffffffffffffffffffffffffffffffffff1916817bffffffffffffffffffffffffffffffffffffffffffffffffffffffff1916149150506132af565b600190505b949350505050565b6000808273ffffffffffffffffffffffffffffffffffffffff163b119050919050565b6040518060c0016040528060008152602001600081526020016060815260200160608152602001600015158152602001606081525090565b82805461331e90614944565b90600052602060002090601f0160209004810192826133405760008555613387565b82601f1061335957805160ff1916838001178555613387565b82800160010185558215613387579182015b8281111561338657825182559160200191906001019061336b565b5b5090506133949190613423565b5090565b8280548282559060005260206000209081019282156133d4579160200282015b828111156133d35782518255916020019190600101906133b8565b5b5090506133e19190613423565b5090565b604051806080016040528060608152602001600073ffffffffffffffffffffffffffffffffffffffff16815260200160008152602001600081525090565b5b8082111561343c576000816000905550600101613424565b5090565b600061345361344e8461464d565b614628565b9050808382526020820190508285602086028201111561347657613475614b1b565b5b60005b858110156134a6578161348c8882613711565b845260208401935060208301925050600181019050613479565b5050509392505050565b60006134c36134be84614679565b614628565b9050828152602081018484840111156134df576134de614b20565b5b6134ea848285614902565b509392505050565b6000613505613500846146aa565b614628565b90508281526020810184848401111561352157613520614b20565b5b61352c848285614902565b509392505050565b60008135905061354381614f9b565b61354c8161486d565b905092915050565b600082601f83011261356957613568614b0c565b5b8135613579848260208601613440565b91505092915050565b60008135905061359181614fb2565b92915050565b6000813590506135a681614fc9565b92915050565b6000815190506135bb81614fc9565b92915050565b600082601f8301126135d6576135d5614b0c565b5b81356135e68482602086016134b0565b91505092915050565b600082601f83011261360457613603614b0c565b5b81356136148482602086016134f2565b91505092915050565b600060c0828403121561363357613632614b11565b5b61363d60c0614628565b9050600061364d84828501613711565b600083015250602061366184828501613711565b602083015250604082013567ffffffffffffffff81111561368557613684614b16565b5b613691848285016135ef565b604083015250606082013567ffffffffffffffff8111156136b5576136b4614b16565b5b6136c1848285016135ef565b60608301525060806136d584828501613582565b60808301525060a082013567ffffffffffffffff8111156136f9576136f8614b16565b5b61370584828501613554565b60a08301525092915050565b60008135905061372081614fe0565b92915050565b60006020828403121561373c5761373b614b2a565b5b600061374a84828501613534565b91505092915050565b6000806040838503121561376a57613769614b2a565b5b600061377885828601613534565b925050602061378985828601613534565b9150509250929050565b6000806000606084860312156137ac576137ab614b2a565b5b60006137ba86828701613534565b93505060206137cb86828701613534565b92505060406137dc86828701613711565b9150509250925092565b60008060008060808587031215613800576137ff614b2a565b5b600061380e87828801613534565b945050602061381f87828801613534565b935050604061383087828801613711565b925050606085013567ffffffffffffffff81111561385157613850614b25565b5b61385d878288016135c1565b91505092959194509250565b600080604083850312156138805761387f614b2a565b5b600061388e85828601613534565b925050602061389f85828601613582565b9150509250929050565b600080600080600060a086880312156138c5576138c4614b2a565b5b60006138d388828901613534565b955050602086013567ffffffffffffffff8111156138f4576138f3614b25565b5b613900888289016135ef565b945050604086013567ffffffffffffffff81111561392157613920614b25565b5b61392d888289016135ef565b935050606061393e88828901613711565b925050608061394f88828901613582565b9150509295509295909350565b6000806040838503121561397357613972614b2a565b5b600061398185828601613534565b925050602061399285828601613711565b9150509250929050565b6000602082840312156139b2576139b1614b2a565b5b60006139c084828501613597565b91505092915050565b6000602082840312156139df576139de614b2a565b5b60006139ed848285016135ac565b91505092915050565b600060208284031215613a0c57613a0b614b2a565b5b600082013567ffffffffffffffff811115613a2a57613a29614b25565b5b613a36848285016135ef565b91505092915050565b600060208284031215613a5557613a54614b2a565b5b6000613a6384828501613711565b91505092915050565b600080600060608486031215613a8557613a84614b2a565b5b6000613a9386828701613711565b9350506020613aa486828701613582565b9250506040613ab586828701613711565b9150509250925092565b60008060408385031215613ad657613ad5614b2a565b5b6000613ae485828601613711565b925050602083013567ffffffffffffffff811115613b0557613b04614b25565b5b613b11858286016135ef565b9150509250929050565b600080600060608486031215613b3457613b33614b2a565b5b6000613b4286828701613711565b935050602084013567ffffffffffffffff811115613b6357613b62614b25565b5b613b6f868287016135ef565b9250506040613b8086828701613534565b9150509250925092565b60008060408385031215613ba157613ba0614b2a565b5b6000613baf85828601613711565b925050602083013567ffffffffffffffff811115613bd057613bcf614b25565b5b613bdc8582860161361d565b9150509250929050565b60008060408385031215613bfd57613bfc614b2a565b5b6000613c0b85828601613711565b9250506020613c1c85828601613711565b9150509250929050565b6000613c328383614151565b905092915050565b6000613c46838361427f565b60208301905092915050565b613c5b8161486d565b82525050565b613c6a8161486d565b82525050565b6000613c7b826146fb565b613c858185614741565b935083602082028501613c97856146db565b8060005b85811015613cd35784840389528151613cb48582613c26565b9450613cbf83614727565b925060208a01995050600181019050613c9b565b50829750879550505050505092915050565b6000613cf082614706565b613cfa8185614752565b9350613d05836146eb565b8060005b83811015613d36578151613d1d8882613c3a565b9750613d2883614734565b925050600181019050613d09565b5085935050505092915050565b6000613d4e82614706565b613d588185614763565b9350613d63836146eb565b8060005b83811015613d94578151613d7b8882613c3a565b9750613d8683614734565b925050600181019050613d67565b5085935050505092915050565b613daa8161487f565b82525050565b613db98161487f565b82525050565b6000613dca82614711565b613dd48185614774565b9350613de4818560208601614911565b613ded81614b2f565b840191505092915050565b6000613e038261471c565b613e0d8185614785565b9350613e1d818560208601614911565b613e2681614b2f565b840191505092915050565b6000613e3c8261471c565b613e468185614796565b9350613e56818560208601614911565b613e5f81614b2f565b840191505092915050565b6000613e758261471c565b613e7f81856147a7565b9350613e8f818560208601614911565b80840191505092915050565b6000613ea8603283614796565b9150613eb382614b40565b604082019050919050565b6000613ecb602683614796565b9150613ed682614b8f565b604082019050919050565b6000613eee602583614796565b9150613ef982614bde565b604082019050919050565b6000613f11601c83614796565b9150613f1c82614c2d565b602082019050919050565b6000613f34602483614796565b9150613f3f82614c56565b604082019050919050565b6000613f57601983614796565b9150613f6282614ca5565b602082019050919050565b6000613f7a602983614796565b9150613f8582614cce565b604082019050919050565b6000613f9d603183614796565b9150613fa882614d1d565b604082019050919050565b6000613fc0603e83614796565b9150613fcb82614d6c565b604082019050919050565b6000613fe3602083614796565b9150613fee82614dbb565b602082019050919050565b6000614006602083614796565b915061401182614de4565b602082019050919050565b6000614029602e83614796565b915061403482614e0d565b604082019050919050565b600061404c601883614796565b915061405782614e5c565b602082019050919050565b600061406f602183614796565b915061407a82614e85565b604082019050919050565b6000614092602d83614796565b915061409d82614ed4565b604082019050919050565b60006140b5602e83614796565b91506140c082614f23565b604082019050919050565b60006140d8601f83614796565b91506140e382614f72565b602082019050919050565b6000608083016000830151848203600086015261410b8282613df8565b91505060208301516141206020860182613c52565b506040830151614133604086018261427f565b506060830151614146606086018261427f565b508091505092915050565b600060c083016000830151614169600086018261427f565b50602083015161417c602086018261427f565b50604083015184820360408601526141948282613df8565b915050606083015184820360608601526141ae8282613df8565b91505060808301516141c36080860182613da1565b5060a083015184820360a08601526141db8282613ce5565b9150508091505092915050565b600060c083016000830151614200600086018261427f565b506020830151614213602086018261427f565b506040830151848203604086015261422b8282613df8565b915050606083015184820360608601526142458282613df8565b915050608083015161425a6080860182613da1565b5060a083015184820360a08601526142728282613ce5565b9150508091505092915050565b614288816148f8565b82525050565b614297816148f8565b82525050565b60006142a98285613e6a565b91506142b58284613e6a565b91508190509392505050565b60006020820190506142d66000830184613c61565b92915050565b60006080820190506142f16000830187613c61565b6142fe6020830186613c61565b61430b604083018561428e565b818103606083015261431d8184613dbf565b905095945050505050565b600060208201905081810360008301526143428184613c70565b905092915050565b600060208201905081810360008301526143648184613d43565b905092915050565b60006020820190506143816000830184613db0565b92915050565b600060208201905081810360008301526143a18184613e31565b905092915050565b600060208201905081810360008301526143c281613e9b565b9050919050565b600060208201905081810360008301526143e281613ebe565b9050919050565b6000602082019050818103600083015261440281613ee1565b9050919050565b6000602082019050818103600083015261442281613f04565b9050919050565b6000602082019050818103600083015261444281613f27565b9050919050565b6000602082019050818103600083015261446281613f4a565b9050919050565b6000602082019050818103600083015261448281613f6d565b9050919050565b600060208201905081810360008301526144a281613f90565b9050919050565b600060208201905081810360008301526144c281613fb3565b9050919050565b600060208201905081810360008301526144e281613fd6565b9050919050565b6000602082019050818103600083015261450281613ff9565b9050919050565b600060208201905081810360008301526145228161401c565b9050919050565b600060208201905081810360008301526145428161403f565b9050919050565b6000602082019050818103600083015261456281614062565b9050919050565b6000602082019050818103600083015261458281614085565b9050919050565b600060208201905081810360008301526145a2816140a8565b9050919050565b600060208201905081810360008301526145c2816140cb565b9050919050565b600060208201905081810360008301526145e381846140ee565b905092915050565b6000602082019050818103600083015261460581846141e8565b905092915050565b6000602082019050614622600083018461428e565b92915050565b6000614632614643565b905061463e8282614976565b919050565b6000604051905090565b600067ffffffffffffffff82111561466857614667614add565b5b602082029050602081019050919050565b600067ffffffffffffffff82111561469457614693614add565b5b61469d82614b2f565b9050602081019050919050565b600067ffffffffffffffff8211156146c5576146c4614add565b5b6146ce82614b2f565b9050602081019050919050565b6000819050602082019050919050565b6000819050602082019050919050565b600081519050919050565b600081519050919050565b600081519050919050565b600081519050919050565b6000602082019050919050565b6000602082019050919050565b600082825260208201905092915050565b600082825260208201905092915050565b600082825260208201905092915050565b600082825260208201905092915050565b600082825260208201905092915050565b600082825260208201905092915050565b600081905092915050565b60006147bd826148f8565b91506147c8836148f8565b9250827fffffffffffffffffffffffffffffffffffffffffffffffffffffffffffffffff038211156147fd576147fc614a21565b5b828201905092915050565b6000614813826148f8565b915061481e836148f8565b92508261482e5761482d614a50565b5b828204905092915050565b6000614844826148f8565b915061484f836148f8565b92508282101561486257614861614a21565b5b828203905092915050565b6000614878826148b7565b9050919050565b60008115159050919050565b60007fffffffff0000000000000000000000000000000000000000000000000000000082169050919050565b600073ffffffffffffffffffffffffffffffffffffffff82169050919050565b600074ffffffffffffffffffffffffffffffffffffffffff82169050919050565b6000819050919050565b82818337600083830152505050565b60005b8381101561492f578082015181840152602081019050614914565b8381111561493e576000848401525b50505050565b6000600282049050600182168061495c57607f821691505b602082108114156149705761496f614a7f565b5b50919050565b61497f82614b2f565b810181811067ffffffffffffffff8211171561499e5761499d614add565b5b80604052505050565b60006149b2826148f8565b91507fffffffffffffffffffffffffffffffffffffffffffffffffffffffffffffffff8214156149e5576149e4614a21565b5b600182019050919050565b60006149fb826148f8565b9150614a06836148f8565b925082614a1657614a15614a50565b5b828206905092915050565b7f4e487b7100000000000000000000000000000000000000000000000000000000600052601160045260246000fd5b7f4e487b7100000000000000000000000000000000000000000000000000000000600052601260045260246000fd5b7f4e487b7100000000000000000000000000000000000000000000000000000000600052602260045260246000fd5b7f4e487b7100000000000000000000000000000000000000000000000000000000600052603260045260246000fd5b7f4e487b7100000000000000000000000000000000000000000000000000000000600052604160045260246000fd5b600080fd5b600080fd5b600080fd5b600080fd5b600080fd5b600080fd5b600080fd5b6000601f19601f8301169050919050565b7f4552433732313a207472616e7366657220746f206e6f6e20455243373231526560008201527f63656976657220696d706c656d656e7465720000000000000000000000000000602082015250565b7f4f776e61626c653a206e6577206f776e657220697320746865207a65726f206160008201527f6464726573730000000000000000000000000000000000000000000000000000602082015250565b7f4552433732313a207472616e736665722066726f6d20696e636f72726563742060008201527f6f776e6572000000000000000000000000000000000000000000000000000000602082015250565b7f4552433732313a20746f6b656e20616c7265616479206d696e74656400000000600082015250565b7f4552433732313a207472616e7366657220746f20746865207a65726f2061646460008201527f7265737300000000000000000000000000000000000000000000000000000000602082015250565b7f4552433732313a20617070726f766520746f2063616c6c657200000000000000600082015250565b7f4552433732313a2061646472657373207a65726f206973206e6f74206120766160008201527f6c6964206f776e65720000000000000000000000000000000000000000000000602082015250565b7f4552433732314d657461646174613a20507269636520717565727920666f722060008201527f6e6f6e6578697374656e7420746f6b656e000000000000000000000000000000602082015250565b7f4552433732313a20617070726f76652063616c6c6572206973206e6f7420746f60008201527f6b656e206f776e6572206e6f7220617070726f76656420666f7220616c6c0000602082015250565b7f4552433732313a206d696e7420746f20746865207a65726f2061646472657373600082015250565b7f4f776e61626c653a2063616c6c6572206973206e6f7420746865206f776e6572600082015250565b7f4552433732314d657461646174613a20507269636520736574206f66206e6f6e60008201527f6578697374656e7420746f6b656e000000000000000000000000000000000000602082015250565b7f4552433732313a20696e76616c696420746f6b656e2049440000000000000000600082015250565b7f4552433732313a20617070726f76616c20746f2063757272656e74206f776e6560008201527f7200000000000000000000000000000000000000000000000000000000000000602082015250565b7f4552433732314d657461646174613a2053616c6520736574206f66206e6f6e6560008201527f78697374656e7420746f6b656e00000000000000000000000000000000000000602082015250565b7f4552433732313a2063616c6c6572206973206e6f7420746f6b656e206f776e6560008201527f72206e6f7220617070726f766564000000000000000000000000000000000000602082015250565b7f5265656e7472616e637947756172643a207265656e7472616e742063616c6c00600082015250565b614fa4816148d7565b8114614faf57600080fd5b50565b614fbb8161487f565b8114614fc657600080fd5b50565b614fd28161488b565b8114614fdd57600080fd5b50565b614fe9816148f8565b8114614ff457600080fd5b5056fea26474726f6e582212203e665c25087f1076d8f99aee126c56c35517a61ed8f5c0767db07a447a08e9ea64736f6c63430008060033",
  "source": "// SPDX-License-Identifier: MIT\npragma solidity >=0.8.4;\npragma experimental ABIEncoderV2;\n\nimport '@openzeppelin/contracts/token/ERC721/ERC721.sol';\nimport '@openzeppelin/contracts/access/Ownable.sol';\nimport '@openzeppelin/contracts/security/ReentrancyGuard.sol';\nimport '@openzeppelin/contracts/utils/Counters.sol';\n\ncontract Coopart is ERC721, Ownable, ReentrancyGuard {\n    using Counters for Counters.Counter;\n    Counters.Counter private _tokenIds;\n    mapping(uint256 => TokenMeta) private _tokenMeta;\n    mapping(uint256 => address) private _creators;\n\n    string baseURI;\n\n    Counters.Counter layerCount;\n    mapping(uint256 => Layer) private layers;\n    struct Layer {\n        string imageUri;\n        address author;\n        uint256 upVotes;\n        uint256 downVotes;\n    }\n\n    struct TokenMeta {\n        uint256 id;\n        uint256 price;\n        string name;\n        string uri;\n        bool isOnSale;\n        uint256[] layerIds;\n    }\n\n    constructor() ERC721('Coop.art', 'COOPART') {}\n\n    function _baseURI() internal view virtual override returns (string memory) {\n        return baseURI;\n    }\n\n    function setBaseURI(string memory _newBaseURI) public virtual onlyOwner {\n        baseURI = _newBaseURI;\n    }\n\n    function getAllOnSale() public view virtual returns (TokenMeta[] memory) {\n        TokenMeta[] memory tokensOnSale = new TokenMeta[](_tokenIds.current());\n        uint256 counter = 0;\n        for (uint256 i = 1; i < _tokenIds.current() + 1; i++) {\n            if (_tokenMeta[i].isOnSale == true) {\n                tokensOnSale[counter] = _tokenMeta[i];\n                counter++;\n            }\n        }\n        return tokensOnSale;\n    }\n\n    function setTokenSale(\n        uint256 _tokenId,\n        bool _isOnSale,\n        uint256 _price\n    ) public {\n        require(_exists(_tokenId), 'ERC721Metadata: Sale set of nonexistent token');\n        require(_price > 0);\n        require(ownerOf(_tokenId) == _msgSender());\n        _tokenMeta[_tokenId].isOnSale = _isOnSale;\n        setTokenPrice(_tokenId, _price);\n    }\n\n    function setTokenPrice(uint256 _tokenId, uint256 _price) public {\n        require(_exists(_tokenId), 'ERC721Metadata: Price set of nonexistent token');\n        require(ownerOf(_tokenId) == _msgSender());\n        _tokenMeta[_tokenId].price = _price;\n    }\n\n    function tokenPrice(uint256 tokenId) public view virtual returns (uint256) {\n        require(_exists(tokenId), 'ERC721Metadata: Price query for nonexistent token');\n        return _tokenMeta[tokenId].price;\n    }\n\n    function setTokenMeta(uint256 _tokenId, TokenMeta memory _meta) public {\n        require(_exists(_tokenId));\n        require(ownerOf(_tokenId) == _msgSender());\n        _tokenMeta[_tokenId] = _meta;\n    }\n\n    function updateTokenMetaUri(uint256 _tokenId, string memory _uri) public {\n        require(_exists(_tokenId));\n        require(ownerOf(_tokenId) == _msgSender());\n        _tokenMeta[_tokenId].uri = _uri;\n    }\n\n    function tokenMeta(uint256 _tokenId) public view returns (TokenMeta memory) {\n        require(_exists(_tokenId));\n        return _tokenMeta[_tokenId];\n    }\n\n    function purchaseToken(uint256 _tokenId) public payable nonReentrant {\n        require(msg.sender != address(0) && msg.sender != ownerOf(_tokenId));\n        require(msg.value >= _tokenMeta[_tokenId].price);\n        address tokenSeller = ownerOf(_tokenId);\n        payable(tokenSeller).transfer(msg.value);\n        setApprovalForAll(tokenSeller, true);\n        _transfer(tokenSeller, msg.sender, _tokenId);\n        _tokenMeta[_tokenId].isOnSale = false;\n    }\n\n    function upVote(uint256 layerId) public {\n        layers[layerId].upVotes += 1;\n    }\n\n    function downVote(uint256 layerId) public {\n        layers[layerId].downVotes += 1;\n    }\n\n    function getLayer(uint256 layerId) public view returns (Layer memory) {\n        return (layers[layerId]);\n    }\n\n    function addLayer(\n        uint256 _canvasId,\n        string memory _imageUri,\n        address _author\n    ) public returns (uint256) {\n        layerCount.increment();\n        uint256 newLayerId = layerCount.current();\n        layers[newLayerId] = Layer(_imageUri, _author, 0, 0);\n        // _tokenMeta[_canvasId].push(newLayerId);\n        TokenMeta storage meta = _tokenMeta[_canvasId];\n        meta.layerIds.push(newLayerId);\n        setTokenMeta(_canvasId, meta);\n        return newLayerId;\n    }\n\n    function mintCanvas(\n        address _owner,\n        string memory _tokenURI,\n        string memory _name,\n        uint256 _price,\n        bool _isOnSale\n    ) public returns (uint256) {\n        require(_price > 0);\n        _tokenIds.increment();\n        uint256 newItemId = _tokenIds.current();\n        _mint(_owner, newItemId);\n        _creators[newItemId] = msg.sender;\n        uint256[] memory layersIds;\n        TokenMeta memory meta = TokenMeta(newItemId, _price, _name, _tokenURI, _isOnSale, layersIds);\n        setTokenMeta(newItemId, meta);\n        return newItemId;\n    }\n\n    function getTokensOwnedByMe() public view returns (uint256[] memory) {\n        uint256 numberOfExistingTokens = _tokenIds.current();\n        uint256 numberOfTokensOwned = balanceOf(msg.sender);\n        uint256[] memory ownedTokenIds = new uint256[](numberOfTokensOwned);\n\n        uint256 currentIndex = 0;\n        for (uint256 i = 0; i < numberOfExistingTokens; i++) {\n            uint256 tokenId = i + 1;\n            if (ownerOf(tokenId) != msg.sender) continue;\n            ownedTokenIds[currentIndex] = tokenId;\n            currentIndex += 1;\n        }\n\n        return ownedTokenIds;\n    }\n\n    function getTokenCreatorById(uint256 tokenId) public view returns (address) {\n        return _creators[tokenId];\n    }\n\n    function getTokensCreatedByMe() public view returns (uint256[] memory) {\n        uint256 numberOfExistingTokens = _tokenIds.current();\n        uint256 numberOfTokensCreated = 0;\n\n        for (uint256 i = 0; i < numberOfExistingTokens; i++) {\n            uint256 tokenId = i + 1;\n            if (_creators[tokenId] != msg.sender) continue;\n            numberOfTokensCreated += 1;\n        }\n\n        uint256[] memory createdTokenIds = new uint256[](numberOfTokensCreated);\n        uint256 currentIndex = 0;\n        for (uint256 i = 0; i < numberOfExistingTokens; i++) {\n            uint256 tokenId = i + 1;\n            if (_creators[tokenId] != msg.sender) continue;\n            createdTokenIds[currentIndex] = tokenId;\n            currentIndex += 1;\n        }\n\n        return createdTokenIds;\n    }\n}\n",
  "sourcePath": "/Users/lol/apps/fun/coop.art/src/contracts/contracts/Coopart.sol",
  "compiler": {
    "name": "solc",
    "version": "0.8.6+commit.0e36fba0.mod.Emscripten.clang"
  },
  "schemaVersion": "2.0.1",
  "updatedAt": "2022-11-08T21:35:01.478Z"
}