{
  "contractName": "CoopartShips",
  "abi": [
    {
      "inputs": [],
      "stateMutability": "nonpayable",
      "type": "constructor"
    },
    {
      "anonymous": false,
      "inputs": [
        {
          "indexed": true,
          "internalType": "address",
          "name": "owner",
          "type": "address"
        },
        {
          "indexed": true,
          "internalType": "address",
          "name": "approved",
          "type": "address"
        },
        {
          "indexed": true,
          "internalType": "uint256",
          "name": "tokenId",
          "type": "uint256"
        }
      ],
      "name": "Approval",
      "type": "event"
    },
    {
      "anonymous": false,
      "inputs": [
        {
          "indexed": true,
          "internalType": "address",
          "name": "owner",
          "type": "address"
        },
        {
          "indexed": true,
          "internalType": "address",
          "name": "operator",
          "type": "address"
        },
        {
          "indexed": false,
          "internalType": "bool",
          "name": "approved",
          "type": "bool"
        }
      ],
      "name": "ApprovalForAll",
      "type": "event"
    },
    {
      "anonymous": false,
      "inputs": [
        {
          "indexed": true,
          "internalType": "address",
          "name": "from",
          "type": "address"
        },
        {
          "indexed": true,
          "internalType": "address",
          "name": "to",
          "type": "address"
        },
        {
          "indexed": true,
          "internalType": "uint256",
          "name": "tokenId",
          "type": "uint256"
        }
      ],
      "name": "Transfer",
      "type": "event"
    },
    {
      "inputs": [
        {
          "internalType": "address",
          "name": "",
          "type": "address"
        },
        {
          "internalType": "uint256",
          "name": "",
          "type": "uint256"
        }
      ],
      "name": "_ownedTokens",
      "outputs": [
        {
          "internalType": "uint256",
          "name": "",
          "type": "uint256"
        }
      ],
      "stateMutability": "view",
      "type": "function"
    },
    {
      "inputs": [
        {
          "internalType": "uint256",
          "name": "",
          "type": "uint256"
        }
      ],
      "name": "_tokenToShipCode",
      "outputs": [
        {
          "internalType": "string",
          "name": "",
          "type": "string"
        }
      ],
      "stateMutability": "view",
      "type": "function"
    },
    {
      "inputs": [
        {
          "internalType": "address",
          "name": "to",
          "type": "address"
        },
        {
          "internalType": "uint256",
          "name": "tokenId",
          "type": "uint256"
        }
      ],
      "name": "approve",
      "outputs": [],
      "stateMutability": "nonpayable",
      "type": "function"
    },
    {
      "inputs": [
        {
          "internalType": "address",
          "name": "owner",
          "type": "address"
        }
      ],
      "name": "balanceOf",
      "outputs": [
        {
          "internalType": "uint256",
          "name": "",
          "type": "uint256"
        }
      ],
      "stateMutability": "view",
      "type": "function"
    },
    {
      "inputs": [
        {
          "internalType": "uint256",
          "name": "tokenId",
          "type": "uint256"
        }
      ],
      "name": "getApproved",
      "outputs": [
        {
          "internalType": "address",
          "name": "",
          "type": "address"
        }
      ],
      "stateMutability": "view",
      "type": "function"
    },
    {
      "inputs": [
        {
          "internalType": "address",
          "name": "owner",
          "type": "address"
        },
        {
          "internalType": "address",
          "name": "operator",
          "type": "address"
        }
      ],
      "name": "isApprovedForAll",
      "outputs": [
        {
          "internalType": "bool",
          "name": "",
          "type": "bool"
        }
      ],
      "stateMutability": "view",
      "type": "function"
    },
    {
      "inputs": [
        {
          "internalType": "address",
          "name": "owner",
          "type": "address"
        }
      ],
      "name": "mintShip",
      "outputs": [
        {
          "internalType": "uint256",
          "name": "",
          "type": "uint256"
        }
      ],
      "stateMutability": "nonpayable",
      "type": "function"
    },
    {
      "inputs": [],
      "name": "name",
      "outputs": [
        {
          "internalType": "string",
          "name": "",
          "type": "string"
        }
      ],
      "stateMutability": "view",
      "type": "function"
    },
    {
      "inputs": [
        {
          "internalType": "uint256",
          "name": "tokenId",
          "type": "uint256"
        }
      ],
      "name": "ownerOf",
      "outputs": [
        {
          "internalType": "address",
          "name": "",
          "type": "address"
        }
      ],
      "stateMutability": "view",
      "type": "function"
    },
    {
      "inputs": [
        {
          "internalType": "address",
          "name": "from",
          "type": "address"
        },
        {
          "internalType": "address",
          "name": "to",
          "type": "address"
        },
        {
          "internalType": "uint256",
          "name": "tokenId",
          "type": "uint256"
        }
      ],
      "name": "safeTransferFrom",
      "outputs": [],
      "stateMutability": "nonpayable",
      "type": "function"
    },
    {
      "inputs": [
        {
          "internalType": "address",
          "name": "from",
          "type": "address"
        },
        {
          "internalType": "address",
          "name": "to",
          "type": "address"
        },
        {
          "internalType": "uint256",
          "name": "tokenId",
          "type": "uint256"
        },
        {
          "internalType": "bytes",
          "name": "data",
          "type": "bytes"
        }
      ],
      "name": "safeTransferFrom",
      "outputs": [],
      "stateMutability": "nonpayable",
      "type": "function"
    },
    {
      "inputs": [
        {
          "internalType": "address",
          "name": "operator",
          "type": "address"
        },
        {
          "internalType": "bool",
          "name": "approved",
          "type": "bool"
        }
      ],
      "name": "setApprovalForAll",
      "outputs": [],
      "stateMutability": "nonpayable",
      "type": "function"
    },
    {
      "inputs": [
        {
          "internalType": "bytes4",
          "name": "interfaceId",
          "type": "bytes4"
        }
      ],
      "name": "supportsInterface",
      "outputs": [
        {
          "internalType": "bool",
          "name": "",
          "type": "bool"
        }
      ],
      "stateMutability": "view",
      "type": "function"
    },
    {
      "inputs": [],
      "name": "symbol",
      "outputs": [
        {
          "internalType": "string",
          "name": "",
          "type": "string"
        }
      ],
      "stateMutability": "view",
      "type": "function"
    },
    {
      "inputs": [
        {
          "internalType": "address",
          "name": "owner",
          "type": "address"
        },
        {
          "internalType": "uint256",
          "name": "index",
          "type": "uint256"
        }
      ],
      "name": "tokenOfOwnerByIndex",
      "outputs": [
        {
          "internalType": "uint256",
          "name": "",
          "type": "uint256"
        }
      ],
      "stateMutability": "view",
      "type": "function"
    },
    {
      "inputs": [
        {
          "internalType": "uint256",
          "name": "tokenId",
          "type": "uint256"
        }
      ],
      "name": "tokenURI",
      "outputs": [
        {
          "internalType": "string",
          "name": "",
          "type": "string"
        }
      ],
      "stateMutability": "view",
      "type": "function"
    },
    {
      "inputs": [
        {
          "internalType": "address",
          "name": "from",
          "type": "address"
        },
        {
          "internalType": "address",
          "name": "to",
          "type": "address"
        },
        {
          "internalType": "uint256",
          "name": "tokenId",
          "type": "uint256"
        }
      ],
      "name": "transferFrom",
      "outputs": [],
      "stateMutability": "nonpayable",
      "type": "function"
    },
    {
      "inputs": [
        {
          "internalType": "uint256",
          "name": "tokenId",
          "type": "uint256"
        },
        {
          "internalType": "string",
          "name": "shipCode",
          "type": "string"
        }
      ],
      "name": "upgradeShip",
      "outputs": [],
      "stateMutability": "nonpayable",
      "type": "function"
    }
  ],
  "bytecode": "0x60806040523480156200001157600080fd5b50d380156200001f57600080fd5b50d280156200002d57600080fd5b506040518060400160405280600c81526020017f436f6f70617274536869707300000000000000000000000000000000000000008152506040518060400160405280600381526020017f42414c00000000000000000000000000000000000000000000000000000000008152508160009080519060200190620000b2929190620000d4565b508060019080519060200190620000cb929190620000d4565b505050620001e9565b828054620000e29062000184565b90600052602060002090601f01602090048101928262000106576000855562000152565b82601f106200012157805160ff191683800117855562000152565b8280016001018555821562000152579182015b828111156200015157825182559160200191906001019062000134565b5b50905062000161919062000165565b5090565b5b808211156200018057600081600090555060010162000166565b5090565b600060028204905060018216806200019d57607f821691505b60208210811415620001b457620001b3620001ba565b5b50919050565b7f4e487b7100000000000000000000000000000000000000000000000000000000600052602260045260246000fd5b612de680620001f96000396000f3fe608060405234801561001057600080fd5b50d3801561001d57600080fd5b50d2801561002a57600080fd5b50600436106101305760003560e01c80637079db60116100bc578063a22cb4651161008b578063a22cb46514610331578063a23a501d1461034d578063b88d4fde1461037d578063c87b56dd14610399578063e985e9c5146103c957610130565b80637079db601461029757806370a08231146102b357806395d89b41146102e35780639f5ff0b21461030157610130565b806323b872dd1161010357806323b872dd146101cf5780632f745c59146101eb57806342842e0e1461021b5780634f3c5f06146102375780636352211e1461026757610130565b806301ffc9a71461013557806306fdde0314610165578063081812fc14610183578063095ea7b3146101b3575b600080fd5b61014f600480360381019061014a9190611ef9565b6103f9565b60405161015c919061239c565b60405180910390f35b61016d6104db565b60405161017a91906123b7565b60405180910390f35b61019d60048036038101906101989190611f53565b61056d565b6040516101aa9190612335565b60405180910390f35b6101cd60048036038101906101c89190611eb9565b6105b3565b005b6101e960048036038101906101e49190611da3565b6106cb565b005b61020560048036038101906102009190611eb9565b61072b565b6040516102129190612559565b60405180910390f35b61023560048036038101906102309190611da3565b610786565b005b610251600480360381019061024c9190611eb9565b6107a6565b60405161025e9190612559565b60405180910390f35b610281600480360381019061027c9190611f53565b6107cb565b60405161028e9190612335565b60405180910390f35b6102b160048036038101906102ac9190611f80565b61087d565b005b6102cd60048036038101906102c89190611d36565b6108d8565b6040516102da9190612559565b60405180910390f35b6102eb610990565b6040516102f891906123b7565b60405180910390f35b61031b60048036038101906103169190611d36565b610a22565b6040516103289190612559565b60405180910390f35b61034b60048036038101906103469190611e79565b610ae3565b005b61036760048036038101906103629190611f53565b610af9565b60405161037491906123b7565b60405180910390f35b61039760048036038101906103929190611df6565b610b99565b005b6103b360048036038101906103ae9190611f53565b610bfb565b6040516103c091906123b7565b60405180910390f35b6103e360048036038101906103de9190611d63565b610d0e565b6040516103f0919061239c565b60405180910390f35b60007f80ac58cd000000000000000000000000000000000000000000000000000000007bffffffffffffffffffffffffffffffffffffffffffffffffffffffff1916827bffffffffffffffffffffffffffffffffffffffffffffffffffffffff191614806104c457507f5b5e139f000000000000000000000000000000000000000000000000000000007bffffffffffffffffffffffffffffffffffffffffffffffffffffffff1916827bffffffffffffffffffffffffffffffffffffffffffffffffffffffff1916145b806104d457506104d382610da2565b5b9050919050565b6060600080546104ea906127d0565b80601f0160208091040260200160405190810160405280929190818152602001828054610516906127d0565b80156105635780601f1061053857610100808354040283529160200191610563565b820191906000526020600020905b81548152906001019060200180831161054657829003601f168201915b5050505050905090565b600061057882610e0c565b6004600083815260200190815260200160002060009054906101000a900473ffffffffffffffffffffffffffffffffffffffff169050919050565b60006105be826107cb565b90508073ffffffffffffffffffffffffffffffffffffffff168373ffffffffffffffffffffffffffffffffffffffff16141561062f576040517f08c379a000000000000000000000000000000000000000000000000000000000815260040161062690612519565b60405180910390fd5b8073ffffffffffffffffffffffffffffffffffffffff1661064e610e57565b73ffffffffffffffffffffffffffffffffffffffff16148061067d575061067c81610677610e57565b610d0e565b5b6106bc576040517f08c379a00000000000000000000000000000000000000000000000000000000081526004016106b3906124b9565b60405180910390fd5b6106c68383610e5f565b505050565b6106dc6106d6610e57565b82610f18565b61071b576040517f08c379a000000000000000000000000000000000000000000000000000000000815260040161071290612539565b60405180910390fd5b610726838383610fad565b505050565b6000600960008473ffffffffffffffffffffffffffffffffffffffff1673ffffffffffffffffffffffffffffffffffffffff168152602001908152602001600020600083815260200190815260200160002054905092915050565b6107a183838360405180602001604052806000815250610b99565b505050565b6009602052816000526040600020602052806000526040600020600091509150505481565b6000806002600084815260200190815260200160002060009054906101000a900473ffffffffffffffffffffffffffffffffffffffff169050600073ffffffffffffffffffffffffffffffffffffffff168173ffffffffffffffffffffffffffffffffffffffff161415610874576040517f08c379a000000000000000000000000000000000000000000000000000000000815260040161086b906124f9565b60405180910390fd5b80915050919050565b806008600084815260200190815260200160002090805190602001906108a4929190611b3f565b506000816040516020016108b891906122dd565b60405160208183030381529060405290506108d38382611214565b505050565b60008073ffffffffffffffffffffffffffffffffffffffff168273ffffffffffffffffffffffffffffffffffffffff161415610949576040517f08c379a000000000000000000000000000000000000000000000000000000000815260040161094090612479565b60405180910390fd5b600360008373ffffffffffffffffffffffffffffffffffffffff1673ffffffffffffffffffffffffffffffffffffffff168152602001908152602001600020549050919050565b60606001805461099f906127d0565b80601f01602080910402602001604051908101604052809291908181526020018280546109cb906127d0565b8015610a185780601f106109ed57610100808354040283529160200191610a18565b820191906000526020600020905b8154815290600101906020018083116109fb57829003601f168201915b5050505050905090565b6000610a2e6007611288565b6000610a3a600761129e565b9050610a4683826112ac565b6040518060400160405280600481526020017f3030303000000000000000000000000000000000000000000000000000000000815250600860008381526020019081526020016000209080519060200190610aa2929190611b3f565b50610aad83826112ca565b6000604051602001610abe9061230a565b6040516020818303038152906040529050610ad98282611214565b8192505050919050565b610af5610aee610e57565b8383611331565b5050565b60086020528060005260406000206000915090508054610b18906127d0565b80601f0160208091040260200160405190810160405280929190818152602001828054610b44906127d0565b8015610b915780601f10610b6657610100808354040283529160200191610b91565b820191906000526020600020905b815481529060010190602001808311610b7457829003601f168201915b505050505081565b610baa610ba4610e57565b83610f18565b610be9576040517f08c379a0000000000000000000000000000000000000000000000000000000008152600401610be090612539565b60405180910390fd5b610bf58484848461149e565b50505050565b6060610c0682610e0c565b6000600660008481526020019081526020016000208054610c26906127d0565b80601f0160208091040260200160405190810160405280929190818152602001828054610c52906127d0565b8015610c9f5780601f10610c7457610100808354040283529160200191610c9f565b820191906000526020600020905b815481529060010190602001808311610c8257829003601f168201915b505050505090506000610cb06114fa565b9050600081511415610cc6578192505050610d09565b600082511115610cfb578082604051602001610ce39291906122b9565b60405160208183030381529060405292505050610d09565b610d0484611511565b925050505b919050565b6000600560008473ffffffffffffffffffffffffffffffffffffffff1673ffffffffffffffffffffffffffffffffffffffff16815260200190815260200160002060008373ffffffffffffffffffffffffffffffffffffffff1673ffffffffffffffffffffffffffffffffffffffff16815260200190815260200160002060009054906101000a900460ff16905092915050565b60007f01ffc9a7000000000000000000000000000000000000000000000000000000007bffffffffffffffffffffffffffffffffffffffffffffffffffffffff1916827bffffffffffffffffffffffffffffffffffffffffffffffffffffffff1916149050919050565b610e1581611579565b610e54576040517f08c379a0000000000000000000000000000000000000000000000000000000008152600401610e4b906124f9565b60405180910390fd5b50565b600033905090565b816004600083815260200190815260200160002060006101000a81548173ffffffffffffffffffffffffffffffffffffffff021916908373ffffffffffffffffffffffffffffffffffffffff160217905550808273ffffffffffffffffffffffffffffffffffffffff16610ed2836107cb565b73ffffffffffffffffffffffffffffffffffffffff167f8c5be1e5ebec7d5bd14f71427d1e84f3dd0314c0f7b2291e5b200ac8c7c3b92560405160405180910390a45050565b600080610f24836107cb565b90508073ffffffffffffffffffffffffffffffffffffffff168473ffffffffffffffffffffffffffffffffffffffff161480610f665750610f658185610d0e565b5b80610fa457508373ffffffffffffffffffffffffffffffffffffffff16610f8c8461056d565b73ffffffffffffffffffffffffffffffffffffffff16145b91505092915050565b8273ffffffffffffffffffffffffffffffffffffffff16610fcd826107cb565b73ffffffffffffffffffffffffffffffffffffffff1614611023576040517f08c379a000000000000000000000000000000000000000000000000000000000815260040161101a906123f9565b60405180910390fd5b600073ffffffffffffffffffffffffffffffffffffffff168273ffffffffffffffffffffffffffffffffffffffff161415611093576040517f08c379a000000000000000000000000000000000000000000000000000000000815260040161108a90612439565b60405180910390fd5b61109e8383836115e5565b6110a9600082610e5f565b6001600360008573ffffffffffffffffffffffffffffffffffffffff1673ffffffffffffffffffffffffffffffffffffffff16815260200190815260200160002060008282546110f991906126c5565b925050819055506001600360008473ffffffffffffffffffffffffffffffffffffffff1673ffffffffffffffffffffffffffffffffffffffff1681526020019081526020016000206000828254611150919061263e565b92505081905550816002600083815260200190815260200160002060006101000a81548173ffffffffffffffffffffffffffffffffffffffff021916908373ffffffffffffffffffffffffffffffffffffffff160217905550808273ffffffffffffffffffffffffffffffffffffffff168473ffffffffffffffffffffffffffffffffffffffff167fddf252ad1be2c89b69c2b068fc378daa952ba7f163c4a11628f55a4df523b3ef60405160405180910390a461120f8383836115ea565b505050565b61121d82611579565b61125c576040517f08c379a000000000000000000000000000000000000000000000000000000000815260040161125390612499565b60405180910390fd5b80600660008481526020019081526020016000209080519060200190611283929190611b3f565b505050565b6001816000016000828254019250508190555050565b600081600001549050919050565b6112c68282604051806020016040528060008152506115ef565b5050565b60006112d5836108d8565b905081600960008573ffffffffffffffffffffffffffffffffffffffff1673ffffffffffffffffffffffffffffffffffffffff168152602001908152602001600020600083815260200190815260200160002081905550505050565b8173ffffffffffffffffffffffffffffffffffffffff168373ffffffffffffffffffffffffffffffffffffffff1614156113a0576040517f08c379a000000000000000000000000000000000000000000000000000000000815260040161139790612459565b60405180910390fd5b80600560008573ffffffffffffffffffffffffffffffffffffffff1673ffffffffffffffffffffffffffffffffffffffff16815260200190815260200160002060008473ffffffffffffffffffffffffffffffffffffffff1673ffffffffffffffffffffffffffffffffffffffff16815260200190815260200160002060006101000a81548160ff0219169083151502179055508173ffffffffffffffffffffffffffffffffffffffff168373ffffffffffffffffffffffffffffffffffffffff167f17307eab39ab6107e8899845ad3d59bd9653f200f220920489ca2b5937696c3183604051611491919061239c565b60405180910390a3505050565b6114a9848484610fad565b6114b58484848461164a565b6114f4576040517f08c379a00000000000000000000000000000000000000000000000000000000081526004016114eb906123d9565b60405180910390fd5b50505050565b606060405180602001604052806000815250905090565b606061151c82610e0c565b60006115266114fa565b905060008151116115465760405180602001604052806000815250611571565b80611550846117e1565b6040516020016115619291906122b9565b6040516020818303038152906040525b915050919050565b60008073ffffffffffffffffffffffffffffffffffffffff166002600084815260200190815260200160002060009054906101000a900473ffffffffffffffffffffffffffffffffffffffff1673ffffffffffffffffffffffffffffffffffffffff1614159050919050565b505050565b505050565b6115f98383611942565b611606600084848461164a565b611645576040517f08c379a000000000000000000000000000000000000000000000000000000000815260040161163c906123d9565b60405180910390fd5b505050565b600061166b8473ffffffffffffffffffffffffffffffffffffffff16611b1c565b156117d4578373ffffffffffffffffffffffffffffffffffffffff1663150b7a02611694610e57565b8786866040518563ffffffff1660e01b81526004016116b69493929190612350565b602060405180830381600087803b1580156116d057600080fd5b505af192505050801561170157506040513d601f19601f820116820180604052508101906116fe9190611f26565b60015b611784573d8060008114611731576040519150601f19603f3d011682016040523d82523d6000602084013e611736565b606091505b5060008151141561177c576040517f08c379a0000000000000000000000000000000000000000000000000000000008152600401611773906123d9565b60405180910390fd5b805181602001fd5b63150b7a0260e01b7bffffffffffffffffffffffffffffffffffffffffffffffffffffffff1916817bffffffffffffffffffffffffffffffffffffffffffffffffffffffff1916149150506117d9565b600190505b949350505050565b60606000821415611829576040518060400160405280600181526020017f3000000000000000000000000000000000000000000000000000000000000000815250905061193d565b600082905060005b6000821461185b57808061184490612833565b915050600a826118549190612694565b9150611831565b60008167ffffffffffffffff81111561187757611876612969565b5b6040519080825280601f01601f1916602001820160405280156118a95781602001600182028036833780820191505090505b5090505b60008514611936576001826118c291906126c5565b9150600a856118d1919061287c565b60306118dd919061263e565b60f81b8183815181106118f3576118f261293a565b5b60200101907effffffffffffffffffffffffffffffffffffffffffffffffffffffffffffff1916908160001a905350600a8561192f9190612694565b94506118ad565b8093505050505b919050565b600073ffffffffffffffffffffffffffffffffffffffff168273ffffffffffffffffffffffffffffffffffffffff1614156119b2576040517f08c379a00000000000000000000000000000000000000000000000000000000081526004016119a9906124d9565b60405180910390fd5b6119bb81611579565b156119fb576040517f08c379a00000000000000000000000000000000000000000000000000000000081526004016119f290612419565b60405180910390fd5b611a07600083836115e5565b6001600360008473ffffffffffffffffffffffffffffffffffffffff1673ffffffffffffffffffffffffffffffffffffffff1681526020019081526020016000206000828254611a57919061263e565b92505081905550816002600083815260200190815260200160002060006101000a81548173ffffffffffffffffffffffffffffffffffffffff021916908373ffffffffffffffffffffffffffffffffffffffff160217905550808273ffffffffffffffffffffffffffffffffffffffff16600073ffffffffffffffffffffffffffffffffffffffff167fddf252ad1be2c89b69c2b068fc378daa952ba7f163c4a11628f55a4df523b3ef60405160405180910390a4611b18600083836115ea565b5050565b6000808273ffffffffffffffffffffffffffffffffffffffff163b119050919050565b828054611b4b906127d0565b90600052602060002090601f016020900481019282611b6d5760008555611bb4565b82601f10611b8657805160ff1916838001178555611bb4565b82800160010185558215611bb4579182015b82811115611bb3578251825591602001919060010190611b98565b5b509050611bc19190611bc5565b5090565b5b80821115611bde576000816000905550600101611bc6565b5090565b6000611bf5611bf084612599565b612574565b905082815260208101848484011115611c1157611c1061299d565b5b611c1c84828561278e565b509392505050565b6000611c37611c32846125ca565b612574565b905082815260208101848484011115611c5357611c5261299d565b5b611c5e84828561278e565b509392505050565b600081359050611c7581612d54565b611c7e816126f9565b905092915050565b600081359050611c9581612d6b565b92915050565b600081359050611caa81612d82565b92915050565b600081519050611cbf81612d82565b92915050565b600082601f830112611cda57611cd9612998565b5b8135611cea848260208601611be2565b91505092915050565b600082601f830112611d0857611d07612998565b5b8135611d18848260208601611c24565b91505092915050565b600081359050611d3081612d99565b92915050565b600060208284031215611d4c57611d4b6129a7565b5b6000611d5a84828501611c66565b91505092915050565b60008060408385031215611d7a57611d796129a7565b5b6000611d8885828601611c66565b9250506020611d9985828601611c66565b9150509250929050565b600080600060608486031215611dbc57611dbb6129a7565b5b6000611dca86828701611c66565b9350506020611ddb86828701611c66565b9250506040611dec86828701611d21565b9150509250925092565b60008060008060808587031215611e1057611e0f6129a7565b5b6000611e1e87828801611c66565b9450506020611e2f87828801611c66565b9350506040611e4087828801611d21565b925050606085013567ffffffffffffffff811115611e6157611e606129a2565b5b611e6d87828801611cc5565b91505092959194509250565b60008060408385031215611e9057611e8f6129a7565b5b6000611e9e85828601611c66565b9250506020611eaf85828601611c86565b9150509250929050565b60008060408385031215611ed057611ecf6129a7565b5b6000611ede85828601611c66565b9250506020611eef85828601611d21565b9150509250929050565b600060208284031215611f0f57611f0e6129a7565b5b6000611f1d84828501611c9b565b91505092915050565b600060208284031215611f3c57611f3b6129a7565b5b6000611f4a84828501611cb0565b91505092915050565b600060208284031215611f6957611f686129a7565b5b6000611f7784828501611d21565b91505092915050565b60008060408385031215611f9757611f966129a7565b5b6000611fa585828601611d21565b925050602083013567ffffffffffffffff811115611fc657611fc56129a2565b5b611fd285828601611cf3565b9150509250929050565b611fe5816126f9565b82525050565b611ff48161270b565b82525050565b6000612005826125fb565b61200f8185612611565b935061201f81856020860161279d565b612028816129ac565b840191505092915050565b600061203e82612606565b6120488185612622565b935061205881856020860161279d565b612061816129ac565b840191505092915050565b600061207782612606565b6120818185612633565b935061209181856020860161279d565b80840191505092915050565b60006120aa603283612622565b91506120b5826129bd565b604082019050919050565b60006120cd602583612622565b91506120d882612a0c565b604082019050919050565b60006120f0601c83612622565b91506120fb82612a5b565b602082019050919050565b6000612113602483612622565b915061211e82612a84565b604082019050919050565b6000612136601983612622565b915061214182612ad3565b602082019050919050565b6000612159602983612622565b915061216482612afc565b604082019050919050565b600061217c602e83612622565b915061218782612b4b565b604082019050919050565b600061219f603e83612622565b91506121aa82612b9a565b604082019050919050565b60006121c2602083612622565b91506121cd82612be9565b602082019050919050565b60006121e5600583612633565b91506121f082612c12565b600582019050919050565b6000612208601883612622565b915061221382612c3b565b602082019050919050565b600061222b602183612622565b915061223682612c64565b604082019050919050565b600061224e600483612633565b915061225982612cb3565b600482019050919050565b6000612271602e83612622565b915061227c82612cdc565b604082019050919050565b6000612294602083612633565b915061229f82612d2b565b602082019050919050565b6122b381612784565b82525050565b60006122c5828561206c565b91506122d1828461206c565b91508190509392505050565b60006122e882612287565b91506122f4828461206c565b91506122ff826121d8565b915081905092915050565b600061231582612287565b915061232082612241565b915061232b826121d8565b9150819050919050565b600060208201905061234a6000830184611fdc565b92915050565b60006080820190506123656000830187611fdc565b6123726020830186611fdc565b61237f60408301856122aa565b81810360608301526123918184611ffa565b905095945050505050565b60006020820190506123b16000830184611feb565b92915050565b600060208201905081810360008301526123d18184612033565b905092915050565b600060208201905081810360008301526123f28161209d565b9050919050565b60006020820190508181036000830152612412816120c0565b9050919050565b60006020820190508181036000830152612432816120e3565b9050919050565b6000602082019050818103600083015261245281612106565b9050919050565b6000602082019050818103600083015261247281612129565b9050919050565b600060208201905081810360008301526124928161214c565b9050919050565b600060208201905081810360008301526124b28161216f565b9050919050565b600060208201905081810360008301526124d281612192565b9050919050565b600060208201905081810360008301526124f2816121b5565b9050919050565b60006020820190508181036000830152612512816121fb565b9050919050565b600060208201905081810360008301526125328161221e565b9050919050565b6000602082019050818103600083015261255281612264565b9050919050565b600060208201905061256e60008301846122aa565b92915050565b600061257e61258f565b905061258a8282612802565b919050565b6000604051905090565b600067ffffffffffffffff8211156125b4576125b3612969565b5b6125bd826129ac565b9050602081019050919050565b600067ffffffffffffffff8211156125e5576125e4612969565b5b6125ee826129ac565b9050602081019050919050565b600081519050919050565b600081519050919050565b600082825260208201905092915050565b600082825260208201905092915050565b600081905092915050565b600061264982612784565b915061265483612784565b9250827fffffffffffffffffffffffffffffffffffffffffffffffffffffffffffffffff03821115612689576126886128ad565b5b828201905092915050565b600061269f82612784565b91506126aa83612784565b9250826126ba576126b96128dc565b5b828204905092915050565b60006126d082612784565b91506126db83612784565b9250828210156126ee576126ed6128ad565b5b828203905092915050565b600061270482612743565b9050919050565b60008115159050919050565b60007fffffffff0000000000000000000000000000000000000000000000000000000082169050919050565b600073ffffffffffffffffffffffffffffffffffffffff82169050919050565b600074ffffffffffffffffffffffffffffffffffffffffff82169050919050565b6000819050919050565b82818337600083830152505050565b60005b838110156127bb5780820151818401526020810190506127a0565b838111156127ca576000848401525b50505050565b600060028204905060018216806127e857607f821691505b602082108114156127fc576127fb61290b565b5b50919050565b61280b826129ac565b810181811067ffffffffffffffff8211171561282a57612829612969565b5b80604052505050565b600061283e82612784565b91507fffffffffffffffffffffffffffffffffffffffffffffffffffffffffffffffff821415612871576128706128ad565b5b600182019050919050565b600061288782612784565b915061289283612784565b9250826128a2576128a16128dc565b5b828206905092915050565b7f4e487b7100000000000000000000000000000000000000000000000000000000600052601160045260246000fd5b7f4e487b7100000000000000000000000000000000000000000000000000000000600052601260045260246000fd5b7f4e487b7100000000000000000000000000000000000000000000000000000000600052602260045260246000fd5b7f4e487b7100000000000000000000000000000000000000000000000000000000600052603260045260246000fd5b7f4e487b7100000000000000000000000000000000000000000000000000000000600052604160045260246000fd5b600080fd5b600080fd5b600080fd5b600080fd5b6000601f19601f8301169050919050565b7f4552433732313a207472616e7366657220746f206e6f6e20455243373231526560008201527f63656976657220696d706c656d656e7465720000000000000000000000000000602082015250565b7f4552433732313a207472616e736665722066726f6d20696e636f72726563742060008201527f6f776e6572000000000000000000000000000000000000000000000000000000602082015250565b7f4552433732313a20746f6b656e20616c7265616479206d696e74656400000000600082015250565b7f4552433732313a207472616e7366657220746f20746865207a65726f2061646460008201527f7265737300000000000000000000000000000000000000000000000000000000602082015250565b7f4552433732313a20617070726f766520746f2063616c6c657200000000000000600082015250565b7f4552433732313a2061646472657373207a65726f206973206e6f74206120766160008201527f6c6964206f776e65720000000000000000000000000000000000000000000000602082015250565b7f45524337323155524953746f726167653a2055524920736574206f66206e6f6e60008201527f6578697374656e7420746f6b656e000000000000000000000000000000000000602082015250565b7f4552433732313a20617070726f76652063616c6c6572206973206e6f7420746f60008201527f6b656e206f776e6572206e6f7220617070726f76656420666f7220616c6c0000602082015250565b7f4552433732313a206d696e7420746f20746865207a65726f2061646472657373600082015250565b7f2e6a736f6e000000000000000000000000000000000000000000000000000000600082015250565b7f4552433732313a20696e76616c696420746f6b656e2049440000000000000000600082015250565b7f4552433732313a20617070726f76616c20746f2063757272656e74206f776e6560008201527f7200000000000000000000000000000000000000000000000000000000000000602082015250565b7f3030303000000000000000000000000000000000000000000000000000000000600082015250565b7f4552433732313a2063616c6c6572206973206e6f7420746f6b656e206f776e6560008201527f72206e6f7220617070726f766564000000000000000000000000000000000000602082015250565b7f68747470733a2f2f636f6f706172742e696f2f6173736574732f73686970732f600082015250565b612d5d81612763565b8114612d6857600080fd5b50565b612d748161270b565b8114612d7f57600080fd5b50565b612d8b81612717565b8114612d9657600080fd5b50565b612da281612784565b8114612dad57600080fd5b5056fea26474726f6e582212203b08739a8fac43c42ad578c5abb1cd517f161f948859080b404a0c5309b8ca7664736f6c63430008060033",
  "source": "// SPDX-License-Identifier: UNLICENSED\npragma solidity ^0.8.4;\n\nimport '@openzeppelin/contracts/token/ERC721/ERC721.sol';\nimport '@openzeppelin/contracts/utils/Counters.sol';\nimport '@openzeppelin/contracts/token/ERC721/extensions/ERC721URIStorage.sol';\n\ncontract CoopartShips is ERC721URIStorage {\n    using Counters for Counters.Counter;\n    Counters.Counter private _tokenIds;\n    mapping(uint256 => string) public _tokenToShipCode;\n    mapping(address => mapping(uint256 => uint256)) public _ownedTokens;\n\n    constructor() ERC721('CoopartShips', 'BAL') {}\n\n    function mintShip(address owner) public returns (uint256) {\n        _tokenIds.increment();\n        uint256 tokenId = _tokenIds.current();\n\n        _safeMint(owner, tokenId);\n\n        _tokenToShipCode[tokenId] = '0000'; // Basic ship\n\n        _addTokenToOwnerEnumeration(owner, tokenId);\n\n        //string(bytes.concat(bytes(a), \" \", bytes(b)))\n        string memory metadataURI = string(abi.encodePacked('https://coopart.io/assets/ships/', '0000', '.json'));\n        _setTokenURI(tokenId, metadataURI);\n\n        return tokenId;\n    }\n\n    function upgradeShip(uint256 tokenId, string memory shipCode) public {\n        _tokenToShipCode[tokenId] = shipCode;\n\n        string memory metadataURI = string(abi.encodePacked('https://coopart.io/assets/ships/', shipCode, '.json'));\n\n        _setTokenURI(tokenId, metadataURI);\n    }\n\n    function _addTokenToOwnerEnumeration(address owner, uint256 tokenId) private {\n        uint256 length = balanceOf(owner);\n        _ownedTokens[owner][length] = tokenId;\n    }\n\n    function tokenOfOwnerByIndex(address owner, uint256 index) public view virtual returns (uint256) {\n        //require(index < balanceOf(owner), \"ERC721Enumerable: owner index out of bounds\");\n        return _ownedTokens[owner][index];\n    }\n}\n",
  "sourcePath": "/Users/lol/apps/fun/coop.art/src/contracts/contracts/Coopart.sol",
  "compiler": {
    "name": "solc",
    "version": "0.8.6+commit.0e36fba0.mod.Emscripten.clang"
  },
  "schemaVersion": "2.0.1",
  "updatedAt": "2022-11-08T08:22:53.396Z"
}