{
  "contractName": "Coopart",
  "abi": [
    {
      "inputs": [],
      "stateMutability": "nonpayable",
      "type": "constructor"
    },
    {
      "anonymous": false,
      "inputs": [
        {
          "indexed": true,
          "internalType": "address",
          "name": "owner",
          "type": "address"
        },
        {
          "indexed": true,
          "internalType": "address",
          "name": "approved",
          "type": "address"
        },
        {
          "indexed": true,
          "internalType": "uint256",
          "name": "tokenId",
          "type": "uint256"
        }
      ],
      "name": "Approval",
      "type": "event",
      "stateMutability": "nonpayable"
    },
    {
      "anonymous": false,
      "inputs": [
        {
          "indexed": true,
          "internalType": "address",
          "name": "owner",
          "type": "address"
        },
        {
          "indexed": true,
          "internalType": "address",
          "name": "operator",
          "type": "address"
        },
        {
          "indexed": false,
          "internalType": "bool",
          "name": "approved",
          "type": "bool"
        }
      ],
      "name": "ApprovalForAll",
      "type": "event",
      "stateMutability": "nonpayable"
    },
    {
      "anonymous": false,
      "inputs": [
        {
          "indexed": true,
          "internalType": "address",
          "name": "previousOwner",
          "type": "address"
        },
        {
          "indexed": true,
          "internalType": "address",
          "name": "newOwner",
          "type": "address"
        }
      ],
      "name": "OwnershipTransferred",
      "type": "event",
      "stateMutability": "nonpayable"
    },
    {
      "anonymous": false,
      "inputs": [
        {
          "indexed": true,
          "internalType": "address",
          "name": "from",
          "type": "address"
        },
        {
          "indexed": true,
          "internalType": "address",
          "name": "to",
          "type": "address"
        },
        {
          "indexed": true,
          "internalType": "uint256",
          "name": "tokenId",
          "type": "uint256"
        }
      ],
      "name": "Transfer",
      "type": "event",
      "stateMutability": "nonpayable"
    },
    {
      "inputs": [
        {
          "internalType": "uint256",
          "name": "_canvasId",
          "type": "uint256"
        },
        {
          "internalType": "string",
          "name": "_imageUri",
          "type": "string"
        },
        {
          "internalType": "address",
          "name": "_author",
          "type": "address"
        }
      ],
      "name": "addLayer",
      "outputs": [
        {
          "internalType": "uint256",
          "name": "",
          "type": "uint256"
        }
      ],
      "stateMutability": "nonpayable",
      "type": "function"
    },
    {
      "inputs": [
        {
          "internalType": "address",
          "name": "to",
          "type": "address"
        },
        {
          "internalType": "uint256",
          "name": "tokenId",
          "type": "uint256"
        }
      ],
      "name": "approve",
      "outputs": [],
      "stateMutability": "nonpayable",
      "type": "function"
    },
    {
      "inputs": [
        {
          "internalType": "address",
          "name": "owner",
          "type": "address"
        }
      ],
      "name": "balanceOf",
      "outputs": [
        {
          "internalType": "uint256",
          "name": "",
          "type": "uint256"
        }
      ],
      "stateMutability": "view",
      "type": "function"
    },
    {
      "inputs": [
        {
          "internalType": "uint256",
          "name": "layerId",
          "type": "uint256"
        }
      ],
      "name": "downVote",
      "outputs": [],
      "stateMutability": "nonpayable",
      "type": "function"
    },
    {
      "inputs": [
        {
          "internalType": "uint256",
          "name": "tokenId",
          "type": "uint256"
        }
      ],
      "name": "getApproved",
      "outputs": [
        {
          "internalType": "address",
          "name": "",
          "type": "address"
        }
      ],
      "stateMutability": "view",
      "type": "function"
    },
    {
      "inputs": [
        {
          "internalType": "uint256",
          "name": "layerId",
          "type": "uint256"
        }
      ],
      "name": "getLayer",
      "outputs": [
        {
          "components": [
            {
              "internalType": "string",
              "name": "imageUri",
              "type": "string"
            },
            {
              "internalType": "address",
              "name": "author",
              "type": "address"
            },
            {
              "internalType": "uint256",
              "name": "upVotes",
              "type": "uint256"
            },
            {
              "internalType": "uint256",
              "name": "downVotes",
              "type": "uint256"
            }
          ],
          "internalType": "struct Coopart.Layer",
          "name": "",
          "type": "tuple"
        }
      ],
      "stateMutability": "view",
      "type": "function"
    },
    {
      "inputs": [
        {
          "internalType": "address",
          "name": "owner",
          "type": "address"
        },
        {
          "internalType": "address",
          "name": "operator",
          "type": "address"
        }
      ],
      "name": "isApprovedForAll",
      "outputs": [
        {
          "internalType": "bool",
          "name": "",
          "type": "bool"
        }
      ],
      "stateMutability": "view",
      "type": "function"
    },
    {
      "inputs": [
        {
          "internalType": "address",
          "name": "_owner",
          "type": "address"
        },
        {
          "internalType": "string",
          "name": "_tokenURI",
          "type": "string"
        },
        {
          "internalType": "string",
          "name": "_name",
          "type": "string"
        },
        {
          "internalType": "uint256",
          "name": "_price",
          "type": "uint256"
        },
        {
          "internalType": "bool",
          "name": "_isOnSale",
          "type": "bool"
        }
      ],
      "name": "mintCanvas",
      "outputs": [
        {
          "internalType": "uint256",
          "name": "",
          "type": "uint256"
        }
      ],
      "stateMutability": "nonpayable",
      "type": "function"
    },
    {
      "inputs": [],
      "name": "name",
      "outputs": [
        {
          "internalType": "string",
          "name": "",
          "type": "string"
        }
      ],
      "stateMutability": "view",
      "type": "function"
    },
    {
      "inputs": [],
      "name": "owner",
      "outputs": [
        {
          "internalType": "address",
          "name": "",
          "type": "address"
        }
      ],
      "stateMutability": "view",
      "type": "function"
    },
    {
      "inputs": [
        {
          "internalType": "uint256",
          "name": "tokenId",
          "type": "uint256"
        }
      ],
      "name": "ownerOf",
      "outputs": [
        {
          "internalType": "address",
          "name": "",
          "type": "address"
        }
      ],
      "stateMutability": "view",
      "type": "function"
    },
    {
      "inputs": [],
      "name": "renounceOwnership",
      "outputs": [],
      "stateMutability": "nonpayable",
      "type": "function"
    },
    {
      "inputs": [
        {
          "internalType": "address",
          "name": "from",
          "type": "address"
        },
        {
          "internalType": "address",
          "name": "to",
          "type": "address"
        },
        {
          "internalType": "uint256",
          "name": "tokenId",
          "type": "uint256"
        }
      ],
      "name": "safeTransferFrom",
      "outputs": [],
      "stateMutability": "nonpayable",
      "type": "function"
    },
    {
      "inputs": [
        {
          "internalType": "address",
          "name": "from",
          "type": "address"
        },
        {
          "internalType": "address",
          "name": "to",
          "type": "address"
        },
        {
          "internalType": "uint256",
          "name": "tokenId",
          "type": "uint256"
        },
        {
          "internalType": "bytes",
          "name": "data",
          "type": "bytes"
        }
      ],
      "name": "safeTransferFrom",
      "outputs": [],
      "stateMutability": "nonpayable",
      "type": "function"
    },
    {
      "inputs": [
        {
          "internalType": "address",
          "name": "operator",
          "type": "address"
        },
        {
          "internalType": "bool",
          "name": "approved",
          "type": "bool"
        }
      ],
      "name": "setApprovalForAll",
      "outputs": [],
      "stateMutability": "nonpayable",
      "type": "function"
    },
    {
      "inputs": [
        {
          "internalType": "string",
          "name": "_newBaseURI",
          "type": "string"
        }
      ],
      "name": "setBaseURI",
      "outputs": [],
      "stateMutability": "nonpayable",
      "type": "function"
    },
    {
      "inputs": [
        {
          "internalType": "uint256",
          "name": "_tokenId",
          "type": "uint256"
        },
        {
          "components": [
            {
              "internalType": "uint256",
              "name": "id",
              "type": "uint256"
            },
            {
              "internalType": "uint256",
              "name": "price",
              "type": "uint256"
            },
            {
              "internalType": "string",
              "name": "name",
              "type": "string"
            },
            {
              "internalType": "string",
              "name": "uri",
              "type": "string"
            },
            {
              "internalType": "bool",
              "name": "isOnSale",
              "type": "bool"
            },
            {
              "internalType": "uint256[]",
              "name": "layerIds",
              "type": "uint256[]"
            }
          ],
          "internalType": "struct Coopart.TokenMeta",
          "name": "_meta",
          "type": "tuple"
        }
      ],
      "name": "setTokenMeta",
      "outputs": [],
      "stateMutability": "nonpayable",
      "type": "function"
    },
    {
      "inputs": [
        {
          "internalType": "bytes4",
          "name": "interfaceId",
          "type": "bytes4"
        }
      ],
      "name": "supportsInterface",
      "outputs": [
        {
          "internalType": "bool",
          "name": "",
          "type": "bool"
        }
      ],
      "stateMutability": "view",
      "type": "function"
    },
    {
      "inputs": [],
      "name": "symbol",
      "outputs": [
        {
          "internalType": "string",
          "name": "",
          "type": "string"
        }
      ],
      "stateMutability": "view",
      "type": "function"
    },
    {
      "inputs": [
        {
          "internalType": "uint256",
          "name": "_tokenId",
          "type": "uint256"
        }
      ],
      "name": "tokenMeta",
      "outputs": [
        {
          "components": [
            {
              "internalType": "uint256",
              "name": "id",
              "type": "uint256"
            },
            {
              "internalType": "uint256",
              "name": "price",
              "type": "uint256"
            },
            {
              "internalType": "string",
              "name": "name",
              "type": "string"
            },
            {
              "internalType": "string",
              "name": "uri",
              "type": "string"
            },
            {
              "internalType": "bool",
              "name": "isOnSale",
              "type": "bool"
            },
            {
              "internalType": "uint256[]",
              "name": "layerIds",
              "type": "uint256[]"
            }
          ],
          "internalType": "struct Coopart.TokenMeta",
          "name": "",
          "type": "tuple"
        }
      ],
      "stateMutability": "view",
      "type": "function"
    },
    {
      "inputs": [
        {
          "internalType": "uint256",
          "name": "tokenId",
          "type": "uint256"
        }
      ],
      "name": "tokenURI",
      "outputs": [
        {
          "internalType": "string",
          "name": "",
          "type": "string"
        }
      ],
      "stateMutability": "view",
      "type": "function"
    },
    {
      "inputs": [
        {
          "internalType": "address",
          "name": "from",
          "type": "address"
        },
        {
          "internalType": "address",
          "name": "to",
          "type": "address"
        },
        {
          "internalType": "uint256",
          "name": "tokenId",
          "type": "uint256"
        }
      ],
      "name": "transferFrom",
      "outputs": [],
      "stateMutability": "nonpayable",
      "type": "function"
    },
    {
      "inputs": [
        {
          "internalType": "address",
          "name": "newOwner",
          "type": "address"
        }
      ],
      "name": "transferOwnership",
      "outputs": [],
      "stateMutability": "nonpayable",
      "type": "function"
    },
    {
      "inputs": [
        {
          "internalType": "uint256",
          "name": "layerId",
          "type": "uint256"
        }
      ],
      "name": "upVote",
      "outputs": [],
      "stateMutability": "nonpayable",
      "type": "function"
    },
    {
      "inputs": [
        {
          "internalType": "uint256",
          "name": "_tokenId",
          "type": "uint256"
        },
        {
          "internalType": "string",
          "name": "_uri",
          "type": "string"
        }
      ],
      "name": "updateTokenMetaUri",
      "outputs": [],
      "stateMutability": "nonpayable",
      "type": "function"
    }
  ],
  "bytecode": "0x60806040523480156200001157600080fd5b50d380156200001f57600080fd5b50d280156200002d57600080fd5b506040518060400160405280600881526020017f436f6f702e6172740000000000000000000000000000000000000000000000008152506040518060400160405280600781526020017f434f4f50415254000000000000000000000000000000000000000000000000008152508160009080519060200190620000b2929190620001ca565b508060019080519060200190620000cb929190620001ca565b505050620000ee620000e2620000fc60201b60201c565b6200010460201b60201c565b6001600781905550620002df565b600033905090565b6000600660009054906101000a900473ffffffffffffffffffffffffffffffffffffffff16905081600660006101000a81548173ffffffffffffffffffffffffffffffffffffffff021916908373ffffffffffffffffffffffffffffffffffffffff1602179055508173ffffffffffffffffffffffffffffffffffffffff168173ffffffffffffffffffffffffffffffffffffffff167f8be0079c531659141344cd1fd0a4f28419497f9722a3daafe3b4186f6b6457e060405160405180910390a35050565b828054620001d8906200027a565b90600052602060002090601f016020900481019282620001fc576000855562000248565b82601f106200021757805160ff191683800117855562000248565b8280016001018555821562000248579182015b82811115620002475782518255916020019190600101906200022a565b5b5090506200025791906200025b565b5090565b5b80821115620002765760008160009055506001016200025c565b5090565b600060028204905060018216806200029357607f821691505b60208210811415620002aa57620002a9620002b0565b5b50919050565b7f4e487b7100000000000000000000000000000000000000000000000000000000600052602260045260246000fd5b613d6d80620002ef6000396000f3fe608060405234801561001057600080fd5b50d3801561001d57600080fd5b50d2801561002a57600080fd5b506004361061018d5760003560e01c80638da5cb5b116100f8578063c87b56dd116100b1578063ec859db51161008b578063ec859db514610472578063ed3d0bc41461048e578063f2fde38b146104be578063f781e3ae146104da5761018d565b8063c87b56dd146103f6578063e5d7f2a914610426578063e985e9c5146104425761018d565b80638da5cb5b1461033657806395d89b4114610354578063a1a0309a14610372578063a22cb4651461038e578063ae71c43c146103aa578063b88d4fde146103da5761018d565b806323b872dd1161014a57806323b872dd1461027857806342842e0e1461029457806355f804b3146102b05780636352211e146102cc57806370a08231146102fc578063715018a61461032c5761018d565b806301ffc9a71461019257806306fdde03146101c2578063081812fc146101e0578063095ea7b3146102105780630ae7a3101461022c5780631ae9392d1461025c575b600080fd5b6101ac60048036038101906101a79190612c77565b61050a565b6040516101b99190613366565b60405180910390f35b6101ca6105ec565b6040516101d79190613381565b60405180910390f35b6101fa60048036038101906101f59190612d1a565b61067e565b60405161020791906132ff565b60405180910390f35b61022a60048036038101906102259190612c37565b6106c4565b005b61024660048036038101906102419190612d1a565b6107dc565b6040516102539190613565565b60405180910390f35b61027660048036038101906102719190612d1a565b6109c6565b005b610292600480360381019061028d9190612a6e565b6109f7565b005b6102ae60048036038101906102a99190612a6e565b610a57565b005b6102ca60048036038101906102c59190612cd1565b610a77565b005b6102e660048036038101906102e19190612d1a565b610a99565b6040516102f391906132ff565b60405180910390f35b61031660048036038101906103119190612a01565b610b20565b6040516103239190613587565b60405180910390f35b610334610bd8565b005b61033e610bec565b60405161034b91906132ff565b60405180910390f35b61035c610c16565b6040516103699190613381565b60405180910390f35b61038c60048036038101906103879190612e12565b610ca8565b005b6103a860048036038101906103a39190612b44565b610da7565b005b6103c460048036038101906103bf9190612b84565b610dbd565b6040516103d19190613587565b60405180910390f35b6103f460048036038101906103ef9190612ac1565b610e8d565b005b610410600480360381019061040b9190612d1a565b610eef565b60405161041d9190613381565b60405180910390f35b610440600480360381019061043b9190612d47565b610f57565b005b61045c60048036038101906104579190612a2e565b610fdf565b6040516104699190613366565b60405180910390f35b61048c60048036038101906104879190612d1a565b611073565b005b6104a860048036038101906104a39190612da3565b6110a4565b6040516104b59190613587565b60405180910390f35b6104d860048036038101906104d39190612a01565b611393565b005b6104f460048036038101906104ef9190612d1a565b611417565b6040516105019190613543565b60405180910390f35b60007f80ac58cd000000000000000000000000000000000000000000000000000000007bffffffffffffffffffffffffffffffffffffffffffffffffffffffff1916827bffffffffffffffffffffffffffffffffffffffffffffffffffffffff191614806105d557507f5b5e139f000000000000000000000000000000000000000000000000000000007bffffffffffffffffffffffffffffffffffffffffffffffffffffffff1916827bffffffffffffffffffffffffffffffffffffffffffffffffffffffff1916145b806105e557506105e482611540565b5b9050919050565b6060600080546105fb90613843565b80601f016020809104026020016040519081016040528092919081815260200182805461062790613843565b80156106745780601f1061064957610100808354040283529160200191610674565b820191906000526020600020905b81548152906001019060200180831161065757829003601f168201915b5050505050905090565b6000610689826115aa565b6004600083815260200190815260200160002060009054906101000a900473ffffffffffffffffffffffffffffffffffffffff169050919050565b60006106cf82610a99565b90508073ffffffffffffffffffffffffffffffffffffffff168373ffffffffffffffffffffffffffffffffffffffff161415610740576040517f08c379a000000000000000000000000000000000000000000000000000000000815260040161073790613503565b60405180910390fd5b8073ffffffffffffffffffffffffffffffffffffffff1661075f6115f5565b73ffffffffffffffffffffffffffffffffffffffff16148061078e575061078d816107886115f5565b610fdf565b5b6107cd576040517f08c379a00000000000000000000000000000000000000000000000000000000081526004016107c490613523565b60405180910390fd5b6107d783836115fd565b505050565b6107e46125b5565b6107ed826116b6565b6107f657600080fd5b600960008381526020019081526020016000206040518060c0016040529081600082015481526020016001820154815260200160028201805461083890613843565b80601f016020809104026020016040519081016040528092919081815260200182805461086490613843565b80156108b15780601f10610886576101008083540402835291602001916108b1565b820191906000526020600020905b81548152906001019060200180831161089457829003601f168201915b505050505081526020016003820180546108ca90613843565b80601f01602080910402602001604051908101604052809291908181526020018280546108f690613843565b80156109435780601f1061091857610100808354040283529160200191610943565b820191906000526020600020905b81548152906001019060200180831161092657829003601f168201915b505050505081526020016004820160009054906101000a900460ff16151515158152602001600582018054806020026020016040519081016040528092919081815260200182805480156109b657602002820191906000526020600020905b8154815260200190600101908083116109a2575b5050505050815250509050919050565b6001600d600083815260200190815260200160002060030160008282546109ed91906136e2565b9250508190555050565b610a08610a026115f5565b826116f7565b610a47576040517f08c379a0000000000000000000000000000000000000000000000000000000008152600401610a3e906133a3565b60405180910390fd5b610a5283838361178c565b505050565b610a7283838360405180602001604052806000815250610e8d565b505050565b610a7f611a86565b80600b9080519060200190610a959291906125ed565b5050565b600080610aa583611b04565b9050600073ffffffffffffffffffffffffffffffffffffffff168173ffffffffffffffffffffffffffffffffffffffff161415610b17576040517f08c379a0000000000000000000000000000000000000000000000000000000008152600401610b0e906134e3565b60405180910390fd5b80915050919050565b60008073ffffffffffffffffffffffffffffffffffffffff168273ffffffffffffffffffffffffffffffffffffffff161415610b91576040517f08c379a0000000000000000000000000000000000000000000000000000000008152600401610b8890613483565b60405180910390fd5b600360008373ffffffffffffffffffffffffffffffffffffffff1673ffffffffffffffffffffffffffffffffffffffff168152602001908152602001600020549050919050565b610be0611a86565b610bea6000611b41565b565b6000600660009054906101000a900473ffffffffffffffffffffffffffffffffffffffff16905090565b606060018054610c2590613843565b80601f0160208091040260200160405190810160405280929190818152602001828054610c5190613843565b8015610c9e5780601f10610c7357610100808354040283529160200191610c9e565b820191906000526020600020905b815481529060010190602001808311610c8157829003601f168201915b5050505050905090565b610cb1826116b6565b610cba57600080fd5b610cc26115f5565b73ffffffffffffffffffffffffffffffffffffffff16610ce183610a99565b73ffffffffffffffffffffffffffffffffffffffff1614610d0157600080fd5b806009600084815260200190815260200160002060008201518160000155602082015181600101556040820151816002019080519060200190610d459291906125ed565b506060820151816003019080519060200190610d629291906125ed565b5060808201518160040160006101000a81548160ff02191690831515021790555060a0820151816005019080519060200190610d9f929190612673565b509050505050565b610db9610db26115f5565b8383611c07565b5050565b6000808311610dcb57600080fd5b610dd56008611d74565b6000610de16008611d8a565b9050610ded8782611d98565b33600a600083815260200190815260200160002060006101000a81548173ffffffffffffffffffffffffffffffffffffffff021916908373ffffffffffffffffffffffffffffffffffffffff160217905550606060006040518060c001604052808481526020018781526020018881526020018981526020018615158152602001838152509050610e7e8382610ca8565b82935050505095945050505050565b610e9e610e986115f5565b836116f7565b610edd576040517f08c379a0000000000000000000000000000000000000000000000000000000008152600401610ed4906133a3565b60405180910390fd5b610ee984848484611fb6565b50505050565b6060610efa826115aa565b6000610f04612012565b90506000815111610f245760405180602001604052806000815250610f4f565b80610f2e846120a4565b604051602001610f3f9291906132db565b6040516020818303038152906040525b915050919050565b610f60826116b6565b610f6957600080fd5b610f716115f5565b73ffffffffffffffffffffffffffffffffffffffff16610f9083610a99565b73ffffffffffffffffffffffffffffffffffffffff1614610fb057600080fd5b80600960008481526020019081526020016000206003019080519060200190610fda9291906125ed565b505050565b6000600560008473ffffffffffffffffffffffffffffffffffffffff1673ffffffffffffffffffffffffffffffffffffffff16815260200190815260200160002060008373ffffffffffffffffffffffffffffffffffffffff1673ffffffffffffffffffffffffffffffffffffffff16815260200190815260200160002060009054906101000a900460ff16905092915050565b6001600d6000838152602001908152602001600020600201600082825461109a91906136e2565b9250508190555050565b60006110b0600c611d74565b60006110bc600c611d8a565b905060405180608001604052808581526020018473ffffffffffffffffffffffffffffffffffffffff168152602001600081526020016000815250600d600083815260200190815260200160002060008201518160000190805190602001906111269291906125ed565b5060208201518160010160006101000a81548173ffffffffffffffffffffffffffffffffffffffff021916908373ffffffffffffffffffffffffffffffffffffffff160217905550604082015181600201556060820151816003015590505060006009600087815260200190815260200160002090508060050182908060018154018082558091505060019003906000526020600020016000909190919091505561138786826040518060c001604052908160008201548152602001600182015481526020016002820180546111fb90613843565b80601f016020809104026020016040519081016040528092919081815260200182805461122790613843565b80156112745780601f1061124957610100808354040283529160200191611274565b820191906000526020600020905b81548152906001019060200180831161125757829003601f168201915b5050505050815260200160038201805461128d90613843565b80601f01602080910402602001604051908101604052809291908181526020018280546112b990613843565b80156113065780601f106112db57610100808354040283529160200191611306565b820191906000526020600020905b8154815290600101906020018083116112e957829003601f168201915b505050505081526020016004820160009054906101000a900460ff161515151581526020016005820180548060200260200160405190810160405280929190818152602001828054801561137957602002820191906000526020600020905b815481526020019060010190808311611365575b505050505081525050610ca8565b81925050509392505050565b61139b611a86565b600073ffffffffffffffffffffffffffffffffffffffff168173ffffffffffffffffffffffffffffffffffffffff16141561140b576040517f08c379a0000000000000000000000000000000000000000000000000000000008152600401611402906133e3565b60405180910390fd5b61141481611b41565b50565b61141f6126c0565b600d600083815260200190815260200160002060405180608001604052908160008201805461144d90613843565b80601f016020809104026020016040519081016040528092919081815260200182805461147990613843565b80156114c65780601f1061149b576101008083540402835291602001916114c6565b820191906000526020600020905b8154815290600101906020018083116114a957829003601f168201915b505050505081526020016001820160009054906101000a900473ffffffffffffffffffffffffffffffffffffffff1673ffffffffffffffffffffffffffffffffffffffff1673ffffffffffffffffffffffffffffffffffffffff168152602001600282015481526020016003820154815250509050919050565b60007f01ffc9a7000000000000000000000000000000000000000000000000000000007bffffffffffffffffffffffffffffffffffffffffffffffffffffffff1916827bffffffffffffffffffffffffffffffffffffffffffffffffffffffff1916149050919050565b6115b3816116b6565b6115f2576040517f08c379a00000000000000000000000000000000000000000000000000000000081526004016115e9906134e3565b60405180910390fd5b50565b600033905090565b816004600083815260200190815260200160002060006101000a81548173ffffffffffffffffffffffffffffffffffffffff021916908373ffffffffffffffffffffffffffffffffffffffff160217905550808273ffffffffffffffffffffffffffffffffffffffff1661167083610a99565b73ffffffffffffffffffffffffffffffffffffffff167f8c5be1e5ebec7d5bd14f71427d1e84f3dd0314c0f7b2291e5b200ac8c7c3b92560405160405180910390a45050565b60008073ffffffffffffffffffffffffffffffffffffffff166116d883611b04565b73ffffffffffffffffffffffffffffffffffffffff1614159050919050565b60008061170383610a99565b90508073ffffffffffffffffffffffffffffffffffffffff168473ffffffffffffffffffffffffffffffffffffffff16148061174557506117448185610fdf565b5b8061178357508373ffffffffffffffffffffffffffffffffffffffff1661176b8461067e565b73ffffffffffffffffffffffffffffffffffffffff16145b91505092915050565b8273ffffffffffffffffffffffffffffffffffffffff166117ac82610a99565b73ffffffffffffffffffffffffffffffffffffffff1614611802576040517f08c379a00000000000000000000000000000000000000000000000000000000081526004016117f990613403565b60405180910390fd5b600073ffffffffffffffffffffffffffffffffffffffff168273ffffffffffffffffffffffffffffffffffffffff161415611872576040517f08c379a000000000000000000000000000000000000000000000000000000000815260040161186990613443565b60405180910390fd5b61187f838383600161217c565b8273ffffffffffffffffffffffffffffffffffffffff1661189f82610a99565b73ffffffffffffffffffffffffffffffffffffffff16146118f5576040517f08c379a00000000000000000000000000000000000000000000000000000000081526004016118ec90613403565b60405180910390fd5b6004600082815260200190815260200160002060006101000a81549073ffffffffffffffffffffffffffffffffffffffff02191690556001600360008573ffffffffffffffffffffffffffffffffffffffff1673ffffffffffffffffffffffffffffffffffffffff168152602001908152602001600020600082825403925050819055506001600360008473ffffffffffffffffffffffffffffffffffffffff1673ffffffffffffffffffffffffffffffffffffffff16815260200190815260200160002060008282540192505081905550816002600083815260200190815260200160002060006101000a81548173ffffffffffffffffffffffffffffffffffffffff021916908373ffffffffffffffffffffffffffffffffffffffff160217905550808273ffffffffffffffffffffffffffffffffffffffff168473ffffffffffffffffffffffffffffffffffffffff167fddf252ad1be2c89b69c2b068fc378daa952ba7f163c4a11628f55a4df523b3ef60405160405180910390a4611a8183838360016122a2565b505050565b611a8e6115f5565b73ffffffffffffffffffffffffffffffffffffffff16611aac610bec565b73ffffffffffffffffffffffffffffffffffffffff1614611b02576040517f08c379a0000000000000000000000000000000000000000000000000000000008152600401611af9906134c3565b60405180910390fd5b565b60006002600083815260200190815260200160002060009054906101000a900473ffffffffffffffffffffffffffffffffffffffff169050919050565b6000600660009054906101000a900473ffffffffffffffffffffffffffffffffffffffff16905081600660006101000a81548173ffffffffffffffffffffffffffffffffffffffff021916908373ffffffffffffffffffffffffffffffffffffffff1602179055508173ffffffffffffffffffffffffffffffffffffffff168173ffffffffffffffffffffffffffffffffffffffff167f8be0079c531659141344cd1fd0a4f28419497f9722a3daafe3b4186f6b6457e060405160405180910390a35050565b8173ffffffffffffffffffffffffffffffffffffffff168373ffffffffffffffffffffffffffffffffffffffff161415611c76576040517f08c379a0000000000000000000000000000000000000000000000000000000008152600401611c6d90613463565b60405180910390fd5b80600560008573ffffffffffffffffffffffffffffffffffffffff1673ffffffffffffffffffffffffffffffffffffffff16815260200190815260200160002060008473ffffffffffffffffffffffffffffffffffffffff1673ffffffffffffffffffffffffffffffffffffffff16815260200190815260200160002060006101000a81548160ff0219169083151502179055508173ffffffffffffffffffffffffffffffffffffffff168373ffffffffffffffffffffffffffffffffffffffff167f17307eab39ab6107e8899845ad3d59bd9653f200f220920489ca2b5937696c3183604051611d679190613366565b60405180910390a3505050565b6001816000016000828254019250508190555050565b600081600001549050919050565b600073ffffffffffffffffffffffffffffffffffffffff168273ffffffffffffffffffffffffffffffffffffffff161415611e08576040517f08c379a0000000000000000000000000000000000000000000000000000000008152600401611dff906134a3565b60405180910390fd5b611e11816116b6565b15611e51576040517f08c379a0000000000000000000000000000000000000000000000000000000008152600401611e4890613423565b60405180910390fd5b611e5f60008383600161217c565b611e68816116b6565b15611ea8576040517f08c379a0000000000000000000000000000000000000000000000000000000008152600401611e9f90613423565b60405180910390fd5b6001600360008473ffffffffffffffffffffffffffffffffffffffff1673ffffffffffffffffffffffffffffffffffffffff16815260200190815260200160002060008282540192505081905550816002600083815260200190815260200160002060006101000a81548173ffffffffffffffffffffffffffffffffffffffff021916908373ffffffffffffffffffffffffffffffffffffffff160217905550808273ffffffffffffffffffffffffffffffffffffffff16600073ffffffffffffffffffffffffffffffffffffffff167fddf252ad1be2c89b69c2b068fc378daa952ba7f163c4a11628f55a4df523b3ef60405160405180910390a4611fb26000838360016122a2565b5050565b611fc184848461178c565b611fcd848484846122a8565b61200c576040517f08c379a0000000000000000000000000000000000000000000000000000000008152600401612003906133c3565b60405180910390fd5b50505050565b6060600b805461202190613843565b80601f016020809104026020016040519081016040528092919081815260200182805461204d90613843565b801561209a5780601f1061206f5761010080835404028352916020019161209a565b820191906000526020600020905b81548152906001019060200180831161207d57829003601f168201915b5050505050905090565b6060600060016120b38461243f565b01905060008167ffffffffffffffff8111156120d2576120d1613933565b5b6040519080825280601f01601f1916602001820160405280156121045781602001600182028036833780820191505090505b509050600082602001820190505b600115612171578080600190039150507f3031323334353637383961626364656600000000000000000000000000000000600a86061a8153600a858161215b5761215a6138d5565b5b049450600085141561216c57612171565b612112565b819350505050919050565b600181111561229c57600073ffffffffffffffffffffffffffffffffffffffff168473ffffffffffffffffffffffffffffffffffffffff16146122105780600360008673ffffffffffffffffffffffffffffffffffffffff1673ffffffffffffffffffffffffffffffffffffffff16815260200190815260200160002060008282546122089190613738565b925050819055505b600073ffffffffffffffffffffffffffffffffffffffff168373ffffffffffffffffffffffffffffffffffffffff161461229b5780600360008573ffffffffffffffffffffffffffffffffffffffff1673ffffffffffffffffffffffffffffffffffffffff168152602001908152602001600020600082825461229391906136e2565b925050819055505b5b50505050565b50505050565b60006122c98473ffffffffffffffffffffffffffffffffffffffff16612592565b15612432578373ffffffffffffffffffffffffffffffffffffffff1663150b7a026122f26115f5565b8786866040518563ffffffff1660e01b8152600401612314949392919061331a565b602060405180830381600087803b15801561232e57600080fd5b505af192505050801561235f57506040513d601f19601f8201168201806040525081019061235c9190612ca4565b60015b6123e2573d806000811461238f576040519150601f19603f3d011682016040523d82523d6000602084013e612394565b606091505b506000815114156123da576040517f08c379a00000000000000000000000000000000000000000000000000000000081526004016123d1906133c3565b60405180910390fd5b805181602001fd5b63150b7a0260e01b7bffffffffffffffffffffffffffffffffffffffffffffffffffffffff1916817bffffffffffffffffffffffffffffffffffffffffffffffffffffffff191614915050612437565b600190505b949350505050565b600080600090507a184f03e93ff9f4daa797ed6e38ed64bf6a1f010000000000000000831061249d577a184f03e93ff9f4daa797ed6e38ed64bf6a1f0100000000000000008381612493576124926138d5565b5b0492506040810190505b6d04ee2d6d415b85acef810000000083106124da576d04ee2d6d415b85acef810000000083816124d0576124cf6138d5565b5b0492506020810190505b662386f26fc10000831061250957662386f26fc1000083816124ff576124fe6138d5565b5b0492506010810190505b6305f5e1008310612532576305f5e1008381612528576125276138d5565b5b0492506008810190505b612710831061255757612710838161254d5761254c6138d5565b5b0492506004810190505b6064831061257a57606483816125705761256f6138d5565b5b0492506002810190505b600a8310612589576001810190505b80915050919050565b6000808273ffffffffffffffffffffffffffffffffffffffff163b119050919050565b6040518060c0016040528060008152602001600081526020016060815260200160608152602001600015158152602001606081525090565b8280546125f990613843565b90600052602060002090601f01602090048101928261261b5760008555612662565b82601f1061263457805160ff1916838001178555612662565b82800160010185558215612662579182015b82811115612661578251825591602001919060010190612646565b5b50905061266f91906126fe565b5090565b8280548282559060005260206000209081019282156126af579160200282015b828111156126ae578251825591602001919060010190612693565b5b5090506126bc91906126fe565b5090565b604051806080016040528060608152602001600073ffffffffffffffffffffffffffffffffffffffff16815260200160008152602001600081525090565b5b808211156127175760008160009055506001016126ff565b5090565b600061272e612729846135c7565b6135a2565b9050808382526020820190508285602086028201111561275157612750613971565b5b60005b85811015612781578161276788826129ec565b845260208401935060208301925050600181019050612754565b5050509392505050565b600061279e612799846135f3565b6135a2565b9050828152602081018484840111156127ba576127b9613976565b5b6127c5848285613801565b509392505050565b60006127e06127db84613624565b6135a2565b9050828152602081018484840111156127fc576127fb613976565b5b612807848285613801565b509392505050565b60008135905061281e81613cdb565b6128278161376c565b905092915050565b600082601f83011261284457612843613962565b5b813561285484826020860161271b565b91505092915050565b60008135905061286c81613cf2565b92915050565b60008135905061288181613d09565b92915050565b60008151905061289681613d09565b92915050565b600082601f8301126128b1576128b0613962565b5b81356128c184826020860161278b565b91505092915050565b600082601f8301126128df576128de613962565b5b81356128ef8482602086016127cd565b91505092915050565b600060c0828403121561290e5761290d613967565b5b61291860c06135a2565b90506000612928848285016129ec565b600083015250602061293c848285016129ec565b602083015250604082013567ffffffffffffffff8111156129605761295f61396c565b5b61296c848285016128ca565b604083015250606082013567ffffffffffffffff8111156129905761298f61396c565b5b61299c848285016128ca565b60608301525060806129b08482850161285d565b60808301525060a082013567ffffffffffffffff8111156129d4576129d361396c565b5b6129e08482850161282f565b60a08301525092915050565b6000813590506129fb81613d20565b92915050565b600060208284031215612a1757612a16613980565b5b6000612a258482850161280f565b91505092915050565b60008060408385031215612a4557612a44613980565b5b6000612a538582860161280f565b9250506020612a648582860161280f565b9150509250929050565b600080600060608486031215612a8757612a86613980565b5b6000612a958682870161280f565b9350506020612aa68682870161280f565b9250506040612ab7868287016129ec565b9150509250925092565b60008060008060808587031215612adb57612ada613980565b5b6000612ae98782880161280f565b9450506020612afa8782880161280f565b9350506040612b0b878288016129ec565b925050606085013567ffffffffffffffff811115612b2c57612b2b61397b565b5b612b388782880161289c565b91505092959194509250565b60008060408385031215612b5b57612b5a613980565b5b6000612b698582860161280f565b9250506020612b7a8582860161285d565b9150509250929050565b600080600080600060a08688031215612ba057612b9f613980565b5b6000612bae8882890161280f565b955050602086013567ffffffffffffffff811115612bcf57612bce61397b565b5b612bdb888289016128ca565b945050604086013567ffffffffffffffff811115612bfc57612bfb61397b565b5b612c08888289016128ca565b9350506060612c19888289016129ec565b9250506080612c2a8882890161285d565b9150509295509295909350565b60008060408385031215612c4e57612c4d613980565b5b6000612c5c8582860161280f565b9250506020612c6d858286016129ec565b9150509250929050565b600060208284031215612c8d57612c8c613980565b5b6000612c9b84828501612872565b91505092915050565b600060208284031215612cba57612cb9613980565b5b6000612cc884828501612887565b91505092915050565b600060208284031215612ce757612ce6613980565b5b600082013567ffffffffffffffff811115612d0557612d0461397b565b5b612d11848285016128ca565b91505092915050565b600060208284031215612d3057612d2f613980565b5b6000612d3e848285016129ec565b91505092915050565b60008060408385031215612d5e57612d5d613980565b5b6000612d6c858286016129ec565b925050602083013567ffffffffffffffff811115612d8d57612d8c61397b565b5b612d99858286016128ca565b9150509250929050565b600080600060608486031215612dbc57612dbb613980565b5b6000612dca868287016129ec565b935050602084013567ffffffffffffffff811115612deb57612dea61397b565b5b612df7868287016128ca565b9250506040612e088682870161280f565b9150509250925092565b60008060408385031215612e2957612e28613980565b5b6000612e37858286016129ec565b925050602083013567ffffffffffffffff811115612e5857612e5761397b565b5b612e64858286016128f8565b9150509250929050565b6000612e7a83836132bd565b60208301905092915050565b612e8f8161376c565b82525050565b612e9e8161376c565b82525050565b6000612eaf82613665565b612eb98185613693565b9350612ec483613655565b8060005b83811015612ef5578151612edc8882612e6e565b9750612ee783613686565b925050600181019050612ec8565b5085935050505092915050565b612f0b8161377e565b82525050565b612f1a8161377e565b82525050565b6000612f2b82613670565b612f3581856136a4565b9350612f45818560208601613810565b612f4e81613985565b840191505092915050565b6000612f648261367b565b612f6e81856136b5565b9350612f7e818560208601613810565b612f8781613985565b840191505092915050565b6000612f9d8261367b565b612fa781856136c6565b9350612fb7818560208601613810565b612fc081613985565b840191505092915050565b6000612fd68261367b565b612fe081856136d7565b9350612ff0818560208601613810565b80840191505092915050565b6000613009602d836136c6565b915061301482613996565b604082019050919050565b600061302c6032836136c6565b9150613037826139e5565b604082019050919050565b600061304f6026836136c6565b915061305a82613a34565b604082019050919050565b60006130726025836136c6565b915061307d82613a83565b604082019050919050565b6000613095601c836136c6565b91506130a082613ad2565b602082019050919050565b60006130b86024836136c6565b91506130c382613afb565b604082019050919050565b60006130db6019836136c6565b91506130e682613b4a565b602082019050919050565b60006130fe6029836136c6565b915061310982613b73565b604082019050919050565b60006131216020836136c6565b915061312c82613bc2565b602082019050919050565b60006131446020836136c6565b915061314f82613beb565b602082019050919050565b60006131676018836136c6565b915061317282613c14565b602082019050919050565b600061318a6021836136c6565b915061319582613c3d565b604082019050919050565b60006131ad603d836136c6565b91506131b882613c8c565b604082019050919050565b600060808301600083015184820360008601526131e08282612f59565b91505060208301516131f56020860182612e86565b50604083015161320860408601826132bd565b50606083015161321b60608601826132bd565b508091505092915050565b600060c08301600083015161323e60008601826132bd565b50602083015161325160208601826132bd565b50604083015184820360408601526132698282612f59565b915050606083015184820360608601526132838282612f59565b91505060808301516132986080860182612f02565b5060a083015184820360a08601526132b08282612ea4565b9150508091505092915050565b6132c6816137f7565b82525050565b6132d5816137f7565b82525050565b60006132e78285612fcb565b91506132f38284612fcb565b91508190509392505050565b60006020820190506133146000830184612e95565b92915050565b600060808201905061332f6000830187612e95565b61333c6020830186612e95565b61334960408301856132cc565b818103606083015261335b8184612f20565b905095945050505050565b600060208201905061337b6000830184612f11565b92915050565b6000602082019050818103600083015261339b8184612f92565b905092915050565b600060208201905081810360008301526133bc81612ffc565b9050919050565b600060208201905081810360008301526133dc8161301f565b9050919050565b600060208201905081810360008301526133fc81613042565b9050919050565b6000602082019050818103600083015261341c81613065565b9050919050565b6000602082019050818103600083015261343c81613088565b9050919050565b6000602082019050818103600083015261345c816130ab565b9050919050565b6000602082019050818103600083015261347c816130ce565b9050919050565b6000602082019050818103600083015261349c816130f1565b9050919050565b600060208201905081810360008301526134bc81613114565b9050919050565b600060208201905081810360008301526134dc81613137565b9050919050565b600060208201905081810360008301526134fc8161315a565b9050919050565b6000602082019050818103600083015261351c8161317d565b9050919050565b6000602082019050818103600083015261353c816131a0565b9050919050565b6000602082019050818103600083015261355d81846131c3565b905092915050565b6000602082019050818103600083015261357f8184613226565b905092915050565b600060208201905061359c60008301846132cc565b92915050565b60006135ac6135bd565b90506135b88282613875565b919050565b6000604051905090565b600067ffffffffffffffff8211156135e2576135e1613933565b5b602082029050602081019050919050565b600067ffffffffffffffff82111561360e5761360d613933565b5b61361782613985565b9050602081019050919050565b600067ffffffffffffffff82111561363f5761363e613933565b5b61364882613985565b9050602081019050919050565b6000819050602082019050919050565b600081519050919050565b600081519050919050565b600081519050919050565b6000602082019050919050565b600082825260208201905092915050565b600082825260208201905092915050565b600082825260208201905092915050565b600082825260208201905092915050565b600081905092915050565b60006136ed826137f7565b91506136f8836137f7565b9250827fffffffffffffffffffffffffffffffffffffffffffffffffffffffffffffffff0382111561372d5761372c6138a6565b5b828201905092915050565b6000613743826137f7565b915061374e836137f7565b925082821015613761576137606138a6565b5b828203905092915050565b6000613777826137b6565b9050919050565b60008115159050919050565b60007fffffffff0000000000000000000000000000000000000000000000000000000082169050919050565b600073ffffffffffffffffffffffffffffffffffffffff82169050919050565b600074ffffffffffffffffffffffffffffffffffffffffff82169050919050565b6000819050919050565b82818337600083830152505050565b60005b8381101561382e578082015181840152602081019050613813565b8381111561383d576000848401525b50505050565b6000600282049050600182168061385b57607f821691505b6020821081141561386f5761386e613904565b5b50919050565b61387e82613985565b810181811067ffffffffffffffff8211171561389d5761389c613933565b5b80604052505050565b7f4e487b7100000000000000000000000000000000000000000000000000000000600052601160045260246000fd5b7f4e487b7100000000000000000000000000000000000000000000000000000000600052601260045260246000fd5b7f4e487b7100000000000000000000000000000000000000000000000000000000600052602260045260246000fd5b7f4e487b7100000000000000000000000000000000000000000000000000000000600052604160045260246000fd5b600080fd5b600080fd5b600080fd5b600080fd5b600080fd5b600080fd5b600080fd5b6000601f19601f8301169050919050565b7f4552433732313a2063616c6c6572206973206e6f7420746f6b656e206f776e6560008201527f72206f7220617070726f76656400000000000000000000000000000000000000602082015250565b7f4552433732313a207472616e7366657220746f206e6f6e20455243373231526560008201527f63656976657220696d706c656d656e7465720000000000000000000000000000602082015250565b7f4f776e61626c653a206e6577206f776e657220697320746865207a65726f206160008201527f6464726573730000000000000000000000000000000000000000000000000000602082015250565b7f4552433732313a207472616e736665722066726f6d20696e636f72726563742060008201527f6f776e6572000000000000000000000000000000000000000000000000000000602082015250565b7f4552433732313a20746f6b656e20616c7265616479206d696e74656400000000600082015250565b7f4552433732313a207472616e7366657220746f20746865207a65726f2061646460008201527f7265737300000000000000000000000000000000000000000000000000000000602082015250565b7f4552433732313a20617070726f766520746f2063616c6c657200000000000000600082015250565b7f4552433732313a2061646472657373207a65726f206973206e6f74206120766160008201527f6c6964206f776e65720000000000000000000000000000000000000000000000602082015250565b7f4552433732313a206d696e7420746f20746865207a65726f2061646472657373600082015250565b7f4f776e61626c653a2063616c6c6572206973206e6f7420746865206f776e6572600082015250565b7f4552433732313a20696e76616c696420746f6b656e2049440000000000000000600082015250565b7f4552433732313a20617070726f76616c20746f2063757272656e74206f776e6560008201527f7200000000000000000000000000000000000000000000000000000000000000602082015250565b7f4552433732313a20617070726f76652063616c6c6572206973206e6f7420746f60008201527f6b656e206f776e6572206f7220617070726f76656420666f7220616c6c000000602082015250565b613ce4816137d6565b8114613cef57600080fd5b50565b613cfb8161377e565b8114613d0657600080fd5b50565b613d128161378a565b8114613d1d57600080fd5b50565b613d29816137f7565b8114613d3457600080fd5b5056fea26474726f6e58221220af4b0e86d91ffd0ecc0661ee1a0d4072674ceca5a9958eb864813c089385a0b264736f6c63430008060033",
  "source": "// SPDX-License-Identifier: MIT\npragma solidity ^0.8.6;\n\nimport '../node_modules/@openzeppelin/contracts/token/ERC721/ERC721.sol';\nimport '../node_modules/@openzeppelin/contracts/access/Ownable.sol';\nimport '../node_modules/@openzeppelin/contracts/security/ReentrancyGuard.sol';\nimport '../node_modules/@openzeppelin/contracts/utils/Counters.sol';\n\ncontract Coopart is ERC721, Ownable, ReentrancyGuard {\n    using Counters for Counters.Counter;\n    Counters.Counter private _tokenIds;\n    mapping(uint256 => TokenMeta) private _tokenMeta;\n    mapping(uint256 => address) private _creators;\n\n    string baseURI;\n\n    Counters.Counter layerCount;\n    mapping(uint256 => Layer) private layers;\n    struct Layer {\n        string imageUri;\n        address author;\n        uint256 upVotes;\n        uint256 downVotes;\n    }\n\n    struct TokenMeta {\n        uint256 id;\n        uint256 price;\n        string name;\n        string uri;\n        bool isOnSale;\n        uint256[] layerIds;\n    }\n\n    constructor() ERC721('Coop.art', 'COOPART') {}\n\n    function _baseURI() internal view virtual override returns (string memory) {\n        return baseURI;\n    }\n\n    function setBaseURI(string memory _newBaseURI) public virtual onlyOwner {\n        baseURI = _newBaseURI;\n    }\n\n    function setTokenMeta(uint256 _tokenId, TokenMeta memory _meta) public {\n        require(_exists(_tokenId));\n        require(ownerOf(_tokenId) == _msgSender());\n        _tokenMeta[_tokenId] = _meta;\n    }\n\n    function updateTokenMetaUri(uint256 _tokenId, string memory _uri) public {\n        require(_exists(_tokenId));\n        require(ownerOf(_tokenId) == _msgSender());\n        _tokenMeta[_tokenId].uri = _uri;\n    }\n\n    function tokenMeta(uint256 _tokenId) public view returns (TokenMeta memory) {\n        require(_exists(_tokenId));\n        return _tokenMeta[_tokenId];\n    }\n\n    function upVote(uint256 layerId) public {\n        layers[layerId].upVotes += 1;\n    }\n\n    function downVote(uint256 layerId) public {\n        layers[layerId].downVotes += 1;\n    }\n\n    function getLayer(uint256 layerId) public view returns (Layer memory) {\n        return (layers[layerId]);\n    }\n\n    function addLayer(\n        uint256 _canvasId,\n        string memory _imageUri,\n        address _author\n    ) public returns (uint256) {\n        layerCount.increment();\n        uint256 newLayerId = layerCount.current();\n        layers[newLayerId] = Layer(_imageUri, _author, 0, 0);\n        // _tokenMeta[_canvasId].push(newLayerId);\n        TokenMeta storage meta = _tokenMeta[_canvasId];\n        meta.layerIds.push(newLayerId);\n        setTokenMeta(_canvasId, meta);\n        return newLayerId;\n    }\n\n    function mintCanvas(\n        address _owner,\n        string memory _tokenURI,\n        string memory _name,\n        uint256 _price,\n        bool _isOnSale\n    ) public returns (uint256) {\n        require(_price > 0);\n        _tokenIds.increment();\n        uint256 newItemId = _tokenIds.current();\n        _mint(_owner, newItemId);\n        _creators[newItemId] = msg.sender;\n        uint256[] memory layersIds;\n        TokenMeta memory meta = TokenMeta(newItemId, _price, _name, _tokenURI, _isOnSale, layersIds);\n        setTokenMeta(newItemId, meta);\n        return newItemId;\n    }\n}\n",
  "sourcePath": "/Users/lol/apps/fun/coop.art/src/contracts/contracts/Coopart.sol",
  "compiler": {
    "name": "solc",
    "version": "0.8.6+commit.0e36fba0.mod.Emscripten.clang"
  },
  "schemaVersion": "2.0.1",
  "updatedAt": "2022-11-08T22:10:53.768Z"
}